:020000040800F2
:100000000020002011780008955C0008A15C000821
:1000100000000000000000000000000000000000E0
:10002000000000000000000000000000A95C0008C3
:100030000000000000000000B55C0008C15C000882
:1000400067780008697800086B7800086D78000808
:100050006F780008717800087378000875780008D8
:1000600077780008797800087B780008DD5C000864
:100070007F78000881780008837800088578000878
:1000800087780008155D00088B7800088D780008D7
:100090008F78000891780008937800089578000818
:1000A00097780008997800089B780008415D00085F
:1000B000515D0008A1780008A3780008A578000821
:1000C000A778000880B582B000AF786039607B689F
:1000D0001B68054A1A403B681A437B681A60C04691
:1000E000BD4602B080BDC046FFFF3FFE80B582B076
:1000F00000AF786039607B68DB68182293431A0090
:100100003B681A437B68DA60C046BD4602B080BDDA
:1001100080B582B000AF78607B689B68044A13406A
:1001200001221A437B689A60C046BD4602B080BD7A
:10013000E8FFFF7F80B582B000AF78607B689B6886
:10014000044A134002221A437B689A60C046BD46A7
:1001500002B080BDE8FFFF7F80B582B000AF78605D
:100160007B689B68012213405A1E9341DBB2180042
:10017000BD4602B080BDC04680B582B000AF786099
:100180007B689B68054A1340802212061A437B68ED
:100190009A60C046BD4602B080BDC046E8FFFF7F02
:1001A00080B582B000AF78607B689B68DB0FDBB204
:1001B0001800BD4602B080BD80B582B000AF786047
:1001C0007B689B68044A134004221A437B689A6048
:1001D000C046BD4602B080BDE8FFFF7F80B582B05B
:1001E00000AF78607B681B6C9BB21800BD4602B004
:1001F00080BDC04680B582B000AF78607B681B6C64
:100200009BB21800BD4602B080BDC04680B582B02A
:1002100000AF78607B681B6CDBB21800BD4602B093
:1002200080BDC04680B582B000AF78607B681B6C33
:10023000DBB21800BD4602B080BDC04680B582B0BA
:1002400000AF78607B681B68012213405A1E9341FF
:10025000DBB21800BD4602B080BDC04680B582B09A
:1002600000AF78607B681B68042213405A1E9341DC
:10027000DBB21800BD4602B080BDC04680B582B07A
:1002800000AF78607B6801221A60C046BD4602B0AC
:1002900080BDC04680B500AF104B00229A600F4B66
:1002A00000225A610D4B08221A620D4B1800FFF70D
:1002B00063FFC0460A4B1800FFF772FF031EF9D117
:1002C000074B1800FFF7DAFF00F07CF800F0AAF8FF
:1002D00000F0ECF8C046BD4680BDC046AC09002029
:1002E0000024014090B585B000AF78603960344B90
:1002F0007A689A623B68324A19001000FFF7F6FEEE
:100300002F4B1800FFF704FF2D4B1800FFF796FF47
:10031000031EF5D02A4B1800FFF74EFFC046284BAE
:100320001800FFF79BFF031EF9D03B68082B1CD079
:1003300002D8002B22D02AE0102B0CD0182B00D092
:1003400025E01F4B1800FFF76DFF03001A000E2376
:10035000FB181A801BE01A4B1800FFF757FF030029
:100360001A000E23FB181A8011E00E23FC18144B00
:100370001800FFF73FFF0300238008E00E23FC185E
:100380000F4B1800FFF72AFF03002380C0460C4BD9
:100390001800FFF7CFFE0A4B1800FFF7DDFE010043
:1003A0000E23FB180E22BA1812881A800029EED1EB
:1003B0000E23FB181B881800BD4605B090BDC04633
:1003C0000024014080B500AF8023DB03104A1900F0
:1003D0001000FFF777FE0F4B9B680F4A19001000C3
:1003E000FFF780FF03001A000A4B1A600B4B1B88B3
:1003F0001A000B4B5A43074B1B681900100007F0FB
:1004000057FA03001A00034B5A60C046BD4680BD30
:1004100008270140AC090020000002C4BAF7FF1F02
:10042000E40C000080B500AF80231B04194A1900BA
:100430001000FFF747FE184B5B69184A19001000BF
:10044000FFF750FF03001A00134BDA60124BDA6813
:10045000114B5B6853431249180007F029FA030057
:100460001A00104B1B88D21A13009B009B181B010B
:1004700018000D4B1B881A000A4B1B88D31A190051
:1004800007F0A0FA03001E331A00034B1A61C0469E
:10049000BD4680BD08270140AC090020000001C016
:1004A000E40C0000B8F7FF1FC2F7FF1F80B500AFD4
:1004B00080235B040F4A19001000FFF703FE0E4B68
:1004C0001B6A0E4A19001000FFF70CFF03001A0008
:1004D000094B9A61084B9A69074B5B68534308497B
:1004E000180007F0E5F903005A00034BDA61C04633
:1004F000BD4680BD08270140AC090020000004C8AB
:10050000FF03000080B582B000AF78600A4B002185
:100510001800FFF7D7FD7B689A0601217B68994098
:100520000B00134308211800FFF7DCFE030018003E
:10053000BD4602B080BDC0460827014080B582B0EC
:1005400000AF02003960BB1D1A80BB1D1A88094B21
:100550005B68534318003B689B08074ADA40130066
:10056000190007F0A5F903009BB21800BD4602B0C0
:1005700080BDC046AC090020FF0F000080B582B0EE
:1005800000AF786039603B68013B0A4AD35C1A00CF
:100590007B68D3183A68013A06498A5C11007A6888
:1005A0008A18126801218A431A60C046BD4602B00B
:1005B00080BDC046CC84000880B584B000AFF86030
:1005C000B9607A60BB68013B0A4AD35C1A00FB68D9
:1005D000D318BA68013A07498A5C1100FA688A1888
:1005E0001268054911407A680A431A60C046BD4640
:1005F00004B080BDCC840008EFBFFFFF80B584B09D
:1006000000AFF860B9607A60BB68013B0B4AD35C0D
:100610001A00FB68D318BA68013A08498A5C1100CD
:10062000FA688A18126880218A4311007A680A439E
:100630001A60C046BD4604B080BDC046CC840008E8
:1006400080B584B000AFF860B9607A60BB68013BE8
:100650000A4AD35C1A00FB68D318BA68013A074902
:100660008A5C1100FA688A185268120C11047A68C0
:100670000A435A60C046BD4604B080BDCC84000821
:1006800080B584B000AFF860B9607A60BB68013BA8
:10069000054AD35C1A00FB68D3187A68DA60C04652
:1006A000BD4604B080BDC046CC84000880B584B08F
:1006B00000AFF860B9607A60BB68013B054AD35C63
:1006C0001A00FB68D3187A689A60C046BD4604B029
:1006D00080BDC046CC84000880B582B000AF786091
:1006E00039603B68013B0A4AD35C1A007B68D31827
:1006F0003A68013A06498A5C11007A688A181268D9
:1007000002210A431A60C046BD4602B080BDC04601
:10071000CC84000880B582B000AF786039603B6857
:10072000013B0A4AD35C1A007B68D3183A68013A45
:1007300006498A5C11007A688A18126804218A4383
:100740001A60C046BD4602B080BDC046CC840008D9
:1007500080B582B000AF786039603B68013B0A4ADF
:10076000D35C1A007B68D3183A68013A06498A5C60
:1007700011007A688A18126808218A431A60C046F4
:10078000BD4602B080BDC046CC84000880B582B0B2
:1007900000AF78607B689B6880221A437B689A6010
:1007A000C046BD4602B080BD80B500AF1F4B0421DE
:1007B0001800FFF7E3FE1E4B5B6828331A001B4B43
:1007C00004211800FFF772FF1A4B1B681A00174B21
:1007D00004211800FFF754FF144B80220421180055
:1007E000FFF70CFF114B102204211800FFF7E4FE65
:1007F0000E4B202204211800FFF722FF0B4B04218F
:100800001800FFF787FF094B04211800FFF7A0FF2E
:10081000064B04211800FFF75FFF054B5B681800CB
:10082000FFF7B4FFC046BD4680BDC0460000024091
:10083000000000201000002080B582B000AF78607A
:100840007B689B69012213405A1E9341DBB218005A
:10085000BD4602B080BDC04680B582B000AF7860B2
:100860007B689B69042213405A1E9341DBB2180037
:10087000BD4602B080BDC04680B582B000AF786092
:100880007B689B69082213405A1E9341DBB2180013
:10089000BD4602B080BDC04680B582B000AF786072
:1008A0007B689B69102213405A1E9341DBB21800EB
:1008B000BD4602B080BDC04680B582B000AF786052
:1008C0007B68DB6920221A437B68DA61C046BD463B
:1008D00002B080BD80B584B000AFF860B9607A60C6
:1008E0003B60FB685B68094A1A40B9687B6819433A
:1008F0003B681B041943BB691943FB690B431A434B
:10090000FB685A60C046BD4604B080BD008000FC54
:1009100080B582B000AF78607B685B6ADBB218009C
:10092000BD4602B080BDC04680B582B000AF7860E1
:100930000A00FB1C1A70FB1C1A787B689A62C0467E
:10094000BD4602B080BDC04680B500AF054B1A68F9
:1009500080235B0213405A1E9341DBB21800BD4650
:1009600080BDC04610E000E080B584B002AF020058
:10097000FB1D1A70FB1D1978154880239B010193FC
:1009800080239B04009301230022FFF7A3FF104B59
:1009900000211800FFF7C8FF0BE0FFF7D5FF031E8B
:1009A00007D00B4B1800FFF777FF031E01D0012380
:1009B0000AE0074B1800FFF73FFF031EEDD0044B82
:1009C0001800FFF779FF00231800BD4602B080BD74
:1009D0000054004090B587B002AF040008003A60B0
:1009E0001900FB1D221C1A703B1D021C1A80BB1D26
:1009F0000A1C1A700F23FB1800221A700E23FB1812
:100A000000221A703D4B1800FFF756FFBB1D1B78E4
:100A1000FF2B02D0BB1D1A7800E0FE220F23FB182B
:100A20001A700E23FB180F22BA1812781A70FB1DC9
:100A300019780F23FB181B7801331A002F488023E5
:100A40009B01019380239B04009313000022FFF776
:100A500041FFC046294B1800FFF70EFF031EF9D1D6
:100A60003B1D1B88DBB2254A19001000FFF75CFF15
:100A7000C046224B1800FFF7DFFE031EF9D03B688B
:100A80001B781E4A19001000FFF74EFFC0461B4B93
:100A90001800FFF7D1FE031EF9D03B6801333B601D
:100AA0000F23FB180F22BA181278013A1A700F237D
:100AB000FB181B78002BE2D1BB1DB91D0E22BA1802
:100AC000097812788A1A1A700E23FB181B7899B2CB
:100AD0003B1D3A1D12888A181A80084B1800FFF730
:100AE000EBFE052006F064FEBB1D1B78002B8DD1AC
:100AF00000231800BD4605B090BDC046005400401C
:100B000090B585B002AF040008003A601900FB1DE3
:100B1000221C1A703B1D021C1A80BB1D0A1C1A7075
:100B20002E4B1800FFF7C8FEFB1D19782B488023B9
:100B30009B01019380239B04009301230022FFF774
:100B4000C9FEC046254B1800FFF796FE031EF9D1DB
:100B50003B1D1B88DBB2214A19001000FFF7E4FEA1
:100B6000C0461E4B1800FFF767FE031EF9D01B4B53
:100B70001800FFF7A1FEFB1D1978BB1D1A78174856
:100B800090239B01019380239B0400931300002278
:100B9000FFF7A0FEC046114B1800FFF75DFE031ED5
:100BA000F9D00E4B1800FFF7B3FE03001A003B68A4
:100BB0001A703B6801333B60BB1DBA1D1278013AC5
:100BC0001A70BB1D1B78002BE4D1044B1800FFF7F3
:100BD00073FE00231800BD4603B090BD00540040D2
:100BE00090B587B002AF0200FB1D1A703B1D0A1CB6
:100BF0001A80FB1D1978264880239B0101938023CE
:100C00009B04009301230022FFF764FEC046204BA3
:100C10001800FFF731FE031EF9D13B1D1B88DBB224
:100C20001B4A19001000FFF77FFEC046184B180042
:100C3000FFF702FE031EF9D0154B1800FFF73CFE2C
:100C4000FB1D1978124890239B01019380239B047C
:100C5000009301230022FFF73DFEC0460C4B180015
:100C6000FFF7FAFD031EF9D00F23FC18084B1800FC
:100C7000FFF74EFE03002370054B1800FFF71CFE24
:100C80000F23FB181B781800BD4605B090BDC04669
:100C90000054004090B585B002AF04000800110078
:100CA000FB1D221C1A703B1D021C1A80BB1D0A1C56
:100CB0001A70FB1D19781D4880239B010193802326
:100CC0009B04009302230022FFF704FEC046174B4B
:100CD0001800FFF7D1FD031EF9D13B1D1B88DBB2C5
:100CE000124A19001000FFF71FFEC0460F4B1800F4
:100CF000FFF7A2FD031EF9D0BB1D1B780B4A19009C
:100D00001000FFF711FEC046084B1800FFF794FDD6
:100D1000031EF9D0054B1800FFF7CEFD052006F0A5
:100D200047FDC046BD4603B090BDC04600540040DC
:100D300080B582B000AF786039607B683A685A63EA
:100D4000C046BD4602B080BD80B582B000AF7860BD
:100D500039607B683A689A63C046BD4602B080BD80
:100D600080B582B000AF0200FB1D1A70BB1D0A1CCB
:100D70001A70FB1D1B78012B02D0022B08D00FE04C
:100D8000BB1D1B78084A19001000FFF7D1FF07E0D0
:100D9000BB1D1B78044A19001000FFF7D5FFC046A1
:100DA000C046BD4602B080BD0040014080B582B063
:100DB00000AF78607B681B6801221A437B681A6069
:100DC000C046BD4602B080BD80B582B000AF78603D
:100DD00039607B681A6A3B681A437B681A62C046AE
:100DE000BD4602B080BDC04680B582B000AF78601D
:100DF00039607B681B6A3A68D2431A407B681A6282
:100E0000C046BD4602B080BD80B582B000AF7860FC
:100E100039607B683A685A63C046BD4602B080BDFF
:100E200080B582B000AF78607B685B6C8022120274
:100E30001A437B685A64C046BD4602B080BDC046B6
:100E400080B500AF124B1B88002B18D0114B23220A
:100E50009B5C1A001300DB009B1A1A000E4B11005A
:100E60001800FFF7D1FF0C4B01211800FFF7ACFF72
:100E7000074B1B88013B9AB2054B1A8004E0064BD6
:100E800001211800FFF7B0FFC046BD4680BDC04637
:100E9000E4090020980A00200044014080B500AF1A
:100EA000074B1800FFF782FF054B1800FFF7B8FF4C
:100EB000034B01211800FFF787FFC046BD4680BDE8
:100EC0000044014080B500AF0A4B1800FFF76EFFE9
:100ED000084B1800FFF7A4FF064B01211800FFF78D
:100EE00073FF044B10211800FFF76EFFC046BD468C
:100EF00080BDC0460040014080B582B000AF786040
:100F00007B681B6801221A437B681A60C046BD4695
:100F100002B080BD80B582B000AF78607B681B688E
:100F2000012293431A007B681A60C046BD4602B096
:100F300080BDC04680B582B000AF78607B681B681A
:100F4000012213405A1E9341DBB21800BD4602B085
:100F500080BDC04680B582B000AF78607B68DB6939
:100F6000202213405A1E9341DBB21800BD4602B046
:100F700080BDC04680B582B000AF78607B68DB6919
:100F8000402213405A1E9341DBB21800BD4602B006
:100F900080BDC04680B582B000AF78607B681B68BA
:100FA00020221A437B681A60C046BD4602B080BD4D
:100FB00080B582B000AF78607B681B6840229343A5
:100FC0001A007B681A60C046BD4602B080BDC046AC
:100FD00080B582B000AF78607B681B682022134028
:100FE0005A1E9341DBB21800BD4602B080BDC04618
:100FF00080B582B000AF78607B681B6840221340E8
:101000005A1E9341DBB21800BD4602B080BDC046F7
:1010100080B582B000AF78607B689B8C9BB2DBB2FE
:101020001800BD4602B080BD90B58DB000AFB9606C
:101030007A6019000F23FB18021C1A700E23FB188C
:101040000A1C1A701423FB183A4A13CA13C313CA92
:1010500013C312681A600F23FB181A78364B9200DC
:10106000D3581800FFF756FF0F23FB181A78324B9E
:101070009200D3581800FFF75DFF031EEBD1142335
:10108000FB18BA681A600E23FB181B78012B02D0DC
:10109000022B05D00FE01423FB18C022D200DA6027
:1010A0001423FB188022D200DA601423FB1880225C
:1010B00052015A6007E01423FB180022DA6014235F
:1010C000FB1800225A600F23FB181A781A4B920063
:1010D000D3581422BA181100180006F0D7FA0F23BB
:1010E000FB181A78144B9200D3581800FFF704FF2E
:1010F0000F23FB181A78104B9200D3581800FFF7F3
:1011000019FF031EEBD00F23FB181A780A4B92002D
:10111000D3581800FFF73EFF0F23FB181A78064B31
:101120009200D3581800FFF743FFC046BD460DB0EC
:1011300090BDC046EC8400080000002080B584B05B
:1011400000AF0200FB1D1A700F23FB1800221A705B
:1011500013E0FB1D1A780F23FB181B780F21791859
:10116000581C08701800154913009B009B181B01A0
:10117000CB181B18043300221A700F23FB181B789E
:101180001F2BE6D9FB1D1A780C49442013009B0045
:101190009B181B01CB181B1800221A70FB1D1A7814
:1011A000064913009B009B181B01CB180333002238
:1011B0001A70C046BD4604B080BDC046E809002094
:1011C00080B584B000AF78600F23FB1800221A703E
:1011D00013E00F23FB181A780D4B9200D2587B684E
:1011E0009A4203D10F23FB181B780CE00F23FB1846
:1011F0001A780F23FB1801321A700F23FB181B7883
:10120000052BE6D9FF231800BD4604B080BDC046BB
:10121000D484000880B500AF294B1B681800FFF785
:1012200099FE031E26D0264B1B681800FFF7D0FE40
:10123000031E1FD0224B1B681800FFF7E9FE0300B6
:101240001A00204BDA70204B1B681E4A4421525C66
:101250009B181C4AD2781A701A4B44229B5C0133AB
:10126000D9B2184B44229954164B02221A70154BCE
:101270000A229A70124B1B681800FFF76BFE031EC0
:1012800009D00F4B1B681800FFF7A2FE031E02D007
:101290000E4B1B6898470A4B1B681800FFF76AFE45
:1012A000031E09D0064B1B681800FFF7A1FE031EA2
:1012B00002D0074B1B689847C046BD4680BDC0465C
:1012C00000000020E809002008000020D80A0020C3
:1012D000D00A002080B500AFBFF34F8F034B044A04
:1012E000DA60BFF34F8FC046FDE7C04600ED00E077
:1012F0000400FA0580B582B000AF786039607B6881
:101300003A689A61C046BD4602B080BD80B582B0E1
:1013100000AF786039607B683A689A62C046BD4623
:1013200002B080BD80B500AF00F06CFA134B18001E
:1013300000F054F8124A134B11001800FFF7E6FFB3
:10134000FFF7C0FD104B24229B5C19000120FFF722
:1013500007FD0D4B25229B5C19000220FFF700FDC5
:10136000FEF798FF00F062F8FFF798FDFFF71CFA10
:101370000A2006F01DFAC046BD4680BDC40A002002
:101380000704000000040048980A002080B500AF60
:101390000F4B1A680F4B1B689A4216D80D4B1B68EF
:1013A0002D33FF331A000A4B1A6000F03FF80A4B46
:1013B00024229B5C19000120FFF7D2FC064B25225A
:1013C0009B5C19000220FFF7CBFCC046BD4680BDE8
:1013D000E808002070090020980A002080B584B039
:1013E00000AF78600F23FB1800221A700F23FB1840
:1013F0001B787A68D3180F22BA1812780A498C46DB
:10140000624412781A700F23FB180F22BA18127850
:1014100001321A700F23FB181B780B2BE6D9C0463C
:10142000BD4604B080BDC046ACF7FF1F80B500AF1D
:10143000FEF7C8FFFEF7F6FF0020FFF763F8030092
:101440001A00104B1A800F4B1B8808211800FFF759
:1014500075F803001A000B4B5A800420FFF752F86E
:1014600003001A00074B9A80064B9B88082118003E
:10147000FFF764F803001A00024BDA80C046BD464D
:1014800080BDC046D009002080B582B000AF0023E7
:101490007B60354B1A68354B1B689A420BD2334B35
:1014A0001B68FA2292009A182F4B1A60304B9B6AE5
:1014B0005A1C2F4B9A62FFF7C3FC2E4B52229B5CA7
:1014C000DBB2002B09D02B4B52229B5CDBB2013BE1
:1014D000D9B2284B522299542EE0264B50229B5CC5
:1014E000022B29D1234B502200219954224B1A68F8
:1014F000204B94215B5C013BD3187B607B68023BF3
:101500001B78FF2B11D17B68013B1B78FF2B0CD183
:101510007B681B78FF2B08D1164B5022042199546D
:10152000144B51220021995406E0124B5122022102
:1015300099540120FFF702FE0E4B9B78DBB2002B83
:1015400007D00C4B9B78DBB2013BDAB2094B9A70A7
:1015500006E0084B1B78022B02D1064B00221A70C2
:10156000C046BD4602B080BDEC08002070090020D6
:10157000980A0020E80900200C00002080B584B003
:1015800002AFFB1D00221A704F4B1B6810331A006C
:101590004E4B9B6A9BB213804B4B1B6812331A0055
:1015A0004A4B9B6A1B0C9BB21380474B1B6808334A
:1015B0001A88474B1B789BB29A421DD0424B1B683E
:1015C00008331B88002B10D03F4B1B6808331B8847
:1015D000F72B0AD83C4B1B6808331B88DAB23C4B0C
:1015E0001A70FB1D01221A7006E0374B1B68083386
:1015F000374A127892B21A80334B1B680C331A8820
:10160000334B5B889A4218D02F4B1B680C331B88D6
:101610001800FFF7D5FD0300FF2B08D02A4B1B68ED
:101620009A892B4B5A80FB1D01221A7005E0264B2C
:101630001B680C33264A52881A80FB1D1B78012B2D
:1016400018D101F023F901F0E3F8214B1978204B70
:101650005B881A001E4B1B790093130000220020A8
:1016600001F03CF81B4A1C2301217B2000F09EFE68
:1016700001F0EEF8144B1B681E331B88002B17D0AB
:10168000114B1B681E331B88134A934202D10F4B28
:1016900000229A620C4B1B681E331B880F4A934230
:1016A00001D100F01FF8084B1B681E3300221A807E
:1016B0000B4B1B680233054A2121525C92B21A80FF
:1016C000C046BD4602B080BD9C000020980A0020A4
:1016D000880A0020E40B0020BAAB0000C918000003
:1016E0009800002080B500AF00F008F8642006F0F4
:1016F0005FF8FFF7EFFDC046BD4680BD80B500AF87
:101700000A4B2C2219000A2002F066F8084B10221E
:101710001900382002F060F8064B032219003E2021
:1017200002F05AF8C046BD4680BDC046980A002067
:10173000880A0020640C002080B500AF074B2C22E3
:1017400019000A2002F020F8054B10221900382059
:1017500002F01AF8C046BD4680BDC046980A002077
:10176000880A002080B584B000AF0200FB1D1A700B
:101770000F23FB1800221A700FE00F23FB181B78B1
:101780001D4AD35CFA1D12789A421FD00F23FB1812
:101790001A780F23FB1801321A70174B20229B5C1A
:1017A0000F22BA1812789A42E7D9134B20229B5C79
:1017B0000133D9B2104B202299540F4B20229B5C4D
:1017C00019000D4BFA1D12785A5400E0C0460A4B1E
:1017D000FA1D212112785A54074B20229B5C1F2BA3
:1017E00006D9064A064B11001800FFF783FDFEE7F5
:1017F000C046BD4604B080BD980A00200704000022
:101800000004004880B582B000AFFB1D00221A70B2
:10181000082002F03FF80300552B1AD002F062F8BE
:1018200000F01EF8FFF76AFF0DE05521082002F0D6
:1018300043F8FB1D1B78FA1D591C1170052B02D9AA
:101840000020FFF78FFF082002F024F80300552B3B
:10185000EBD1FFF771FFC046BD4602B080BDC04668
:1018600080B582B000AFFB1D00221A70274B0A2200
:101870001A70264B9622D2015A80244B00221A71EC
:10188000224B01225A71214B08229A711F4B0A22C6
:101890001A721E4B9622D2015A811C4B00221A73D7
:1018A0001A4B01225A73194B08229A7308E0FB1D48
:1018B0001B78FA1D591C11701A00154B0021995400
:1018C000FB1D1B781F2BF2D9114B202200219954AC
:1018D0000F4B2122002199540D4B222200219954B3
:1018E0000B4B2322012199540A4B00221A80084BEA
:1018F000242200219954064B252200219954044B9F
:1019000000229A62C046BD4602B080BD880A00200F
:10191000980A0020E409002090B587B000AF7860F5
:1019200039601623FB1800221A703B681B88052BB0
:1019300000D094E07B6801331B789AB21423FB1823
:1019400012021A807B6802331B7899B21423FB18A9
:101950001422BA1812880A431A807B6803331B7852
:101960009AB21223FB1812021A807B6804331B7888
:1019700099B21223FB181222BA1812880A431A804D
:101980001223FB181B88002B64D01223FB181B8822
:10199000384A93425ED87B68FB603B6800221A801D
:1019A000FB685A1CFA6001221A703B681B880133DD
:1019B0009AB23B681A801223FB181B880722134037
:1019C0000AD01223FB181B88DB089BB2DAB217235C
:1019D000FB1801321A7007E01223FB181B88DB0882
:1019E0009AB21723FB181A70FB685A1CFA60172268
:1019F000BA1812781A703B681B8801339AB23B6898
:101A00001A800B23FC181223FB181A881423FB18C6
:101A10001988F868002301F039FD030023700B23B7
:101A2000FB181B78002B0AD01623FC180B23FB187D
:101A30001B78180000F028FE0300237013E03B68B9
:101A40001A881723FB181B789BB2D3189AB23B68ED
:101A50001A8008E01623FB1803221A7003E01623ED
:101A6000FB1803221A701623FB181B781800BD46BA
:101A700007B090BDCF07000090B585B000AF78608B
:101A800039600F23FB1800221A703B681B88052B56
:101A900055D17B6801331B789AB20C23FB181202D4
:101AA0001A807B6802331B7899B20C23FB180C2236
:101AB000BA1812880A431A807B6804331B78002BFB
:101AC00038D17B6803331B78FF2B04D07B6803334A
:101AD0001B78002B2ED10823FB1800225A707B683C
:101AE00003331B78FF2B04D10823FB1801221A7043
:101AF00003E00823FB1800221A700B23FC180C23A8
:101B0000FB1819880823F8180123012201F0BEFCF4
:101B1000030023700B23FB181B78002B13D00F231B
:101B2000FC180B23FB181B78180000F0ADFD030018
:101B3000237008E00F23FB1803221A7003E00F2321
:101B4000FB1803221A700F23FB181B781800BD46E0
:101B500005B090BD90B585B000AF786039600E23B8
:101B6000FB1800221A703B681B88052B00D87FE009
:101B70007B6801331B789AB20C23FB1812021A807F
:101B80007B6802331B7899B20C23FB180C22BA181D
:101B900012880A431A807B6803331B789AB20A239F
:101BA000FB1812021A807B6804331B7899B20A234F
:101BB000FB180A22BA1812880A431A800923FB1854
:101BC0007A6852791A700A23FB181B88072213407F
:101BD0000AD00A23FB181B88DB089BB2DAB20F235A
:101BE000FB1801321A7007E00A23FB181B88DB0878
:101BF0009AB20F23FB181A700A23FB181B88002BBC
:101C000031D00A23FB181A88F623DB009A422AD81F
:101C10000F23FA180923FB1812781B789A4222D155
:101C20007B68981D0823FC180A23FB181A880C23CC
:101C3000FB181988012301F029FC030023700823F5
:101C4000FB181B78002B0AD00E23FC180823FB1866
:101C50001B78180000F018FD030023700CE03B68AF
:101C600005221A8008E00E23FB1803221A7003E0F5
:101C70000E23FB1803221A700E23FB181B78180082
:101C8000BD4605B090BDC04690B587B000AF786046
:101C900039601623FB1800221A703B681B88052B3D
:101CA00000D094E07B6801331B789AB21423FB18B0
:101CB00012021A807B6802331B7899B21423FB1836
:101CC0001422BA1812880A431A807B6803331B78DF
:101CD0009AB21223FB1812021A807B6804331B7815
:101CE00099B21223FB181222BA1812880A431A80DA
:101CF0001223FB181B88002B64D01223FB181B88AF
:101D0000384A93425ED87B68FB603B6800221A80A9
:101D1000FB685A1CFA6002221A703B681B88013368
:101D20009AB23B681A801223FB181B8807221340C3
:101D30000AD01223FB181B88DB089BB2DAB21723E8
:101D4000FB1801321A7007E01223FB181B88DB080E
:101D50009AB21723FB181A70FB685A1CFA601722F4
:101D6000BA1812781A703B681B8801339AB23B6824
:101D70001A800B23FC181223FB181A881423FB1853
:101D80001988FB68180001F071FC030023700B2315
:101D9000FB181B78002B0AD01623FC180B23FB180A
:101DA0001B78180000F070FC0300237013E03B6800
:101DB0001A881723FB181B789BB2D3189AB23B687A
:101DC0001A8008E01623FB1803221A7003E016237A
:101DD000FB1803221A701623FB181B781800BD4647
:101DE00007B090BDCF07000090B585B000AF786018
:101DF00039600F23FB1800221A703B681B88052BE3
:101E00002FD17B6801331B789AB20C23FB18120286
:101E10001A807B6802331B7899B20C23FB180C22C2
:101E2000BA1812880A431A807B68D81C0B23FC1846
:101E30000C23FB1819880123012201F087FA030003
:101E400023700B23FB181B78002B0ED00F23FC18DC
:101E50000B23FB181B78180000F016FC03002370FE
:101E600003E00F23FB1803221A700F23FB181B78C3
:101E70001800BD4605B090BD90B585B000AF786044
:101E800039600F23FB1800221A703B681B88052B52
:101E900067D97B6801331B789AB20C23FB181202B6
:101EA0001A807B6802331B7899B20C23FB180C2232
:101EB000BA1812880A431A807B6803331B789AB2D7
:101EC0000A23FB1812021A807B6804331B7899B22C
:101ED0000A23FB180A22BA1812880A431A80092317
:101EE000FB187A6852791A700A23FB181B88002B9A
:101EF00032D00A23FB181B88782B2DD80A23FB1815
:101F00001B88DBB2DB18DBB20922BA1812789A42BE
:101F100022D17B68981D0823FC180A23FB181A8815
:101F20000C23FB181988012301F010FA0300237019
:101F30000823FB181B78002B0AD00F23FC1808235A
:101F4000FB181B78180000F09FFB030023700CE0C7
:101F50003B6805221A8008E00F23FB1803221A7041
:101F600003E00F23FB1803221A700F23FB181B78C2
:101F70001800BD4605B090BD90B587B000AF786041
:101F800039601723FB1800221A703B681B88052B49
:101F900000D079E07B6801331B789AB21423FB18D8
:101FA00012021A807B6802331B7899B21423FB1843
:101FB0001422BA1812880A431A807B6803331B78EC
:101FC0009AB21223FB1812021A807B6804331A7823
:101FD0001223FB181A801223FB181B88002B4ED0EB
:101FE0001223FB181B887D2B49D87B68FB603B685C
:101FF00000221A80FB685A1CFA6003221A703B68A0
:102000001B8801339AB23B681A80FB685A1CFA603D
:102010001222BA181288D2B29218D2B21A703B6841
:102020001B8801339AB23B681A800B23FC181223D9
:10203000FB181A881423FB181988F868002301F08C
:1020400085F9030023700B23FB181B78002B0AD0A3
:102050001723FC180B23FB181B78180000F014FB47
:102060000300237014E03B681A881223FB181B88B6
:10207000DB189BB2D3189AB23B681A8008E017238A
:10208000FB1803221A7003E01723FB1803221A70AF
:102090001723FB181B781800BD4607B090BDC0463B
:1020A00090B587B000AF786039601723FB18002225
:1020B0001A703B681B88092B00D8D7E07B68013376
:1020C0001B789AB21423FB1812021A807B68023321
:1020D0001B7899B21423FB181422BA1812880A43E9
:1020E0001A807B6803331B789AB21223FB18120202
:1020F0001A807B6804331B7899B21223FB181222D2
:10210000BA1812880A431A807B6805331B789AB282
:102110001023FB1812021A807B6806331B7899B2D1
:102120001023FB181022BA1812880A431A807B6801
:1021300007331B789AB20E23FB1812021A807B68B1
:1021400008331B7899B20E23FB180E22BA18128896
:102150000A431A800D23FB187A68527A1A701223E8
:10216000FB181B88002B00D17CE01223FB181B8876
:102170007D2B00D976E00E23FB181B88002B00D1A5
:1021800070E00E23FB181B88792B6BD80E23FB18ED
:102190001B885A000D23FB181B789A4262D17B687A
:1021A0000A3318001623FC180E23FB181A88102374
:1021B000FB181988012301F0C9F8030023701623C6
:1021C000FB181B78002B3DD17B68BB603B6800226D
:1021D0001A80BB685A1CBA6017221A703B681B88A9
:1021E00001339AB23B681A80BB685A1CBA6012224B
:1021F000BA181288D2B29218D2B21A703B681B88F1
:1022000001339AB23B681A801623FC181223FB187C
:102210001A881423FB181988B868002301F096F86F
:10222000030023701623FB181B78002B0AD13B6890
:102230001A881223FB181B88DB189BB2D3189AB29A
:102240003B681A801623FB181B78002B0ED017232F
:10225000FC181623FB181B78180000F015FA030071
:10226000237003E01723FB1803221A701723FB18AF
:102270001B781800BD4607B090BDC04690B587B02A
:1022800000AF786039601723FB1800221A703B6892
:102290001B88052B00D07EE07B6801331B789AB247
:1022A0001423FB1812021A807B6802331B7899B240
:1022B0001423FB181422BA1812880A431A807B6868
:1022C00003331B789AB21223FB1812021A807B6820
:1022D00004331B7899B21223FB181222BA18128801
:1022E0000A431A801223FB181B88002B4ED012239E
:1022F000FB181B887C2B49D87B68FB603B6800225D
:102300001A80FB685A1CFA6004221A703B681B880A
:1023100001339AB23B681A80FB685A1CFA60122299
:10232000BA181288D2B29218D2B21A703B681B88BF
:1023300001339AB23B681A800B23FC181223FB1856
:102340001A881423FB181988FB68180000F0B0FFE6
:10235000030023700B23FB181B78002B0AD01723D4
:10236000FC180B23FB181B78180000F08DF90300F4
:10237000237014E03B681A881223FB181B88DB18B3
:102380009BB2D3189AB23B681A8008E01723FB1857
:1023900003221A7003E01723FB1803221A70172375
:1023A000FB181B781800BD4607B090BD90B585B0EE
:1023B00000AF040008003A601900FB1D221C1A70CF
:1023C000BB1D021C1A703B1D0A1C1A800F23FB1830
:1023D00000221A703B1D1B880233202B35DC204B5A
:1023E00000221A801E4B1B885A1C91B21C4A118075
:1023F00019001C4BFA1D12785A54194B1B885A1C91
:1024000091B2174A11801900BB1D1B78002B01D017
:10241000FF2200E00022134B5A543B1D1B88002B67
:1024200017D00F4B1B881A000E4BD0183B1D1A8873
:102430003B68190005F070FE094B1A883B1D1B888C
:10244000D3189AB2064B1A8003E00F23FB1804221C
:102450001A700F23FB181B781800BD4605B090BDFD
:1024600010090020F008002080B582B000AF78602D
:1024700039607B68581C094B1B881A00084B1900EF
:1024800005F04AFE054B1B8801339AB23B681A805F
:1024900000231800BD4602B080BDC04610090020D0
:1024A000F008002090B587B000AF78600C001000F5
:1024B0001900BB1C221C1A807B1C021C1A703B00DA
:1024C0000A1C1A701623FB183A0012781A8014237B
:1024D000FB18BA1C1288D2081A801423FB181B8818
:1024E000DB009AB21223FB18B91C09888A1A1A80D9
:1024F0001623FB181A881223FB181B889A401623F0
:10250000FB181A807B1C1B7801229A4013009AB298
:102510001023FB18013A1A801023FB181A88BB1CE1
:1025200019881423FB181B88DB00CB1A9A40102350
:10253000FB181A801423FB181B887A68D3181A78A2
:102540000E23FB181A801423FB181B8801337A68AA
:10255000D3181B781B021AB20E23FB1800215B5EF6
:1025600013431AB20E23FB181A801023FB18002203
:102570009B5EDB431BB20E22BA180021525E134051
:102580001AB21623FB1800215B5E13431AB20E2306
:10259000FB181A801423FB181B887A68D3180E22A4
:1025A000BA181288D2B21A701423FB181B88013390
:1025B0007A68D3180E22BA181288120A92B2D2B2CE
:1025C0001A70C046BD4607B090BDC04680B584B005
:1025D00000AF786008001100BB1C021C1A807B1C35
:1025E0000A1C1A700E23FB18BA1C1288D2081A8013
:1025F0000E23FB181B88DB009AB20C23FB18B91CB6
:1026000009888A1A1A807B1C1B7801229A401300C1
:102610009AB20A23FB18013A1A800E23FB181B8872
:102620007A68D3181A780823FB181A800E23FB182F
:102630001B8801337A68D3181B781B021AB208234F
:10264000FB1800215B5E13431AB20823FB181A80A3
:102650000823FB181A880C23FB181B881A4108232F
:10266000FB181A800823FB180822BA180A217918C7
:10267000128809880A401A800823FB181B88DBB2DD
:102680001800BD4604B080BD80B584B000AF020024
:10269000FB1D1A70FB1D1B78012B08D0072B0BD0DC
:1026A000002B0ED10F23FB1800221A700EE00F230F
:1026B000FB1802221A7009E00F23FB1806221A7079
:1026C00004E00F23FB1804221A70C0460F23FB18E6
:1026D0001B781800BD4604B080BDC046B0B584B0BC
:1026E00000AF0400080011003B60FB1D221C1A70A3
:1026F000BB1D021C1A707B1D0A1C1A700F23FB18CD
:1027000000221A70BB1D1B78002B07D0BB1D1B7845
:10271000002B03D0BB1D1B78F72B04D90F23FB180C
:1027200002221A7048E0284BBA1D12781A70FB1D5D
:102730001B78002B27D1254B254A1A60254B264AAA
:102740001A60264B264A1A60264B274A1A60274BE6
:1027500000221A60264B274A1A60274B274A1A6024
:10276000274B284A1A60184B18780F23FC1820238F
:10277000FB181D783A687B1D19782B0000F0B2F920
:102780000300237003E00F23FB1802221A700F23AB
:10279000FB181B78002B0FD100F0B6FB031E04D1F1
:1027A0000F23FB1803221A7006E0174BFA1D12784C
:1027B0001A70164B01221A700F23FB181B78180091
:1027C000BD4604B0B0BDC046120900201809002063
:1027D000952B00081C090020CD2B000814090020AF
:1027E000852C000820090020FD2B0008240900206A
:1027F000D80A00207D2D0008D00A0020152E0008E0
:10280000D40A0020A92E000813090020140000207B
:1028100080B582B000AFFB1D00221A700A4B1B78F6
:10282000012B07D1094B1B68002B06D0074B1B68F7
:10283000984702E0FB1D06221A70FB1D1B7818004A
:10284000BD4602B080BDC04614000020240900200F
:1028500080B582B000AFFB1D00221A70094B1B78B7
:10286000012B06D1084B1B689847064B00221A70B3
:1028700002E0FB1D06221A70FB1D1B781800BD46E6
:1028800002B080BD140000201809002080B582B07D
:1028900000AF0F4B1B78002B09D10E4B1B689847DC
:1028A0000B4B01221A70FB1D00221A700AE0084B24
:1028B0001B78012B03D1FB1D00221A7002E0FB1DC7
:1028C00006221A70FB1D1B781800BD4602B080BDA1
:1028D000140000201C090020B0B582B000AFFB1C22
:1028E00000221A70514B1B78002B01D0062398E070
:1028F000BB1C180000F02AFB0300012B00D08FE066
:10290000BB1C1B78012B04D000DC84E0022B1CD004
:1029100086E0474B1B68FC1C464A47494748984796
:1029200003002370FB1C1B78002B00D075E0434B89
:102930001A78434B1B789A4203D0404B1B78002BEC
:102940006BD1022000F0ECFA67E03B4B1B681A7871
:102950003C4B1A703C4B01221A7000237B6020E034
:102960003A4B7A68D200D35C002B1ED0374B7A6882
:10297000D200D25C334B1B789A420FD1334A7B682A
:10298000DB00D31804331A682B4B1B682949180045
:10299000904703001A002C4B1A7007E07B68013344
:1029A0007B607B680F2BDBDD00E0C046234B1B7890
:1029B000002B34D0244B1B78002B1ED01D4B002243
:1029C0001A801D4B1A681B4B1B88591C88B2194969
:1029D0000880D3181B4A1278802149420A43D2B298
:1029E0001A70154B1A68134B1B88591C88B2114971
:1029F0000880D318144A12781A70154B1D68104BB2
:102A000018780D4B19680B4B1B88FC1C1A00A84743
:102A10000300237003E0C04602E0C04600E0C04669
:102A200000231800BD4602B0B0BDC046140000200F
:102A300020090020300900202C090020280900204E
:102A4000120900203209002033090020180000205C
:102A50001409002080B584B000AF78600A00BB1C68
:102A60001A800F23FB18FF221A700E23FB18FF2277
:102A70001A701BE07B685A1C7A601A780E23FB18C8
:102A80001B785340DBB2BB60144ABB68D31819787B
:102A90000E23FB180F22BA1812784A401A700F231F
:102AA000FB180F49BA688A1812781A70BB1C1B8869
:102AB000BA1C591E1180002BDCD10F23FB181B7888
:102AC0001B021AB20E23FB181B781BB213431BB256
:102AD0009BB21800BD4604B080BDC0460885000802
:102AE0000886000890B589B000AF040008003A607D
:102AF0001900FB1D221C1A70BB1D021C1A707B1DC5
:102B00000A1C1A701F23FB1800221A70EFF310839F
:102B1000FB60FB683B617B1D1A783968BB1D187828
:102B20001300082200F0C8FA0300012B04D01F2371
:102B3000FB1803221A701FE03A689623DB019A42C1
:102B400002D92023BB610BE0114B18683A681300CF
:102B50005B009B189B00190004F0AAFE0300BB61F8
:102B6000BB699BB2180000F049FB0300012B03D0A6
:102B70001F23FB1803221A703B697B617B6983F377
:102B800010881F23FB181B781800BD4609B090BDA4
:102B9000A000002080B584B000AFEFF31083BB60CD
:102BA000BB68FB60084B00221A700021012000F076
:102BB00055FA00F059FBFB687B607B6883F3108853
:102BC000C046BD4604B080BD3509002080B584B044
:102BD00000AFEFF31083BB60BB68FB6000210020F7
:102BE00000F03CFA00F054FBFB687B607B6883F3E9
:102BF0001088C046BD4604B080BDC04680B588B0D0
:102C000000AFF860B9607A601F23FB1800221A70C9
:102C1000EFF310833B613B697B61174B1B889BB2D1
:102C2000032B19D9144B1B889AB2144B11001800AE
:102C3000FFF710FF031E0FD1104B1B78DAB2FB68B1
:102C40001A700D4B1B889BB2033B9AB27B681A80AB
:102C5000BB680B4A1A6003E01F23FB1805221A7099
:102C60007B69BB61BB6983F310881F23FB181B784A
:102C70001800BD4608B080BD3E090020E40A0020CF
:102C8000E50A002090B589B000AF39601100FB1D46
:102C9000021C1A703B1D0A1C1A801F23FB180022FD
:102CA0001A70EFF31083FB60FB687B612E4B1B787F
:102CB000DBB2012B47D13B685A1E2C4B1A602C4BC0
:102CC00001221A80294B1B68FA1D12781A70284BB2
:102CD0001B889AB23B1D1B88D3189AB2244B1A80CA
:102CE000224B1A68224B1B889BB212217C181900B8
:102CF0001000FFF7AFFE030023801D4B1B889BB223
:102D00005A1C91B21A4A11801A001223FB181B8810
:102D1000D9B2184B9954164B1B889BB25A1C91B2CE
:102D2000134A11801A001223FB181B881B0A9BB23E
:102D3000D9B2104B9954104B01221A700121002076
:102D400000F08CF903E01F23FB1805221A707B6941
:102D5000BB61BB6983F310881F23FB181B78180025
:102D6000BD4609B090BDC046350900203809002095
:102D70003C090020E40A00203409002080B582B01C
:102D800000AFFB1D00221A70BB1D180000F0DAF91D
:102D90001D4B1B78DBB2012B03D02BDD022B13D094
:102DA00029E01A4B00221A80184B1B889BB25A1C30
:102DB00091B2164A11801A00BB1D1978144B995410
:102DC000114B02221A7016E0104B1B889BB2FF2B8E
:102DD0000CD80E4B1B889BB25A1C91B20B4A118027
:102DE0001A00BB1D19780A4B995404E0064B0322C4
:102DF0001A7000E0C04600F037FAFB1D1B7818007F
:102E0000BD4602B080BDC046350900203E09002005
:102E1000E40A002090B583B000AFFB1D00221A70B9
:102E20001E4B1B78DBB2002B02D0012B05D02FE00C
:102E30000021012000F012F92AE00121002000F019
:102E40000DF9174B1B889BB2002B13D0154B1B6839
:102E50001B78DBB2180000F05FF9124B1B685A1C9C
:102E6000104B1A600E4B1B889BB2013B9AB20C4B65
:102E70001A800CE0FC1D032000F052F803002370C0
:102E80000021012000F0EAF8044B00221A70C0462D
:102E9000FB1D1B781800BD4603B090BD340900200F
:102EA0003C0900203809002090B583B000AFFB1D1D
:102EB00000221A70134B1B78DBB2022B0AD0032BB3
:102EC0000FD0002B0ED1FC1D002000F029F80300CC
:102ED000237007E0FC1D012000F022F8030023709E
:102EE00000E0C04600F0D4F9064B01221A70002120
:102EF000012000F0B3F8FB1D1B781800BD4603B09D
:102F000090BDC0463509002080B500AF034B0022BC
:102F10001A7001231800BD4680BDC046410900203B
:102F200080B582B000AF0200FB1D1A70054B012274
:102F30001A70054BFA1D12781A7001231800BD464D
:102F400002B080BD410900204009002080B584B056
:102F500000AF78600F23FB1800221A700A4B1B7811
:102F6000002B0AD0094B1A787B681A70064B002296
:102F70001A700F23FB1801221A700F23FB181B78FD
:102F80001800BD4604B080BD410900204009002062
:102F900080B582B000AF78607B681B6801221A435D
:102FA0007B681A60C046BD4602B080BD80B582B065
:102FB00000AF78607B681B6820221A437B681A6028
:102FC000C046BD4602B080BD80B582B000AF78601B
:102FD0007B681B6840221A437B681A60C046BD4666
:102FE00002B080BD80B582B000AF78607B681B689E
:102FF000202293431A007B681A60C046BD4602B087
:1030000080BDC04680B582B000AF78607B681B6829
:10301000402293431A007B681A60C046BD4602B046
:1030200080BDC04680B582B000AF78607B689B8C65
:103030009BB2DBB21800BD4602B080BD80B582B045
:1030400000AF78600A00FB1C1A70FB1C1B789AB258
:103050007B681A85C046BD4602B080BD80B582B08F
:1030600000AF0200FB1D1A70BB1D0A1C1A70FB1D6D
:103070001B78002B05D00F4B1B681800FFF796FF3D
:1030800004E00C4B1B681800FFF7ACFFBB1D1B785E
:10309000002B05D0074B1B681800FFF795FF04E0D5
:1030A000044B1B681800FFF7ADFFC046BD4602B0D9
:1030B00080BDC0460000002090B583B000AF040082
:1030C000396010001900FB1D221C1A70BB1D021C68
:1030D0001A707B1D0A1C1A70FB1D1B78012B01D96D
:1030E000002313E0BB1D1A787B1D1C783968FB1D7B
:1030F00018782300FDF798FF064B1B681800FFF7B0
:1031000047FF00210120FFF7A9FF01231800BD465A
:1031100003B090BD0000002080B582B000AF020077
:10312000FB1D1A70064B1A68FB1D1B781900100056
:10313000FFF784FF01231800BD4602B080BDC046E2
:103140000000002080B582B000AF7860064B1B689D
:103150001800FFF767FF03001A007B681A7001234D
:103160001800BD4602B080BD0000002080B582B0CE
:1031700000AF78607B681B6801221A437B681A6085
:10318000C046BD4602B080BD80B582B000AF786059
:103190007B681B68012293431A007B681A60C04653
:1031A000BD4602B080BDC04680B582B000AF786039
:1031B00039607B683A685A62C046BD4602B080BD3D
:1031C00080B582B000AF78607B68DB6801221A436B
:1031D0007B68DA60C046BD4602B080BD80B582B073
:1031E00000AF78607B68DB68012293431A007B683C
:1031F000DA60C046BD4602B080BDC04680B588B02A
:1032000000AF0200BB1D1A80134BBA1D12881A8032
:10321000124B1B681249180004F04AFB03009BB2D2
:10322000013B9AB20C23FB181A800C23FB180022D6
:103230005A60BB1D1B88013B1A000C23FB189A60C7
:103240000C23FB18074A1900100003F067FE012346
:103250001800BD4608B080BD42090020A000002033
:1032600080BB00000010004080B500AF074B00217C
:103270001800FFF799FF054B1800FFF777FF034B86
:103280001800FFF79DFFC046BD4680BD00100040FE
:1032900080B500AF054B1800FFF776FF034B180011
:1032A000FFF79CFFC046BD4680BDC04600100040F1
:1032B00080B584B000AF786008001100BB1C021C10
:1032C0001A803B000A1C1A800F23FB1800221A7078
:1032D000BB1C1A883B001B88D318102B27DCBB1C97
:1032E0001B88184A12889B1ABB601BE07B685A1C1B
:1032F0007A60154AB96849008A5A120A92B2D2B263
:103300001A707B685A1C7A600F4AB96849008A5A59
:10331000D2B21A70BB680133BB603B001A883B0015
:10332000013A1A803B001B88002BDFD103E00F23FA
:10333000FB1801221A700F23FB181B781800BD46DA
:1033400004B080BD48090020080C002090B587B06B
:1033500000AFF8600C00100019000A23FB18221CB3
:103360001A800823FB18021C1A80FB1D0A1C1A7005
:103370001723FB1800221A700A23FB181A88082347
:10338000FB181B88D318102B00DD70E03D4B1A880A
:103390001423FB180A21791809888A1A1A80FB1D40
:1033A0001B78002B28D0012B5AD064E0FB685A1CF4
:1033B000FA601422BA181188334A49008A5A120A4C
:1033C00092B2D2B21A70FB685A1CFA601422BA1870
:1033D00011882D4A49008A5AD2B21A701423FB1858
:1033E0001A881423FB1801321A800823FB181A8844
:1033F0000823FB18013A1A800823FB181B88002BAE
:10340000D4D138E01423FB181A88FB68591CF960E2
:103410001B789BB21B0299B21B4B5200D152FB6826
:103420005A1CFA6018781423FB181A881423FB1806
:103430001988154B4900C95A83B20B4399B2124BF4
:103440005200D1521423FB181A881423FB1801329E
:103450001A800823FB181A880823FB18013A1A80DF
:103460000823FB181B88002BCCD1C04603E0172390
:10347000FB1801221A701723FB181B781800BD4691
:1034800007B090BD4A090020280C002090B587B0F5
:1034900000AFF8600C00100019000A23FB18221C72
:1034A0001A800823FB18021C1A80FB1D0A1C1A70C4
:1034B0001723FB1800221A700823FB181B88DB084F
:1034C0009AB21423FB1801321A80664B1B880A2219
:1034D000BA1812889A4200D2B8E00A23FB181A8858
:1034E0000823FB181B88D318202B00DDAEE05D4BB2
:1034F0001B880A22BA181288D31A9AB21223FB1810
:10350000D2081A80574B1B880A22BA181288D31A7D
:103510009AB21023FB1807210A401A80FB1D1B7862
:10352000002B1FD0012B64D094E0FC68631CFB606F
:103530001223FB181B881222BA18591C11801A007A
:10354000494BD0181023FB181B8808221900FFF7DD
:103550003DF8030023701423FB181A881423FB186A
:10356000013A1A801423FB181B88002BDDD1FB685D
:10357000013BFB600823FB180822BA1812880721B8
:103580000A401A80FB681B7819000823FB181B8867
:103590000822D31A99400B00DAB2FB681A70FB6854
:1035A0001B7819000823FB181B880822D31A19411D
:1035B0000B00DAB2FB681A7047E01223FB181B8875
:1035C0001222BA18591C11801A00274BD018FB6818
:1035D0005A1CFA601A781023FB1819881300082265
:1035E000FEF760FF1423FB181A881423FB18013A16
:1035F0001A801423FB181B88012BDED80823FB1824
:103600000822BA18128807210A401A800823FB18DA
:103610001B88002B18D01223FB181B881222BA1803
:10362000591C11801A00104BD0180823FB181B8856
:10363000DCB2FB685A1CFA601A781023FB18198850
:1036400013002200FEF72EFFC04603E01723FB18ED
:1036500001221A701723FB181B781800BD4607B00B
:1036600090BDC04646090020480C002090B585B0AA
:1036700000AF786008001100BB1C021C1A803B00E0
:103680000A1C1A800F23FB1800221A703B001B88AB
:10369000DB089AB20C23FB1801321A80384B1B88C6
:1036A000BA1C12889A4260D3BB1C1A883B001B8844
:1036B000D318202B59DC324B1B88BA1C1288D31A22
:1036C0009AB20A23FB18D2081A802D4B1B88BA1C09
:1036D0001288D31A9AB20823FB1807210A401A80CD
:1036E0001CE07C68631C7B600A23FB181B880A2291
:1036F000BA18591C11801A00224BD0180823FB1845
:103700001B8808221900FEF761FF030023700C23B9
:10371000FB181A880C23FB18013A1A800C23FB189B
:103720001B88002BDDD17B68013B7B603B003A00AE
:10373000128807210A401A807B681B7819003B0019
:103740001B880822D31A99400B00DAB27B681A70E2
:103750007B681B7819003B001B880822D31A19418B
:103760000B00DAB27B681A7003E00F23FB1801220A
:103770001A700F23FB181B781800BD4605B090BDCA
:1037800044090020040C002080B584B000AFB9606B
:103790007A600E23FB18021C1A800E23FB181B886C
:1037A0000C4A934205D8BB68002B02D07B68002BE3
:1037B00001D1042309E07B689AB2B9680E23FB1893
:1037C0001888002300F0E4F803001800BD4604B098
:1037D00080BDC046FF03000080B586B000AFB96071
:1037E0007A600E23FB18021C1A801623FB18002295
:1037F0001A801523FB1800221A703FE01523FB18CE
:1038000000221A701EE00E23FA181623FB181288E5
:103810001B88D31898B21623FB181B88BA68D318D4
:103820001B78190000F048F8032003F0C1FF1523AE
:10383000FB181B781522BA18591C11700A2B01D9D4
:10384000012322E00E23FA181623FB1812881B8886
:10385000D3189BB2180000F01DF8030019001623BE
:10386000FB181B88BA68D3181B789942CBD1162352
:10387000FB181A881623FB1801321A801623FB182E
:103880001A887B689A42B9D300231800BD4606B057
:1038900080BDC04680B582B000AF0200BB1D1A805B
:1038A000BB1D1B881900A020FDF79AF90300180022
:1038B000BD4602B080BDC04680B582B000AF0200F8
:1038C000BB1D1A807B1D0A1C1A707B1D1A78BB1D3C
:1038D0001B881900A020FDF7DDF9C046BD4602B0E7
:1038E00080BDC04690B585B000AF0F23FB18002205
:1038F0001A70102004F052F903007B600C23FB18AF
:1039000000221A800A23FB1800221A800C23FB18BD
:103910001B887A68D318FF221A700C23FB180C221C
:10392000BA18128801321A800C23FB181B880F2B3F
:10393000ECD917E00F23FC1879680A23FB181888C4
:103940000123102200F024F8030023700F23FB183A
:103950001B78002B0DD10A23FB180A22BA181288F3
:1039600010321A800A23FB181B88084A9342E1D9B7
:1039700000E0C0467B68180004F01AF90F23FB181A
:103980001B781800BD4605B090BDC046FF0300007F
:1039900090B587B000AF0400B960100019000E2385
:1039A000FB18221C1A800C23FB18021C1A80FB1D1A
:1039B0000A1C1A701123FB1800221A701723FB1817
:1039C00000221A700E23FB181B881B0A9AB21623BA
:1039D000FB181A700E23FB181B881B099AB21523BB
:1039E000FB181A701623FB181B781B01DAB214237C
:1039F000FB181521791809788A1A1A700E23FB18FA
:103A00001B88DAB21323FB180F210A401A70122305
:103A1000FB181622BA181278603A1A701123FC1893
:103A20001223FB181B781800FCF79EFF030023707D
:103A30001123FB181B78002B00D194E01123FB18F5
:103A40001B7899E01723FB181322BA18127810215B
:103A50008A1A1A701723FB181B789BB20C22BA180B
:103A600012889A4205D21723FB180C22BA18128822
:103A70001A70FB1D1B78002B02D0012B0ED01BE00F
:103A80001723FB181C78BA680E23FB181988122319
:103A9000FB1818782300FDF733F80DE01723FB1807
:103AA0001C78BA680E23FB1819881223FB181878A3
:103AB0002300FCF78FFFC0461723FB181B789AB230
:103AC0000C23FB180C21791809888A1A1A800C23F8
:103AD000FB181B88002B4DD01523FB181A781523D3
:103AE000FB1801321A701323FB1800221A701723D7
:103AF000FB181B7899B20E23FB180E22BA181288F5
:103B00008A181A801723FB181B78BA68D318BB6071
:103B10001423FB181B780F2B12D11623FB181A78CD
:103B20001623FB1801321A701223FB181622BA183A
:103B30001278603A1A701423FB1800221A7012E0EF
:103B40001423FB181A781423FB1801321A70162359
:103B5000FB181622BA1812781A701223FB181222B8
:103B6000BA1812781A700C23FB181B88002B00D08F
:103B700068E700E0C04600231800BD4607B090BDCE
:103B800080B500AF4020FCF7EFFE031E04D0154BBC
:103B900001221A70012321E0134A1623002140203C
:103BA000FCF7AEFF104B00229A720F4B00221A70E6
:103BB0000D4B00225A700C4B00229A740A4B0022C3
:103BC000DA74094B00221A75074B00225A75064A0F
:103BD000162300214020FCF7FDFE00231800BD46FF
:103BE00080BDC0464C0900204C0C002080B500AFC1
:103BF000024B32229A70C046BD4680BD640C002044
:103C000080B500AFD020FCF7AFFE031E04D02C4BD4
:103C100001221A70012350E02A4BDB787F221340E7
:103C2000DAB2284BDA70274BDB781A000321D02058
:103C3000FDF730F8052003F0BBFD0321D020FCF791
:103C4000CFFF03001A001F4BDA70052003F0B0FD10
:103C500000F0F2F9031EDFD11B4B1B78002B29D09B
:103C60001A4B00229A71194B00225A71174B0022ED
:103C70001A71174B01229A70154B02221A70144BBD
:103C800001225A70124B1322DA700E4B1B788022DD
:103C900052421343DAB20B4B1A700A4B00229A734A
:103CA000084B9B7B802252421343DAB2054B9A7336
:103CB00000F0ACF800F00EF803001800BD4680BD1F
:103CC0004F090020500900204D090020DC09002088
:103CD000D809002080B500AF484B1B78012B01D1DB
:103CE000012388E0464A14230021D020FCF708FF76
:103CF000434BDB781B11DBB207221340DBB21A1CEB
:103D00009200D318DB18DAB23D4BDB780F210B4061
:103D1000DBB2D318DAB23B4B9A71394B1B791B11CA
:103D2000DBB207221340DBB21A1C9200D318DB1857
:103D3000DAB2334B1B790F210B40DBB2D318DAB266
:103D4000304B5A712E4B5B791B11DBB203221340AF
:103D5000DBB21A1C9200D318DB18DAB2284B5B795D
:103D60000F210B40DBB2D318DAB2264B1A71244B69
:103D7000DB7907221340DAB2234B1A70204B9B7970
:103D80001B11DBB203221340DBB21A1C9200D318C2
:103D9000DB18DAB21A4B9B790F210B40DBB2D31838
:103DA000DAB2194B9A70164B1B7A1B11DBB2012247
:103DB0001340DBB21A1C9200D318DB18DAB2104B96
:103DC0001B7A0F210B40DBB2D318DAB20E4B5A70BC
:103DD0000B4B5B7A1B09DBB21A1C9200D318DB1861
:103DE000DAB2074B5B7A0F210B40DBB2D318DAB2A1
:103DF000054BDA7000231800BD4680BD4F09002036
:103E000050090020DC090020D8090020B0B500AF1F
:103E10007F4B1B78012B01D10123F6E07D4BDB7832
:103E20005CB27D4B9B790A21180003F041FD030031
:103E3000DBB21B01DDB2784B9B790A21180003F03D
:103E4000BDFD0B00DBB22B43DBB25BB27F22134024
:103E50005BB223435BB2DAB26E4BDA706D4B1B7907
:103E60005CB26D4B5B790A21180003F021FD030061
:103E7000DBB21B01DDB2684B5B790A21180003F04D
:103E80009DFD0B00DBB22B43DBB25BB27F22134004
:103E90005BB223435BB2DAB25E4B1A715D4B5B7966
:103EA0005CB25D4B1B790A21180003F001FD030091
:103EB000DBB21B01DDB2584B1B790A21180003F05D
:103EC0007DFD0B00DBB22B43DBB25BB23F22134024
:103ED0005BB223435BB2DAB24E4B5A714D4BDB7986
:103EE0005CB24E4B1B780A21180003F0E1FC030082
:103EF000DBB21B01DDB2494B1B780A21180003F02D
:103F00005DFD0B00DBB22B43DBB25BB2072213403B
:103F10005BB223435BB2DAB23E4BDA713D4B9B7925
:103F20005CB23E4B9B780A21180003F0C1FC0300F1
:103F3000DBB21B01DDB2394B9B780A21180003F07C
:103F40003DFD0B00DBB22B43DBB25BB23F221340E3
:103F50005BB223435BB2DAB22E4B9A712D4B1B7AC4
:103F60005CB22E4B5B780A21180003F0A1FC030021
:103F7000DBB21B01DDB2294B5B780A21180003F08C
:103F80001DFD0B00DBB22B43DBB25BB21F221340E3
:103F90005BB223435BB2DAB21E4B1A721F4BDB7863
:103FA0000A21180003F084FC0300DBB21B01DCB221
:103FB0001A4BDB780A21180003F000FD0B00DBB27E
:103FC0002343DAB2134B5A72124B1B78202213434D
:103FD000DAB2104B1A700F4B1B781900002000F05A
:103FE00037F80C4A14230021D020FCF7F3FC094BCE
:103FF0001B7820229343DAB2064B1A70054B1B78CC
:104000001900002000F024F800231800BD46B0BDC0
:104010004F09002050090020DC090020D8090020A9
:1040200080B500AF034B9B7804221340DBB218002D
:10403000BD4680BD5009002080B500AF034BDB7842
:104040007F229343DBB21800BD4680BD500900209B
:1040500080B582B000AF0200FB1D1A70BB1D0A1CA8
:104060001A70FB1D1B7899B2BB1D1B781A00D0205B
:10407000FCF710FEC046BD4602B080BD80B582B0E0
:1040800000AF0200FB1D1A70064BFA1D12781100DA
:104090001F220A40012191400A001A60C046BD4615
:1040A00002B080BD00E100E0B0B582B000AF020018
:1040B0003960FB1D1A70FB1D1B787F2B32D92F4CEA
:1040C000FB1D1B781A000F231340083B99082B4A4D
:1040D000FB1D1B7818000F230340083B9B08063389
:1040E0009B00D31804331B68FA1D127810000322BA
:1040F0000240D200FF2090400200D2431A403B68A9
:104100009B01FF201840FB1D1B781D0003232B4043
:10411000DB00984003001A438B1D9B00E318043317
:104120001A6027E0164CFB1D1B785BB29B081449F4
:10413000FA1D127852B29208C03292005258F91DFC
:104140000978080003210140C900FF2088400100D0
:10415000C94311403A689201FF201040FA1D1278BD
:10416000150003222A40D200904002000A43C033C7
:104170009B001A51C046BD4602B0B0BD00ED00E044
:1041800000E100E080B582B000AF78607B68013B61
:104190000C4A934201D9012310E00B4B7A68013A93
:1041A0005A6001235B4203211800FFF77DFF064B95
:1041B00000229A60044B07221A6000231800BD46B3
:1041C00002B080BDFFFFFF0010E000E080B582B0CC
:1041D00000AF786039607B681B68054A1A403B680D
:1041E0001A437B681A60C046BD4602B080BDC04617
:1041F000FFFF3FFE80B582B000AF786039607B681A
:104200005B69072293431A003B681A437B685A6133
:10421000C046BD4602B080BD80B582B000AF7860B8
:1042200039607B68DB68042293431A003B681A43B9
:104230007B68DA60C046BD4602B080BD80B582B002
:1042400000AF786039607B689A6A3B685B035B0B00
:104250001A437B689A62C046BD4602B080BDC04624
:1042600080B582B000AF78607B685B6804229343BE
:104270001A007B685A60C046BD4602B080BDC04689
:1042800080B582B000AF78607B685B68082293439A
:104290001A007B685A60C046BD4602B080BDC04669
:1042A00080B584B000AFF860B9607A60BB68013B4C
:1042B0000A4AD35C1A00FB68D318BA68013A074966
:1042C0008A5C1100FA688A181268054911407A68F8
:1042D0000A431A60C046BD4604B080BD0887000886
:1042E000EFBFFFFF80B584B000AFF860B9607A60BF
:1042F000BB68013B0B4AD35C1A00FB68D318BA6851
:10430000013A08498A5C1100FA688A18126820216B
:104310008A4311007A680A431A60C046BD4604B059
:1043200080BDC0460887000880B584B000AFF86043
:10433000B9607A60BB68013B0B4AD35C1A00FB682A
:10434000D318BA68013A08498A5C1100FA688A18D9
:10435000126840218A4311007A680A431A60C046F5
:10436000BD4604B080BDC0460887000880B584B053
:1043700000AFF860B9607A60BB68013B0B4AD35C60
:104380001A00FB68D318BA68013A08498A5C110020
:10439000FA688A18126880218A4311007A680A43F1
:1043A0001A60C046BD4604B080BDC04608870008FC
:1043B00080B584B000AFF860B9607A60BB68013B3B
:1043C0000A4AD35C1A00FB68D318BA68013A074955
:1043D0008A5C1100FA688A181268054911407A68E7
:1043E0000A431A60C046BD4604B080BD0887000875
:1043F000FFFCFFFF80B584B000AFF860B9607A6061
:10440000BB68013B0A4AD35C1A00FB68D318BA6840
:10441000013A07498A5C1100FA688A18126805494E
:1044200011407A680A431A60C046BD4604B080BD98
:1044300008870008FFF3FFFF80B584B000AFF86085
:10444000B9607A60BB68013B0A4AD35C1A00FB681A
:10445000D318BA68013A07498A5C1100FA688A18C9
:104460001268054911407A680A431A60C046BD4681
:1044700004B080BD08870008FFCFFFFF80B582B081
:1044800000AF78607B681B68034A1A407B681A603B
:10449000C046BD4602B080BDFFFFFDFF80B582B0C3
:1044A00000AF78607B681B68034A1A407B681A601B
:1044B000C046BD4602B080BDFFFFF7FF80B584B0A7
:1044C00000AFF860B9607A60FB68DB68054A1A40A3
:1044D000B9687B680B431A43FB68DA60C046BD4687
:1044E00004B080BD01F8FFFF80B582B000AF7860F6
:1044F0007B68DB68034A1A407B68DA60C046BD46C9
:1045000002B080BDFF7FFFFF80B582B000AF786052
:104510007B685B68802292041A437B685A60C046BD
:10452000BD4602B080BDC04680B500AF044B044A12
:104530001268802149020A431A60C046BD4680BD08
:104540000010024080B500AF054B1A6880239B0223
:1045500013405A1E9341DBB21800BD4680BDC046D1
:104560000010024080B500AF044B044A12680121DC
:104570000A431A60C046BD4680BDC04600100240D6
:1045800080B500AF044B1B68022213405A1E9341B2
:10459000DBB21800BD4680BD0010024080B582B07D
:1045A00000AF7860064B064A1268F8218A43110072
:1045B0007A68D2000A431A60C046BD4602B080BD88
:1045C0000010024080B500AF044B044A526B012139
:1045D0000A435A63C046BD4680BDC0460010024033
:1045E00080B500AF044B5B6B022213405A1E93410F
:1045F000DBB21800BD4680BD0010024080B500AFA0
:10460000044B044A526B04218A435A63C046BD4698
:1046100080BDC0460010024080B582B000AF786017
:10462000064B064A526BF8218A4311007A68D20081
:104630000A435A63C046BD4602B080BD0010024026
:1046400080B500AF044B044A126A01210A431A6282
:10465000C046BD4680BDC0460010024080B582B055
:1046600000AF7860064B064A126A18218A4311008F
:104670007A680A431A62C046BD4602B080BDC04691
:104680000010024080B500AF044B1B6A02221340A9
:104690005A1E9341DBB21800BD4680BD0010024097
:1046A00080B582B000AF7860064B064A526803219D
:1046B0008A4311007A680A435A60C046BD4602B078
:1046C00080BDC0460010024080B500AF034B5B6860
:1046D0000C2213401800BD4680BDC04600100240A9
:1046E00080B582B000AF7860064B064A5268F02170
:1046F0008A4311007A680A435A60C046BD4602B038
:1047000080BDC0460010024080B582B000AF786026
:10471000054B054A5268054911407A680A435A60B8
:10472000C046BD4602B080BD00100240FFF8FFFF4A
:1047300080B582B000AF7860094B094A126B796886
:10474000090E032088400100C94311407A68120213
:10475000120A0A431A63C046BD4602B080BDC04675
:104760000010024080B582B000AF7860064B064A68
:10477000126B10218A4311007A680A431A63C046FB
:10478000BD4602B080BDC0460010024080B582B078
:1047900000AF7860054B054A126A054911407A68F6
:1047A0000A431A62C046BD4602B080BD00100240F6
:1047B000FFFCFFFF80B500AF044B044A126A802162
:1047C00009020A431A62C046BD4680BD001002407D
:1047D00080B500AF044B044A126A802149020A43A3
:1047E0001A62C046BD4680BD0010024080B500AFD1
:1047F000044B044A126A04490A401A62C046BD4684
:1048000080BDC04600100240FFFFFEFF80B584B0AF
:1048100000AF7860074B074A51697A680A435A61CA
:10482000044B5B697A681340FB60FB68C046BD4679
:1048300004B080BD0010024080B584B000AF786045
:10484000074B074AD1697A680A43DA61044BDB698E
:104850007A681340FB60FB68C046BD4604B080BD6B
:104860000010024080B584B000AF7860074B074A63
:1048700091697A680A439A61044B9B697A6813408C
:10488000FB60FB68C046BD4604B080BD001002401E
:1048900090B583B000AF786039600F4C3B68FF2261
:1048A00013400D493A68FF200240023292005258EC
:1048B0003968090C0F2088400100C94311403A684B
:1048C000120C7868904002000A4302339B001A5190
:1048D000C046BD4603B090BD0000014080B582B027
:1048E00000AF7860064B064A126801218A43110026
:1048F0007A680A431A60C046BD4602B080BDC04611
:104900000020024080B500AF034B1B68012213401A
:104910001800BD4680BDC0460020024080B582B070
:1049200000AF78607B68042B06D1084B074A1268F9
:1049300004210A431A6005E0044B044A126804216A
:104940008A431A60C046BD4602B080BD10E000E058
:1049500080B500AF044B044A1268802149000A4325
:104960001A60C046BD4680BD0070004080B582B070
:1049700000AF786039607B681B69054A1A403B6864
:104980001B041A437B681A61C046BD4602B080BD55
:10499000FFFF80FF80B582B000AF786039607B6830
:1049A0001B69DB0BDA033B681A437B681A61C0465C
:1049B000BD4602B080BDC04690B585B000AFF8607E
:1049C000B9607A60FB6850331C00BB689B00E41838
:1049D00023007A681A60C046BD4605B090BDC04647
:1049E00090B583B000AF786039607B6850331C00AD
:1049F0003B689B00E41823001B681800BD4603B009
:104A000090BDC04680B582B000AF786039607B68E9
:104A10001B68082293431A003B681A437B681A609C
:104A2000C046BD4602B080BD80B582B000AF7860A0
:104A30007B681B68802293431A007B681A60C0461B
:104A4000BD4602B080BDC046B0B582B000AF786050
:104A500039603B68012B1ED03B68042B19D03B68A2
:104A6000102B14D03B68402B0FD03A6880235B009A
:104A70009A4208D03A688023DB009A4201D105238C
:104A80000AE0062308E0042306E0032304E00223EF
:104A900002E0012300E000231D007B6818331A00A8
:104AA0002900094B5B5CD3181C0023682900074AC6
:104AB000525C110004228A40D24313402360C04656
:104AC000BD4602B0B0BDC046108700081887000878
:104AD000B0B582B000AF786039603B68012B1ED062
:104AE0003B68042B19D03B68102B14D03B68402B3B
:104AF0000FD03A6880235B009A4208D03A6880233E
:104B0000DB009A4201D105230AE0062308E00423D2
:104B100006E0032304E0022302E0012300E0002377
:104B20001D007B6818331A002900084B5B5CD31802
:104B30001C0022682900064B5B5C190008238B408F
:104B400013432360C046BD4602B0B0BD10870008C5
:104B50001887000880B582B000AF786039607B6844
:104B60005B68702293431A003B681A437B685A6063
:104B7000C046BD4602B080BD80B582B000AF78604F
:104B80007B689B68802293431A007B689A60C046CA
:104B9000BD4602B080BDC04680B582B000AF78602F
:104BA0007B681B6801221A437B681A60C046BD46B9
:104BB00002B080BD80B582B000AF78607B689B6832
:104BC000802252011A437B689A60C046BD4602B0FB
:104BD00080BDC04680B582B000AF786039607B6828
:104BE0001B68054A1A403B681B041A437B681A601D
:104BF000C046BD4602B080BDFFFFE0FF80B582B079
:104C000000AF786039607B681B68054A1A403B68D2
:104C10005B051A437B681A60C046BD4602B080BD82
:104C2000FFFF1FFC80B582B000AF78607B689B6897
:104C30008022D2011A437B689A60C046BD4602B00A
:104C400080BDC04680B582B000AF786039607B68B7
:104C50009B68054A1A403B681A437B689A60C046C5
:104C6000BD4602B080BDC046FF7FFFFF80B582B069
:104C700000AF78607B685B68074A1A407B685A60BF
:104C80007B689B682A2293431A007B689A60C0461F
:104C9000BD4602B080BDC046FFB7FFFF80B584B0FF
:104CA00000AFF860B9607A60FB681968BB68BA68E1
:104CB0005A4313005B009B18DB430B401A00BB6890
:104CC000B9684B4379684B431A43FB681A60C04686
:104CD000BD4604B080BDC04680B584B000AFF8606A
:104CE000B9607A60FB68D968BB68BA685A43130038
:104CF0005B009B18DB430B401A00BB68B9684B4351
:104D000079684B431A43FB68DA60C046BD4604B07D
:104D100080BDC04680B582B000AF786039607B68E6
:104D20003A689A62C046BD4602B080BD80B582B086
:104D300000AFFB1D00221A700120FFF793FD8023B6
:104D40005B051800FFF778FD00F09AF8434B1A68EE
:104D5000FA239900100002F0ABFD03001800FFF7E2
:104D600011FA00F053FE00F041FE00F0ADF900F042
:104D70009FFC00F0A3FA00F0EBF800F053FD00F008
:104D8000D7FB00F0D7FA00F02FFA0A2002F010FD4E
:104D9000FCF7C8FA324B5B881900314B9B791A003B
:104DA0002F4B1B790020FCF73FF92E4B00229A7005
:104DB0002C4B00221A700020FCF7C0F9284B5B89AD
:104DC0001900274B9B7B1A00254B1B7B0120FCF70E
:104DD0002BF9244B522200219954224B50220021BE
:104DE00099540120FCF7AAF9FEF70AFFFEF7C8FE66
:104DF000FEF7FCFE1C4B1A681C4B1B689A4207D836
:104E00001A4B1B6864331A00174B1A60FCF7B6FB89
:104E1000174B1A68154B1B689A4208D8134B1B682E
:104E2000FA2292009A18124B1A60FEF753FF114BA8
:104E30001A680E4B1B689A420BD80C4B1B680E4A23
:104E40009A180C4B1A60FFF7EBF803001A000B4B93
:104E50001A70FCF79BFAFDF73FFDCBE7A00000209E
:104E6000880A0020E8090020640900207009002059
:104E7000680900206C09002060EA00004E0900204B
:104E800080B500AF0020FFF729FDFFF73BFD031EB3
:104E900001D000F0A3FEFFF747FBC046FFF752FB2F
:104EA0000300012BFAD1FFF75DFBC046FFF768FB5B
:104EB0000300012BFAD11020FFF770FBFFF782FBF4
:104EC000C046FFF78DFB0300012BFAD11020FFF73E
:104ED000A3FBFFF73DFDFFF77BFCFFF787FC1820E6
:104EE000FFF7BCFBFFF7ACFBC046FFF7CBFB0300B3
:104EF000012BFAD180235B001800FFF747FCFFF776
:104F000059FC0020FFF7ECFB0020FFF7FDFB012020
:104F1000FFF7C6FBC046FFF7D7FB0300042BFAD10F
:104F20000A4B180002F034FC0420FFF7F7FC074B93
:104F3000180002F05FFCFFF761FB0020FFF7F8FBB1
:104F40000020FFF70FFCC046BD4680BD00127A006E
:104F500080B590B000AF3023FB18180010231A0062
:104F6000002103F017F91C23FB18180014231A0062
:104F7000002103F00FF93B1D180018231A0000212F
:104F800003F008F980239B001800FFF76BFC8023D7
:104F90009B021800FFF73AFC3B1D01221A603B1DE3
:104FA00003225A603B1D00221A613A1D9023DB0543
:104FB0001100180001F054F93B1D10221A603B1D2E
:104FC00003225A603B1D00221A613A1D9023DB0523
:104FD0001100180001F044F9364B01211800FFF7C9
:104FE0002DF9354A334B11001800FFF727F9334AE2
:104FF000304B11001800FFF721F980231B04304AC1
:1050000019001000FFF7E2F82E4A2A4B1100180091
:10501000FFF714F98023DB03294A19001000FFF77A
:10502000D5F83023FB1800221A603023FB18082221
:105030005A603023FB1800229A603023FB180022AC
:10504000DA603023FB181B4A1900100000F0DCFE68
:105050001C23FB1800221A601C23FB1800225A6034
:105060001C23FB1800229A601C23FB180122DA6023
:105070001C23FB1800221A611C23FB180D4A19007F
:10508000100000F0EDFE0B4B00211800FFF7C4F8F4
:10509000084B05211800FFF7ADF8064B1800FFF785
:1050A000DFF8044B1800FFF7EBF8C046BD4610B020
:1050B00080BDC0460024014010000010000001C067
:1050C00008270140000002C480B58EB000AF1C2349
:1050D000FB1818001C231A00002103F05BF83B1D8D
:1050E000180018231A00002103F054F88023DB0273
:1050F0001800FFF78BFB3B1D40221A603B1D02226C
:105100005A603B1D03229A603B1D0122DA603B1D61
:1051100001221A613B1D01225A613B1D2F4A1900D1
:10512000100001F09DF83B1D80221A603B1D0222F9
:105130005A603B1D03229A603B1D0122DA603B1D31
:1051400001221A613B1D01225A613B1D234A1900AD
:10515000100001F085F880239B031800FFF76CFB1B
:105160001F4B1800FFF7C0F91D4B1800FFF796F909
:105170001B4B1800FFF782F91C23FB1800221A6052
:105180001C23FB18174A5A601C23FB18802252016B
:105190009A601C23FB180022DA601C23FB180022F3
:1051A0001A611C23FB1800225A611C23FB180022E1
:1051B0009A611C23FB180A4A1900100001F054F9E7
:1051C000074B1800FFF7A0F9054B0022002118003B
:1051D000FFF774F9C046BD460EB080BD000400481C
:1051E000005400402D1D100080B586B000AF0C2388
:1051F000FB1818000C231A00002102F0CBFF3B1D06
:10520000180008231A00002102F0C4FF3B0000220E
:105210001A60FFF7CFFA0C23FB1800221A600C2348
:10522000FB187F225A600C23FB18FF229A600C2384
:10523000FB18204A1900100001F0CEFB1D4B7F2106
:105240001800FFF793FB1B4BFF211800FFF7A2FB91
:10525000184B00211800FFF7C3FB0200164B9A42BF
:1052600023D03B1D00221A713B1D00225A713B1DA9
:1052700000229A713B1D0F481A00012101F0E8FB42
:105280003B0001221A703B0001225A703B000022B1
:10529000DA703B0007481A00012101F081FC064A40
:1052A000044B00211800FFF787FBC046BD4606B03F
:1052B00080BDC04600280040F232000080B586B0B4
:1052C00000AF3B1D180014231A00002102F062FFFA
:1052D0001020FFF7B1FA00211120FEF7E5FE1120A2
:1052E000FEF7CCFE3B1D00221A803B1D00225A60B7
:1052F0003B1DFA2292009A603B1D0D4A19001000D6
:1053000001F00CFE0A4B1800FFF78EFB084B08213A
:105310001800FFF777FB064B00211800FFF71AFC77
:10532000034B1800FFF728FCC046BD4606B080BD01
:105330000010004080B59AB000AF5423FB1818004D
:1053400014231A00002102F025FF3423FB18180053
:1053500020231A00002102F01DFF1C23FB18180057
:1053600018231A00002102F015FF3B1D1800182316
:105370001A00002102F00EFF80235B021800FFF7E5
:1053800071FA5423FB18F02252001A805423FB18A0
:1053900000225A605423FB1864229A605423FB189D
:1053A0000022DA605423FB1800221A745423FB18DD
:1053B0005D4A1900100001F0B1FD5B4B1800FFF7CA
:1053C00033FB594B01211800FFF782FB3423FB18F4
:1053D00060221A603423FB1800225A603423FB1821
:1053E00000229A603423FB183222DA603423FB183F
:1053F00000221A613423FB1800225A613423FB185F
:1054000000229A613423FB180022DA613423FB184E
:1054100045481A00012101F005FE434B0121180007
:10542000FFF712FB404B10211800FFF751FB34230C
:10543000FB1800225A603423FB1800229A603423A0
:10544000FB1839481A00102101F0ECFD364B1021F1
:105450001800FFF7F9FA344B00211800FFF77AFB28
:10546000314B1800FFF788FB1C23FB1800221A6041
:105470001C23FB1800225A601C23FB1800229A6090
:105480001C23FB1800221A731C23FB180022DA814C
:105490001C23FB18802292011A611C23FB18002296
:1054A0005A611C23FB18204A1900100001F008FE65
:1054B0008023DB021800FFF7A9F93B1D8022D201EF
:1054C0001A603B1D02225A603B1D00229A603B1D60
:1054D0000022DA603B1D00221A613B1D01225A6145
:1054E0003B1D124A1900100000F0BAFE3B1D80223D
:1054F00012021A603B1D02225A603B1D00229A6074
:105500003B1D0022DA603B1D00221A613B1D012277
:105510005A613B1D054A1900100000F0A1FEC0466B
:10552000BD461AB080BDC04600400140000400489E
:1055300080B59AB000AF5423FB18180014231A004A
:10554000002102F027FE3423FB18180020231A0044
:10555000002102F01FFE1C23FB18180018231A005C
:10556000002102F017FE3B1D180018231A0000212D
:1055700002F010FE80239B021800FFF773F95423FA
:10558000FB18F02252001A805423FB1800225A60A4
:105590005423FB1864229A605423FB180022DA601B
:1055A0005423FB1800221A745423FB183F4A190095
:1055B000100001F0B3FC3D4B1800FFF735FA3B4BF0
:1055C00001211800FFF784FA3423FB1860221A60C7
:1055D0003423FB1800225A603423FB1800229A60FF
:1055E0003423FB183222DA603423FB1800221A61BC
:1055F0003423FB1800225A613423FB1800229A61DD
:105600003423FB180022DA613423FB1827481A00E0
:10561000012101F007FD254B01211800FFF714FAC5
:105620001C23FB1800221A601C23FB1800225A605E
:105630001C23FB1800229A601C23FB1800221A73FB
:105640001C23FB180022DA811C23FB188022920104
:105650001A611C23FB1800225A611C23FB18134AF1
:105660001900100001F02CFD80239B021800FFF7A9
:10567000CDF83B1D40221A603B1D02225A603B1DA3
:1056800000229A603B1D0022DA603B1D00221A6155
:105690003B1D05225A613A1D9023DB0511001800BD
:1056A00000F0DEFDC046BD461AB080BD004401409A
:1056B00080B58EB000AF1C23FB1818001C231A0005
:1056C000002102F067FD3B1D180018231A0000217D
:1056D00002F060FD8023DB011800FFF7C3F8802390
:1056E0009B021800FFF792F83B1D802292001A607F
:1056F0003B1D02225A603B1D03229A603B1D002283
:10570000DA603B1D00221A613B1D01225A613A1DDD
:105710009023DB051100180000F0A2FD3B1D802244
:10572000D2001A603B1D02225A603B1D03229A6080
:105730003B1D0022DA603B1D01221A613B1D012244
:105740005A613A1D9023DB051100180000F088FD16
:105750003B1D802252011A603B1D02225A603B1DF4
:1057600003229A603B1D0022DA603B1D00221A6171
:105770003B1D01225A613A1D9023DB0511001800E0
:1057800000F06EFD00211B20FEF78EFC1B20FEF7B3
:1057900075FC1C23FB189622D2011A601C23FB18EF
:1057A00000225A601C23FB1800229A601C23FB185D
:1057B0000022DA601C23FB180C221A611C23FB1840
:1057C00000225A611C23FB1800229A611C23FB183B
:1057D000134A1900100001F059FF114B1800FFF790
:1057E00021FA0F4B00211800FFF72CFA0C4B002177
:1057F0001800FFF703FA0A4B00211800FFF7EAF937
:10580000074B1800FFF7D6F9054B1800FFF72EFAE3
:10581000034B1800FFF7C0F9C046BD460EB080BD6F
:105820000038014080B58EB000AF1C23FB18180073
:105830001C231A00002102F0ADFC3B1D18001823A8
:105840001A00002102F0A6FC80239B021800FEF73C
:10585000F3FF80239B021800FEF7D8FF3B1D0222B6
:105860001A603B1D02225A603B1D03229A603B1DB9
:105870000022DA603B1D00221A613B1D01225A61A1
:105880003A1D9023DB051100180000F0E9FC3B1DD8
:1058900004221A603B1D02225A603B1D03229A60BB
:1058A0003B1D0022DA603B1D00221A613B1D0122D4
:1058B0005A613A1D9023DB051100180000F0D0FC5E
:1058C0003B1D08221A603B1D02225A603B1D032229
:1058D0009A603B1D0022DA603B1D01221A613B1DCC
:1058E00001225A613A1D9023DB051100180000F0D7
:1058F000B7FC3C4B102204211800FEF7D1FC394BB9
:10590000002204211800FEF797FD364B00220421E7
:105910001800FEF7E7FC334B002204211800FEF7C5
:1059200003FD304B802204211800FEF71FFD2D4B94
:10593000002204211800FEF73BFD2A4B002204211F
:105940001800FEF757FD00211C20FEF7ADFB1C20C0
:10595000FEF794FB1C23FB189622D2011A601C232D
:10596000FB1800225A601C23FB1800229A601C239B
:10597000FB180022DA601C23FB180C221A611C237E
:10598000FB1800225A611C23FB1800229A611C2379
:10599000FB18154A1900100001F078FE124B180090
:1059A000FFF740F9104B00211800FFF74BF90E4BA1
:1059B00000211800FFF722F90B4B00211800FFF718
:1059C00009F9094B1800FFF7F5F8074B1800FFF726
:1059D0004DF9054B1800FFF7DFF8C046BD460EB085
:1059E00080BDC046000002400044004080B500AFCA
:1059F0000120FEF70BFF00210B20FEF755FB0B20CB
:105A0000FEF73CFBC046BD4680BDC04680B588B0B1
:105A100000AF0823FB18180018231A00002102F019
:105A2000B9FB3B00180008231A00002102F0B2FB6A
:105A300080231B031800FEF7E9FE8023DB03180018
:105A4000FEF7E4FE80239B021800FEF7DFFE8023B2
:105A5000DB021800FEF7DAFE5E4B01211800FFF7AB
:105A600059F95C4B02211800FFF754F9594B0421F6
:105A70001800FFF74FF98023DB00564A1900100089
:105A8000FFF748F90823FB1801221A600823FB18C6
:105A900001225A600823FB1800229A600823FB1891
:105AA0000022DA600823FB1800221A610823FB1881
:105AB000484A1900100000F0D3FB0823FB1802220B
:105AC0001A600823FB1801225A600823FB180022E1
:105AD0009A600823FB180022DA600823FB180022D2
