:020000040800F2
:1000000000200020B13E0008B9290008C5290008D9
:1000100000000000000000000000000000000000E0
:10002000000000000000000000000000CD290008D2
:100030000000000000000000D9290008E5290008A0
:10004000073F0008093F00080B3F00080D3F00086C
:100050000F3F0008113F0008133F0008692A0008FD
:10006000173F0008193F00081B3F00081D3F00080C
:100070001F3F0008213F0008233F0008253F0008DC
:10008000273F0008852A00082B3F00082D3F000865
:100090002F3F0008313F0008333F0008353F00087C
:1000A000373F0008393F00083B3F0008912A00080D
:1000B000A12A0008413F0008433F0008453F0008CF
:1000C000473F000880B582B000AF78607B689B69CD
:1000D000012213405A1E9341DBB21800BD4602B004
:1000E00080BDC04680B582B000AF78607B689B69F8
:1000F000042213405A1E9341DBB21800BD4602B0E1
:1001000080BDC04680B582B000AF78607B689B69D7
:10011000082213405A1E9341DBB21800BD4602B0BC
:1001200080BDC04680B582B000AF78607B689B69B7
:10013000102213405A1E9341DBB21800BD4602B094
:1001400080BDC04680B582B000AF78607B68DB6957
:1001500020221A437B68DA61C046BD4602B080BDEA
:1001600080B584B000AFF860B9607A603B60FB682E
:100170005B68094A1A40B9687B6819433B681B04ED
:100180001943BB691943FB690B431A43FB685A6067
:10019000C046BD4604B080BD008000FC80B582B082
:1001A00000AF78607B685B6ADBB21800BD4602B0C6
:1001B00080BDC04680B582B000AF78600A00FB1CED
:1001C0001A70FB1C1A787B689A62C046BD4602B062
:1001D00080BDC04680B500AF054B1A6880235B0226
:1001E00013405A1E9341DBB21800BD4680BDC04685
:1001F00010E000E080B584B002AF0200FB1D1A7071
:10020000FB1D1978154880239B01019380239B04D3
:10021000009301230022FFF7A3FF104B00211800D9
:10022000FFF7C8FF0BE0FFF7D5FF031E07D00B4B0E
:100230001800FFF777FF031E01D001230AE0074BE8
:100240001800FFF73FFF031EEDD0044B1800FFF727
:1002500079FF00231800BD4602B080BD0054004065
:1002600090B587B002AF040008003A601900FB1D8A
:10027000221C1A703B1D021C1A80BB1D0A1C1A701E
:100280000F23FB1800221A700E23FB1800221A708D
:100290003D4B1800FFF756FFBB1D1B78FF2B02D00C
:1002A000BB1D1A7800E0FE220F23FB181A700E23E4
:1002B000FB180F22BA1812781A70FB1D19780F2339
:1002C000FB181B7801331A002F4880239B010193F0
:1002D00080239B04009313000022FFF741FFC046D8
:1002E000294B1800FFF70EFF031EF9D13B1D1B8899
:1002F000DBB2254A19001000FFF75CFFC046224B15
:100300001800FFF7DFFE031EF9D03B681B781E4A7A
:1003100019001000FFF74EFFC0461B4B1800FFF7F7
:10032000D1FE031EF9D03B6801333B600F23FB185D
:100330000F22BA181278013A1A700F23FB181B7893
:10034000002BE2D1BB1DB91D0E22BA180978127814
:100350008A1A1A700E23FB181B7899B23B1D3A1D9E
:1003600012888A181A80084B1800FFF7EBFE052048
:1003700003F06EFDBB1D1B78002B8DD100231800F0
:10038000BD4605B090BDC0460054004090B585B054
:1003900002AF040008003A601900FB1D221C1A700D
:1003A0003B1D021C1A80BB1D0A1C1A702E4B180024
:1003B000FFF7C8FEFB1D19782B4880239B01019392
:1003C00080239B04009301230022FFF7C9FEC0464F
:1003D000254B1800FFF796FE031EF9D13B1D1B8825
:1003E000DBB2214A19001000FFF7E4FEC0461E4BA5
:1003F0001800FFF767FE031EF9D01B4B1800FFF72C
:10040000A1FEFB1D1978BB1D1A78174890239B018C
:10041000019380239B04009313000022FFF7A0FEAA
:10042000C046114B1800FFF75DFE031EF9D00E4BBE
:100430001800FFF7B3FE03001A003B681A703B6810
:1004400001333B60BB1DBA1D1278013A1A70BB1D07
:100450001B78002BE4D1044B1800FFF773FE002338
:100460001800BD4603B090BD0054004090B587B061
:1004700002AF0200BB1D1A80254880239B01019317
:1004800080239B04009301230022A021FFF768FE34
:10049000C0461F4B1800FFF735FE031EF9D1BB1DE8
:1004A0001B88DBB21A4A19001000FFF783FEC04612
:1004B000174B1800FFF706FE031EF9D0144B180067
:1004C000FFF740FE124890239B01019380239B0479
:1004D000009301230022A021FFF742FEC0460C4BEF
:1004E0001800FFF7FFFD031EF9D00F23FC18084B7F
:1004F0001800FFF753FE03002370054B1800FFF7A9
:1005000021FE0F23FB181B781800BD4605B090BDD7
:100510000054004080B584B002AF0200BB1D1A80B9
:100520007B1D0A1C1A701D4880239B0101938023A8
:100530009B04009302230022A021FFF711FEC04676
:10054000164B1800FFF7DEFD031EF9D1BB1D1B88FB
:10055000DBB2124A19001000FFF72CFEC0460F4B09
:100560001800FFF7AFFD031EF9D07B1D1B780B4A67
:1005700019001000FFF71EFEC046084B1800FFF7D9
:10058000A1FD031EF9D0054B1800FFF7DBFD052088
:1005900003F05EFCC046BD4602B080BD0054004082
:1005A00080B582B000AF78607B681B6801221A4377
:1005B0007B681A60C046BD4602B080BD80B582B07F
:1005C00000AF786039607B681A6A3B681A437B68C1
:1005D0001A62C046BD4602B080BDC04680B582B03A
:1005E00000AF786039607B681B6A3A68D2431A4072
:1005F0007B681A62C046BD4602B080BD80B582B03D
:1006000000AF786039607B683A685A63C046BD467F
:1006100002B080BD80B582B000AF78607B685B6C53
:10062000802212021A437B685A64C046BD4602B05B
:1006300080BDC04680B500AF124B9B8C002B18D0FC
:10064000104B23229B5C1A001300DB009B1A1A003C
:100650000D4B11001800FFF7D1FF0B4B01211800C3
:10066000FFF7ACFF074B9B8C013B9AB2054B9A847A
:1006700004E0054B01211800FFF7B0FFC046BD465E
:1006800080BDC046EC0800200044014080B500AFAA
:100690000A4B1800FFF784FF084B1800FFF7BAFF5A
:1006A000064B01211800FFF789FF044B10211800A9
:1006B000FFF784FFC046BD4680BDC04600400140F4
:1006C00080B500AF074B1800FFF76AFF054B180015
:1006D000FFF7A0FF034B01211800FFF76FFFC04693
:1006E000BD4680BD0044014080B582B000AF786057
:1006F0007B681B6801221A437B681A60C046BD46AE
:1007000002B080BD80B582B000AF78607B681B68A6
:10071000012293431A007B681A60C046BD4602B0AE
:1007200080BDC04680B582B000AF78607B681B6832
:10073000012213405A1E9341DBB21800BD4602B09D
:1007400080BDC04680B582B000AF78607B68DB6951
:10075000202213405A1E9341DBB21800BD4602B05E
:1007600080BDC04680B582B000AF78607B68DB6931
:10077000402213405A1E9341DBB21800BD4602B01E
:1007800080BDC04680B582B000AF78607B681B68D2
:1007900020221A437B681A60C046BD4602B080BD65
:1007A00080B582B000AF78607B681B6840229343BD
:1007B0001A007B681A60C046BD4602B080BDC046C4
:1007C00080B582B000AF78607B681B682022134040
:1007D0005A1E9341DBB21800BD4602B080BDC04630
:1007E00080B582B000AF78607B689B8C9BB2DBB237
:1007F0001800BD4602B080BD80B582B000AF786001
:100800000A00FB1C1A70FB1C1B789AB27B681A85C5
:10081000C046BD4602B080BD90B58DB000AFB96096
:100820007A6019000F23FB18021C1A700E23FB18A4
:100830000A1C1A701423FB183A4A13CA13C313CAAA
:1008400013C312681A600F23FB181A78364B9200F4
:10085000D3581800FFF756FF0F23FB181A78324BB6
:100860009200D3581800FFF75DFF031EEBD114234D
:10087000FB18BA681A600E23FB181B78012B02D0F4
:10088000022B05D00FE01423FB18C022D200DA603F
:100890001423FB188022D200DA601423FB18802274
:1008A00052015A6007E01423FB180022DA60142377
:1008B000FB1800225A600F23FB181A781A4B92007B
:1008C000D3581422BA181100180003F02FFA0F237E
:1008D000FB181A78144B9200D3581800FFF704FF46
:1008E0000F23FB181A78104B9200D3581800FFF70B
:1008F00019FF031EEBD00F23FB181A780A4B920046
:10090000D3581800FFF73EFF0F23FB181A78064B49
:100910009200D3581800FFF743FFC046BD460DB004
:1009200090BDC0461C4900080000002080B584B07E
:1009300000AFB9607A600F23FB18021C1A7018E030
:10094000C0460F23FB181A780E4B9200D35818009C
:10095000FFF708FF031EF4D00F23FB181A78094B8A
:100960009200D058BB685A1CBA601B781900FFF778
:1009700043FF7B685A1E7A60002BE1D1C046BD461A
:1009800004B080BD0000002080B584B000AF02003C
:10099000FB1D1A700F23FB1800221A7011E0FB1DBB
:1009A00019780F23FB181B780F22BA18581C1070E7
:1009B0001800124A26234B43D3181B180533002274
:1009C0001A700F23FB181B781F2BE8D9FB1D1B780F
:1009D0000A4A252126204343D3185B1800221A70A7
:1009E000FB1D1B78054A26214B43D31804330022F4
:1009F0001A70C046BD4604B080BDC04690080020B5
:100A000080B582B000AF434B25229B5C1A00414B5E
:100A1000D31805337B60404B1B681800FFF792FE2C
:100A2000031E41D03C4B1B681800FFF7C9FE031E94
:100A30003AD0394B1B681800FFF7D2FE03001A00AA
:100A4000344B1A71334B25229B5C5A1CD0B2314A6D
:100A50002521505419002F4B1A792E4B5B185A71CF
:100A60002C4B01229A702B4B6422DA707B68023B7C
:100A70001B78FF2B18D17B68013B1B78FF2B13D110
:100A80007B681B78FF2B0FD1224B25229B5C042B0C
:100A900005D1204B5B79180000F0BEFB01E000F0AF
:100AA000B5FB0020FFF770FF1B4B5B681800FFF7DA
:100AB00049FE031E2AD0184B5B681800FFF780FE22
:100AC000031E23D0144B5B681800FFF789FE030058
:100AD0001900104B2A2299540E4B4B229B5C5A1C36
:100AE000D0B20C4A4B21505418000A4B2A22995C70
:100AF000084B2B221B189B180A1C1A70054B282226
:100B000001219954034B292264219954C046BD46C2
:100B100002B080BD900800200000002080B582B0A7
:100B200000AF786039607B683A685A63C046BD465A
:100B300002B080BD80B582B000AF786039607B685C
:100B40003A689A63C046BD4602B080BD80B582B0A7
:100B500000AF786039607B683A689A61C046BD46EC
:100B600002B080BD80B582B000AF786039607B682C
:100B70003A689A62C046BD4602B080BD80B500AFFB
:100B800000F0D8F8244A254B11001800FFF7EAFFBF
:100B9000FFF77CFD224B26229B5C1A00214B1100A3
:100BA0001800FFF7BBFF1E4B27229B5C1A001D4B52
:100BB00011001800FFF7BEFFFFF782FD1A4B5B889C
:100BC0001900194B9B791A00174B1B790020FFF76E
:100BD00023FE164B0022DA70144B00229A7000207C
:100BE000FFF7D2FE104B5B8919000F4B9B7B1A005D
:100BF0000D4B1B7B0120FFF70FFE0C4B2922002120
:100C000099540A4B2822002199540120FFF7BCFE79
:100C1000C046BD4680BDC046070400000004004831
:100C2000EC08002000400140DC0800209008002073
:100C300080B500AFC046BD4680BDC04680B500AFA0
:100C4000074B2A221900782000F018F9054B1022D2
:100C50001900B62000F012F9C046BD4680BDC0465E
:100C6000EC080020DC08002080B500AF074B2A22EA
:100C70001900782000F02AF9054B10221900B6203F
:100C800000F024F9C046BD4680BDC046EC080020F7
:100C9000DC08002080B584B000AF0200FB1D1A7094
:100CA0000F23FB1800221A700FE00F23FB181B788C
:100CB0001D4AD35CFA1D12789A421FD00F23FB18ED
:100CC0001A780F23FB1801321A70174B20229B5CF5
:100CD0000F22BA1812789A42E7D9134B20229B5C54
:100CE0000133D9B2104B202299540F4B20229B5C28
:100CF00019000D4BFA1D12785A5400E0C0460A4BF9
:100D0000FA1D212112785A54074B20229B5C1F2B7D
:100D100006D9064A064B11001800FFF717FFFEE739
:100D2000C046BD4604B080BDEC08002007040000AA
:100D30000004004880B582B000AFFB1D00221A708D
:100D4000082000F0EBF80300552B1AD000F00CF946
:100D500000F01EF8FFF772FF0DE05521082000F0AB
:100D6000EDF8FB1D1B78FA1D591C1170052B02D9DB
:100D70000020FFF78FFF082000F0D0F80300552B6C
:100D8000EBD1FFF771FFC046BD4602B080BDC04643
:100D900080B582B000AFFB1D00221A702A4B0A22D8
:100DA0001A70294B9622D2015A80274B00221A71C1
:100DB000254B01225A71244B08229A71224B0A2298
:100DC0001A72214B9622D2015A811F4B00221A73AC
:100DD0001D4B01225A731C4B08229A7308E0FB1D1D
:100DE0001B78FA1D591C11701A00184B00219954D8
:100DF000FB1D1B781F2BF2D9144B20220021995484
:100E0000124B212200219954104B22220021995487
:100E10000E4B2322022199540C4B00229A840B4B37
:100E2000262200219954094B272200219954074B6F
:100E3000282200219954054B292200219954C046AB
:100E4000BD4602B080BDC046DC080020EC08002092
:100E500080B500AF044A054B11001800FFF776FE7D
:100E6000C046BD4680BDC0460704000000040048DF
:100E700080B500AFC046BD4680BDC04680B584B0D9
:100E800000AFB9607A600E23FB18021C1A800E2393
:100E9000FB181B880C4A934205D8BB68002B02D074
:100EA0007B68002B01D1042309E07B689AB2B96802
:100EB0000E23FB181888012300F0ACF8030018007B
:100EC000BD4604B080BDC046FF03000080B584B0BD
:100ED00000AFB9607A600E23FB18021C1A800E2343
:100EE000FB181B880C4A934205D8BB68002B02D024
:100EF0007B68002B01D1042309E07B689AB2B968B2
:100F00000E23FB181888002300F084F80300180053
:100F1000BD4604B080BDC046FF03000080B582B06E
:100F200000AF0200BB1D1A80BB1D1B881800FFF715
:100F30009DFA03001800BD4602B080BD80B582B0A6
:100F400000AF0200BB1D1A807B1D0A1C1A707B1D9E
:100F50001A78BB1D1B8811001800FFF7DBFAC0468A
:100F6000BD4602B080BDC04690B585B000AF0F232E
:100F7000FB1800221A70102003F076F803007B6043
:100F80000C23FB1800221A800A23FB1800221A8067
:100F90000C23FB181B887A68D318FF221A700C23C5
:100FA000FB180C22BA18128801321A800C23FB1885
:100FB0001B880F2BECD917E00F23FC1879680A2344
:100FC000FB1818880123102200F024F80300237076
:100FD0000F23FB181B78002B0DD10A23FB180A22C4
:100FE000BA18128810321A800A23FB181B88084A84
:100FF0009342E1D900E0C0467B68180003F03EF858
:101000000F23FB181B781800BD4605B090BDC046E5
:10101000FF03000090B587B000AF0400B960100076
:1010200019000E23FB18221C1A800C23FB18021C2B
:101030001A80FB1D0A1C1A701123FB1800221A705B
:101040001723FB1800221A700E23FB181B881B0A9B
:101050009AB21623FB181A700E23FB181B881B0963
:101060009AB21523FB181A701623FB181B781B0164
:10107000DAB21423FB181521791809788A1A1A7024
:101080000E23FB181B88DAB21323FB180F210A402A
:101090001A701623FB181B785033DBB21222BA18D1
:1010A000DB1813701123FC181223FB181B7818008F
:1010B000FFF7A0F8030023701123FB181B78002B07
:1010C00000D196E01123FB181B789BE01723FB1837
:1010D0001322BA18127810218A1A1A701723FB18D3
:1010E0001B789BB20C22BA1812889A4205D2172399
:1010F000FB180C22BA1812881A70FB1D1B78002BE3
:1011000002D0012B0ED01BE01723FB181C78BA6805
:101110000E23FB1819881223FB1818782300FFF7F9
:1011200035F90DE01723FB181C78BA680E23FB185D
:1011300019881223FB1818782300FFF791F8C0468E
:101140001723FB181B789AB20C23FB180C21791873
:1011500009888A1A1A800C23FB181B88002B4FD091
:101160001523FB181A781523FB1801321A70132364
:10117000FB1800221A701723FB181B7899B20E2354
:10118000FB180E22BA1812888A181A801723FB1827
:101190001B78BA68D318BB601423FB181B780F2B7D
:1011A00014D11623FB181A781623FB1801321A7073
:1011B0001623FB181B785033DBB21222BA18DB1847
:1011C00013701423FB1800221A7012E01423FB186A
:1011D0001A781423FB1801321A701623FB181622F2
:1011E000BA1812781A701223FB181222BA18127841
:1011F0001A700C23FB181B88002B00D066E700E058
:10120000C04600231800BD4607B090BD80B500AFB2
:10121000C046BD4680BDC04680B582B000AF02006A
:10122000FB1D1A70FB1D1B78002B05D0882B00D0EE
:1012300005E0FFF70DFE02E0FFF71AFEC046C046CC
:10124000BD4602B080BDC04680B586B000AF7860B4
:1012500039601723FB1800221A7010E01723FB18BF
:101260001A781723FB181B7817217918581C087057
:1012700019007B685B1819780823FB189954172309
:10128000FB181A783B689A42E8D31723FB181B789F
:101290001722BA18591C11701A000823FB18FF21D5
:1012A00099541723FB181B781722BA18591C117070
:1012B0001A000823FB18FF2199541723FB181B78E9
:1012C0000822BA18FF21D1541723FB181B780133C9
:1012D0001A000823FB1819000020FFF727FBC0465F
:1012E000BD4606B080BDC04680B582B000AF0200EA
:1012F000FB1D1A70064BFA1D127811001F220A40BE
:10130000012191400A001A60C046BD4602B080BD6E
:1013100000E100E0B0B582B000AF02003960FB1D13
:101320001A70FB1D1B787F2B32D92F4CFB1D1B78AD
:101330001A000F231340083B99082B4AFB1D1B780A
:1013400018000F230340083B9B0806339B00D3186B
:1013500004331B68FA1D1278100003220240D200E9
:10136000FF2090400200D2431A403B689B01FF20BF
:101370001840FB1D1B781D0003232B40DB00984009
:1013800003001A438B1D9B00E31804331A6027E007
:10139000164CFB1D1B785BB29B081449FA1D127892
:1013A00052B29208C03292005258F91D09780800D2
:1013B00003210140C900FF2088400100C9431140BA
:1013C0003A689201FF201040FA1D1278150003229E
:1013D0002A40D200904002000A43C0339B001A51B9
:1013E000C046BD4602B0B0BD00ED00E000E100E047
:1013F00080B582B000AF78607B68013B0C4A9342B5
:1014000001D9012310E00B4B7A68013A5A6001239D
:101410005B4203211800FFF77DFF064B00229A6014
:10142000044B07221A6000231800BD4602B080BD9D
:10143000FFFFFF0010E000E080B582B000AF7860F1
:1014400039607B681B68054A1A403B681A437B6811
:101450001A60C046BD4602B080BDC046FFFF3FFED9
:1014600080B582B000AF786039607B685B69072225
:1014700093431A003B681A437B685A61C046BD46D5
:1014800002B080BD80B582B000AF786039607B6803
:10149000DB68042293431A003B681A437B68DA60D6
:1014A000C046BD4602B080BD80B582B000AF786056
:1014B00039607B689A6A3B685B035B0B1A437B6805
:1014C0009A62C046BD4602B080BDC04680B582B0BB
:1014D00000AF78607B685B68042293431A007B68E6
:1014E0005A60C046BD4602B080BDC04680B582B0DD
:1014F00000AF78607B685B68082293431A007B68C2
:101500005A60C046BD4602B080BDC04680B582B0BC
:1015100000AF78607B681B68034A1A407B681A60DA
:10152000C046BD4602B080BDFFFFFDFF80B582B062
:1015300000AF78607B681B68034A1A407B681A60BA
:10154000C046BD4602B080BDFFFFF7FF80B584B046
:1015500000AFF860B9607A60FB68DB68054A1A4042
:10156000B9687B680B431A43FB68DA60C046BD4626
:1015700004B080BD01F8FFFF80B582B000AF786095
:101580007B68DB68034A1A407B68DA60C046BD4668
:1015900002B080BDFF7FFFFF80B582B000AF7860F2
:1015A0007B685B68802292041A437B685A60C0465D
:1015B000BD4602B080BDC04680B500AF044B044AB2
:1015C0001268802149020A431A60C046BD4680BDA8
:1015D0000010024080B500AF054B1A6880239B02C3
:1015E00013405A1E9341DBB21800BD4680BDC04671
:1015F0000010024080B500AF044B044A126801217C
:101600000A431A60C046BD4680BDC0460010024075
:1016100080B500AF044B1B68022213405A1E934151
:10162000DBB21800BD4680BD0010024080B582B01C
:1016300000AF7860064B064A1268F8218A43110011
:101640007A68D2000A431A60C046BD4602B080BD27
:101650000010024080B500AF044B044A526B0121D8
:101660000A435A63C046BD4680BDC04600100240D2
:1016700080B500AF044B5B6B022213405A1E9341AE
:10168000DBB21800BD4680BD0010024080B500AF3F
:10169000044B044A526B04218A435A63C046BD4638
:1016A00080BDC0460010024080B582B000AF7860B7
:1016B000064B064A526BF8218A4311007A68D20021
:1016C0000A435A63C046BD4602B080BD00100240C6
:1016D00080B582B000AF7860064B064A526803219D
:1016E0008A4311007A680A435A60C046BD4602B078
:1016F00080BDC0460010024080B500AF034B5B6860
:101700000C2213401800BD4680BDC04600100240A8
:1017100080B582B000AF7860064B064A5268F0216F
:101720008A4311007A680A435A60C046BD4602B037
:1017300080BDC0460010024080B582B000AF786026
:10174000054B054A5268054911407A680A435A60B8
:10175000C046BD4602B080BD00100240FFF8FFFF4A
:1017600080B582B000AF7860094B094A126B796886
:10177000090E032088400100C94311407A68120213
:10178000120A0A431A63C046BD4602B080BDC04675
:101790000010024080B582B000AF7860064B064A68
:1017A000126B10218A4311007A680A431A63C046FB
:1017B000BD4602B080BDC0460010024080B500AFFB
:1017C000044B044A1268802149040A431A60C04647
:1017D000BD4680BD0010024080B500AF054B1A68C1
:1017E00080239B0413405A1E9341DBB21800BD4670
:1017F00080BDC0460010024080B582B000AF786066
:1018000039600E4B0D4A52680D49114078688022AC
:10181000520210403A6802430A435A60074B074A93
:10182000D26A0F218A4311007A680F2002400A43CE
:10183000DA62C046BD4602B080BDC046001002401C
:10184000FFFFC2FF80B584B000AF7860074B074A46
:1018500051697A680A435A61044B5B697A6813409C
:10186000FB60FB68C046BD4604B080BD001002406E
:1018700080B584B000AF7860074B074AD1697A68B9
:101880000A43DA61044BDB697A681340FB60FB684A
:10189000C046BD4604B080BD0010024080B584B093
:1018A00000AF7860074B074A91697A680A439A61EA
:1018B000044B9B697A681340FB60FB68C046BD46D9
:1018C00004B080BD0010024090B583B000AF7860D6
:1018D00039600F4C3B68FF2213400D493A68FF20E6
:1018E00002400232920052583968090C0F20884099
:1018F0000100C94311403A68120C78689040020018
:101900000A4302339B001A51C046BD4603B090BD46
:101910000000014080B582B000AF7860064B064AF7
:10192000126801218A4311007A680A431A60C0468E
:10193000BD4602B080BDC0460020024080B500AF69
:10194000034B1B68012213401800BD4680BDC046F2
:101950000020024080B582B000AF78607B68042B25
:1019600006D1084B074A126804210A431A6005E0B1
:10197000044B044A126804218A431A60C046BD46DB
:1019800002B080BD10E000E080B582B000AF7860AA
:1019900039607B681B68082293431A003B681A432E
:1019A0007B681A60C046BD4602B080BD80B582B07B
:1019B00000AF78607B681B68802293431A007B68C5
:1019C0001A60C046BD4602B080BDC046B0B582B008
:1019D00000AF786039603B68012B1ED03B68042B58
:1019E00019D03B68102B14D03B68402B0FD03A68BD
:1019F00080235B009A4208D03A688023DB009A4239
:101A000001D105230AE0062308E0042306E00323AE
:101A100004E0022302E0012300E000231D007B68B4
:101A200018331A002900094B5B5CD3181C0023688B
:101A30002900074A525C110004228A40D243134015
:101A40002360C046BD4602B0B0BDC0463C49000858
:101A500044490008B0B582B000AF786039603B6897
:101A6000012B1ED03B68042B19D03B68102B14D0DF
:101A70003B68402B0FD03A6880235B009A4208D025
:101A80003A688023DB009A4201D105230AE006234D
:101A900008E0042306E0032304E0022302E001231C
:101AA00000E000231D007B6818331A002900084B52
:101AB0005B5CD3181C0022682900064B5B5C190094
:101AC00008238B4013432360C046BD4602B0B0BD1F
:101AD0003C4900084449000880B582B000AF7860F6
:101AE00039607B685B68702293431A003B681A4335
:101AF0007B685A60C046BD4602B080BD80B582B0EA
:101B000000AF78607B689B68802293431A007B68F3
:101B10009A60C046BD4602B080BDC04680B582B066
:101B200000AF78607B681B6801221A437B681A60EB
:101B3000C046BD4602B080BD80B582B000AF7860BF
:101B40007B689B68802252011A437B689A60C0467A
:101B5000BD4602B080BDC04680B582B000AF78609F
:101B600039607B681B68054A1A403B681B041A43AE
:101B70007B681A60C046BD4602B080BDFFFFE0FF33
:101B800080B582B000AF786039607B681B68054A19
:101B90001A403B685B051A437B681A60C046BD4625
:101BA00002B080BDFFFF1FFC80B582B000AF78603F
:101BB0007B689B688022D2011A437B689A60C0468A
:101BC000BD4602B080BDC04680B582B000AF78602F
:101BD00039607B689B68054A1A403B681A437B68FA
:101BE0009A60C046BD4602B080BDC046FF7FFFFF81
:101BF00080B582B000AF78607B685B68074A1A40A6
:101C00007B685A607B689B682A2293431A007B6832
:101C10009A60C046BD4602B080BDC046FFB7FFFF18
:101C200080B584B000AFF860B9607A60FB6819686D
:101C3000BB68BA685A4313005B009B18DB430B4038
:101C40001A00BB68B9684B4379684B431A43FB6879
:101C50001A60C046BD4604B080BDC04680B584B0A1
:101C600000AFF860B9607A60FB68D968BB68BA6891
:101C70005A4313005B009B18DB430B401A00BB6800
:101C8000B9684B4379684B431A43FB68DA60C04636
:101C9000BD4604B080BDC04680B582B000AF78605C
:101CA00039607B683A689A62C046BD4602B080BD22
:101CB00080B500AF0120FFF7F1FD80235B05180020
:101CC000FFF7D6FD00F05AF800F072FD00F074F94D
:101CD00000F0FCFB00F000FA00F0B2F800F0B0FCFD
:101CE00000F034FB00F034FA1C4B1A68FA23990018
:101CF000100002F02DF903001800FFF779FB0A200D
:101D000002F0A6F8FEF73AFF154B0A229A840A2041
:101D100002F09EF8124B0A229A840A2002F098F8E8
:101D20000F4B0A229A840F4B1A680F4B1B689A427A
:101D300010D80D4B1B680D4A9A180A4B1A600C4AB2
:101D40000C4B11001800FFF7A7FF0B4B04211800E4
:101D5000FFF77AFAFEF76CFFE5E7C04608000020BF
:101D6000EC080020500800205408002088130000D0
:101D700007040000000400483849000880B500AF9F
:101D80000120FFF7C7FDFFF7D9FD0300012B01D0AC
:101D900000F0EAFDFFF710FCC046FFF71BFC030054
:101DA000012BFAD1FFF726FCC046FFF731FC0300F8
:101DB000012BFAD11020FFF739FCFFF74BFCC0468E
:101DC000FFF756FC0300012BFAD11020FFF76CFC43
:101DD00080235A0380235B0211001800FFF70CFDDB
:101DE000FFF7ECFCC046FFF7F7FC0300012BFAD12C
:101DF0000020FFF78DFC0020FFF79EFC0220FFF77C
:101E000067FCC046FFF778FC0300082BFAD10B4BA8
:101E1000180002F00DF80420FFF79CFD074B180096
:101E200002F038F8FFF732FC0020FFF799FC0020A1
:101E3000FFF7B0FCC046BD4680BDC046006CDC026A
:101E400080B590B000AF3023FB18180010231A00A3
:101E5000002102F0C7FB1C23FB18180014231A00F2
:101E6000002102F0BFFB3B1D180018231A000021BF
:101E700002F0B8FB80239B001800FFF70FFD8023C2
:101E80009B021800FFF7DEFC3B1D01221A603B1D80
:101E900003225A603B1D00221A613A1D9023DB0584
:101EA0001100180001F084F83B1D10221A603B1D40
:101EB00003225A603B1D00221A613A1D9023DB0564
:101EC0001100180001F074F8364B01211800FFF7DB
:101ED000EBFA354A334B11001800FFF7E5FA334AA5
:101EE000304B11001800FFF7DFFA80231B04304A43
:101EF00019001000FFF7A0FA2E4A2A4B1100180013
:101F0000FFF7D2FA8023DB03294A19001000FFF7FC
:101F100093FA3023FB1800221A603023FB180822A2
:101F20005A603023FB1800229A603023FB180022ED
:101F3000DA603023FB181B4A1900100000F00CFE79
:101F40001C23FB1800221A601C23FB1800225A6075
:101F50001C23FB1800229A601C23FB180122DA6064
:101F60001C23FB1800221A611C23FB180D4A1900C0
:101F7000100000F01DFE0B4B00211800FFF782FA45
:101F8000084B00211800FFF76BFA064B1800FFF70B
:101F90009DFA044B1800FFF7A9FAC046BD4610B0E1
:101FA00080BDC0460024014010000010000001C0A8
:101FB00008270140000002C480B58EB000AF1C238A
:101FC000FB1818001C231A00002102F00BFB3B1D1C
:101FD000180018231A00002102F004FB8023DB0202
:101FE0001800FFF72FFC3B1D40221A603B1D022208
:101FF0005A603B1D03229A603B1D0122DA603B1DA3
:1020000001221A613B1D01225A613B1D2F4A190012
:10201000100000F0CDFF3B1D80221A603B1D022204
:102020005A603B1D03229A603B1D0122DA603B1D72
:1020300001221A613B1D01225A613B1D234A1900EE
:10204000100000F0B5FF80239B031800FFF710FC81
:102050001F4B1800FFF790FA1D4B1800FFF766FAA8
:102060001B4B1800FFF752FA1C23FB1800221A60C2
:102070001C23FB18174A5A601C23FB1800229A6085
:102080001C23FB180022DA601C23FB1800221A61B3
:102090001C23FB1800225A611C23FB1800229A61A2
:1020A0001C23FB180A4A1900100001F085F8084BA0
:1020B0001800FFF771FA064B002200211800FFF705
:1020C00045FAC046BD460EB080BDC046000400487B
:1020D000005400400E09002080B586B000AF3B1DC3
:1020E000180014231A00002102F07CFA1020FFF7D8
:1020F000BFFB00211120FFF70DF91120FFF7F4F8C5
:102100003B1D00221A803B1D00225A603B1DFA2213
:1021100092009A603B1D0D4A1900100001F04EFA22
:102120000A4B1800FFF742FC084B08211800FFF784
:102130002BFC064B00211800FFF7CEFC034B1800C8
:10214000FFF7DCFCC046BD4606B080BD0010004075
:1021500080B59AB000AF5423FB18180014231A005E
:10216000002102F03FFA3423FB18180020231A0044
:10217000002102F037FA1C23FB18180018231A005C
:10218000002102F02FFA3B1D180018231A0000212D
:1021900002F028FA80235B021800FFF77FFB54232C
:1021A000FB18F02252001A805423FB1800225A60B8
:1021B0005423FB1864229A605423FB180022DA602F
:1021C0005423FB1800221A745423FB185D4A19008B
:1021D000100001F0F3F95B4B1800FFF7E7FB594BD8
:1021E00001211800FFF736FC3423FB1860221A6027
:1021F0003423FB1800225A603423FB1800229A6013
:102200003423FB183222DA603423FB1800221A61CF
:102210003423FB1800225A613423FB1800229A61F0
:102220003423FB180022DA613423FB1845481A00D6
:10223000012101F047FA434B01211800FFF7C6FBCB
:10224000404B10211800FFF705FC3423FB18002237
:102250005A603423FB1800229A603423FB18394853
:102260001A00102101F02EFA364B10211800FFF74A
:10227000ADFB344B00211800FFF72EFC314B18004A
:10228000FFF73CFC1C23FB1800221A601C23FB18E0
:1022900000225A601C23FB1800229A601C23FB18A2
:1022A00000221A731C23FB180022DA811C23FB185E
:1022B000802292011A611C23FB1800225A611C2300
:1022C000FB18204A1900100001F04AFA8023DB02B3
:1022D0001800FFF7B7FA3B1D8022D2011A603B1DA0
:1022E00002225A603B1D00229A603B1D0022DA60E8
:1022F0003B1D00221A613B1D01225A613B1D124AFF
:102300001900100000F054FE3B1D802212021A60DA
:102310003B1D02225A603B1D00229A603B1D002299
:10232000DA603B1D00221A613B1D01225A613B1DF0
:10233000054A1900100000F03BFEC046BD461AB029
:1023400080BDC046004001400004004880B59AB0FE
:1023500000AF5423FB18180014231A00002102F0C8
:1023600041F93423FB18180020231A00002102F041
:1023700039F91C23FB18180018231A00002102F059
:1023800031F93B1D180018231A00002102F02AF928
:1023900080239B021800FFF781FA5423FB18F022D8
:1023A00052001A805423FB1800225A605423FB1851
:1023B00064229A605423FB180022DA605423FB182D
:1023C00000221A745423FB183F4A1900100001F030
:1023D000F5F83D4B1800FFF7E9FA3B4B01211800D7
:1023E000FFF738FB3423FB1860221A603423FB18F4
:1023F00000225A603423FB1800229A603423FB1811
:102400003222DA603423FB1800221A613423FB18CD
:1024100000225A613423FB1800229A613423FB18EE
:102420000022DA613423FB1827481A00012101F049
:1024300049F9254B01211800FFF7C8FA1C23FB18A6
:1024400000221A601C23FB1800225A601C23FB1870
:1024500000229A601C23FB1800221A731C23FB180D
:102460000022DA811C23FB18802292011A611C23AE
:10247000FB1800225A611C23FB18134A1900100094
:1024800001F06EF980239B021800FFF7DBF93B1D7A
:1024900040221A603B1D02225A603B1D00229A60B6
:1024A0003B1D0022DA603B1D00221A613B1D052204
:1024B0005A613A1D9023DB051100180000F078FDE9
:1024C000C046BD461AB080BD0044014080B58EB004
:1024D00000AF1C23FB1818001C231A00002102F077
:1024E00081F83B1D180018231A00002102F07AF829
:1024F0008023DB011800FFF7D1F980239B0218002D
:10250000FFF7A0F93B1D802292001A603B1D0222BA
:102510005A603B1D03229A603B1D0022DA603B1D7E
:1025200000221A613B1D01225A613A1D9023DB05EE
:102530001100180000F03CFD3B1D8022D2001A6003
:102540003B1D02225A603B1D03229A603B1D002264
:10255000DA603B1D01221A613B1D01225A613A1DBE
:102560009023DB051100180000F022FD3B1D8022A6
:1025700052011A603B1D02225A603B1D03229A60E1
:102580003B1D0022DA603B1D00221A613B1D012227
:102590005A613A1D9023DB051100180000F008FD78
:1025A00000211B20FEF7B6FE1B20FEF79DFE1C231C
:1025B000FB189622D2011A601C23FB1800225A60D5
:1025C0001C23FB1800229A601C23FB180022DA60EF
:1025D0001C23FB180C221A611C23FB1800225A61D1
:1025E0001C23FB1800229A611C23FB18134A1900B4
:1025F000100001F09BFB114B1800FFF7D5FA0F4BB1
:1026000000211800FFF7E0FA0C4B00211800FFF73B
:10261000B7FA0A4B00211800FFF79EFA074B180083
:10262000FFF78AFA054B1800FFF7E2FA034B180090
:10263000FFF774FAC046BD460EB080BD00380140B9
:1026400080B58EB000AF1C23FB1818001C231A00A5
:10265000002101F0C7FF3B1D180018231A000021BC
:1026600001F0C0FF80239B021800FFF701F98023CF
:102670009B021800FFF7E6F83B1D02221A603B1D83
:1026800002225A603B1D03229A603B1D0022DA6041
:102690003B1D00221A613B1D01225A613A1D902305
:1026A000DB051100180000F083FC3B1D04221A60BA
:1026B0003B1D02225A603B1D03229A603B1D0022F3
:1026C000DA603B1D00221A613B1D01225A613A1D4E
:1026D0009023DB051100180000F06AFC3B1D082266
:1026E0001A603B1D02225A603B1D03229A603B1D6B
:1026F0000022DA603B1D01221A613B1D01225A6152
:102700003A1D9023DB051100180000F051FC002158
:102710001C20FEF7FFFD1C20FEF7E6FD1C23FB1826
:102720009622D2011A601C23FB1800225A601C2337
:10273000FB1800229A601C23FB180022DA601C237D
:10274000FB180C221A611C23FB1800225A611C235F
:10275000FB1800229A611C23FB18144A1900100070
:1027600001F0E4FA114B1800FFF71EFA0F4B00219D
:102770001800FFF729FA0D4B00211800FFF700FAA7
:102780000A4B00211800FFF7E7F9084B1800FFF784
:10279000D3F9064B1800FFF72BFA044B1800FFF78C
:1027A000BDF9C046BD460EB080BDC04600440040E5
:1027B00080B588B000AF0823FB18180018231A0052
:1027C000002101F00FFF3B00180008231A00002130
:1027D00001F008FF80231B031800FFF733F8802364
:1027E000DB031800FFF72EF880239B021800FFF789
:1027F00029F88023DB021800FFF724F8574B01214A
:102800001800FFF749FA554B02211800FFF744FA68
:10281000524B04211800FFF73FFA8023DB004F4A98
:1028200019001000FFF738FA0823FB1801221A607C
:102830000823FB1801225A600823FB1800229A6023
:102840000823FB180022DA600823FB1800221A6113
:102850000823FB18414A1900100000F0A9FB0823C7
:10286000FB1802221A600823FB1801225A60082371
:10287000FB1800229A600823FB180022DA60082364
:10288000FB1800221A610823FB18344A19001000B3
:1028900000F08EFB0823FB1804221A600823FB18A3
:1028A00001225A600823FB1800229A600823FB18B3
:1028B0000022DA600823FB1800221A610823FB18A3
:1028C000264A1900100000F073FB0823FB18802231
:1028D000D2001A600823FB1801225A600823FB1853
:1028E00000229A600823FB180022DA600823FB18F4
:1028F00000221A610823FB18184A1900100000F082
:1029000057FB174B19000520FEF7DEFF154B012280
:1029100040211800FFF7A2F9124B002240211800B5
:10292000FFF77EF93B0040221A603B0001221A713A
:102930003B0000225A713B0001229A713B001800B3
:1029400000F0F0F900210720FEF7E4FC0720FEF775
:10295000CBFCC046BD4608B080BDC0460004004860
:10296000010008000014004880B500AFC046BD4615
:1029700080BDC04680B582B000AF7860064B5B6911
:102980007A681A407B68D31A5A425341DBB2180066
:10299000BD4602B080BDC0460004014080B582B093
:1029A00000AF7860034B7A685A61C046BD4602B0FA
:1029B00080BDC0460004014080B500AFC046BD46A2
:1029C00080BDC04680B500AFFEE7C04680B500AF11
:1029D000C046BD4680BDC04680B500AFC046BD46BE
:1029E00080BDC04680B500AF1C4B1B685A1C1B4BFA
:1029F0001A60FDF71FFE1A4BDB78DBB2002B07D005
:102A0000174BDB78DBB2013BDAB2154BDA7009E029
:102A1000134B9B78012B05D1114B00229A70114B5F
:102A200001221A700E4B29229B5CDBB2002B09D0CD
:102A30000B4B29229B5CDBB2013BD9B2084B29220C
:102A4000995408E0064B28229B5C012B03D1044BD0
:102A5000282200219954C046BD4680BD540800205C
:102A6000900800204C08002080B500AF4020FFF700
:102A700081FF031E02D04020FFF790FFC046BD46F5
:102A800080BDC04680B500AFC046BD4680BDC046D3
:102A900080B500AFFDF7B4FFC046BD4680BDC0465F
:102AA00080B500AFFDF7ACFFC046BD4680BDC04657
:102AB00080B500AF1A4B1A4A126801210A431A6006
:102AC000174B174A526817490A405A60144B144A68
:102AD000126815490A401A60114B114A12681349CD
:102AE0000A401A600E4B0E4A526811490A405A6059
:102AF0000B4B0B4AD26A0F218A43DA62084B084A11
:102B0000126B0C490A401A63054B054A526B0121AE
:102B10008A435A63024B00229A60C046BD4680BD7C
:102B2000001002400CB8FFF8FFFFF6FEFFFFFBFFAE
:102B3000FFFFC0FFACFEFFFF80B582B000AF786042
:102B40007B689B68012213405A1E9341DBB2180038
:102B5000BD4602B080BDC04680B584B000AF78608D
:102B600039600F23FB1801221A707B681800FFF7E9
:102B7000E3FF031E0FD17B68DB680C4A1A403B68F9
:102B800059683B689B6819433B68DB680B431A43F1
:102B90007B68DA6003E00F23FB1800221A700F2312
:102BA000FB181B781800BD4604B080BDC73FFFFF6F
:102BB00080B584B000AF786039600F23FB18012224
:102BC0001A707B681800FFF7B7FF031E15D17B68EA
:102BD000DB680F4A1A403B6819683B685B68194319
:102BE0003B689B6819433B68DB6819433B681B697A
:102BF0000B431A437B68DA6003E00F23FB180022C3
:102C00001A700F23FB181B781800BD4604B080BD56
:102C10003CC2FEFF80B582B000AF7860044B044A2E
:102C200011687A680A431A60C046BD4602B080BD8A
:102C30000004014080B582B000AF7860054B054AC2
:102C400012687968C9430A401A60C046BD4602B09E
:102C500080BDC0460004014080B582B000AF7860FE
:102C6000044B044A51687A680A435A60C046BD461C
:102C700002B080BD0004014080B582B000AF786032
:102C8000054B054A52687968C9430A405A60C046F4
:102C9000BD4602B080BDC0460004014080B582B090
:102CA00000AF7860044B044A91687A680A439A60DE
:102CB000C046BD4602B080BD0004014080B582B070
:102CC00000AF7860054B054A92687968C9430A40AD
:102CD0009A60C046BD4602B080BDC04600040140B7
:102CE00080B582B000AF7860044B044AD1687A683E
:102CF0000A43DA60C046BD4602B080BD0004014010
:102D000080B582B000AF7860054B054AD26879681B
:102D1000C9430A40DA60C046BD4602B080BDC04625
:102D20000004014080B584B000AF78600F23FB1829
:102D300001221A707B681B79002B64D07B681B68AA
:102D4000002B6AD07B685B79012B0ED0022B17D049
:102D5000002B20D17B681B681800FFF78DFF7B6874
:102D60001B681800FFF756FF1AE07B681B68180005
:102D7000FFF760FF7B681B681800FFF76DFF0FE02F
:102D80007B681B681800FFF745FF7B681B6818000D
:102D9000FFF762FF04E00F23FB1800221A70C04601
:102DA0007B689B79002B38D07B689B79022B0ED0F7
:102DB000032B17D0012B20D17B681B681800FFF76D
:102DC0009FFF7B681B681800FFF768FF25E07B68A2
:102DD0001B681800FFF772FF7B681B681800FFF77D
:102DE0007FFF1AE07B681B681800FFF757FF7B68BE
:102DF0001B681800FFF774FF0FE00F23FB18002279
:102E00001A70C04609E07B681B681800FFF712FFC4
:102E10007B681B681800FFF72FFF0F23FB181B7838
:102E20001800BD4604B080BD80B584B000AFF86026
:102E3000B9607A60FB681968BB68BA685A431300C6
:102E40005B009B18DB430B401A00BB68B9684B431F
:102E500079684B431A43FB681A60C046BD4604B00C
:102E600080BDC04680B584B000AFF860B9607A60BC
:102E7000FB685B68BA68D2431A40BB6879684B4309
:102E80001A43FB685A60C046BD4604B080BDC046C8
:102E900080B584B000AFF860B9607A60FB6899686B
:102EA000BB68BA685A4313005B009B18DB430B40B6
:102EB0001A00BB68B9684B4379684B431A43FB68F7
:102EC0009A60C046BD4604B080BDC04680B584B09F
:102ED00000AFF860B9607A60FB68D968BB68BA680F
:102EE0005A4313005B009B18DB430B401A00BB687E
:102EF000B9684B4379684B431A43FB68DA60C046B4
:102F0000BD4604B080BDC04680B584B000AFF86057
:102F1000B9607A60FB68196ABB68BA685343BA68DB
:102F20005343BA685A4313001B019B1ADB430B40FF
:102F30001A00BB68B9684B43B9684B43B9684B4347
:102F400079684B431A43FB681A62C046BD4604B019
:102F500080BDC04680B584B000AFF860B9607A60CB
:102F6000FB68596ABB681B0ABA68120A5343BA68FD
:102F7000120A5343BA68120A5A4313001B019B1AE0
:102F8000DB430B401A00BB681B0AB968090A4B43B4
:102F9000B968090A4B43B968090A4B4379684B433E
:102FA0001A43FB685A62C046BD4604B080BDC046A5
:102FB00080B584B000AF786039600023FB600023E7
:102FC000BB6040E03B681B680121FA6891400A0041
:102FD0001340BB60BB68002B32D03B685A68B968AD
:102FE0007B681800FFF720FF3B685B68012B03D06C
:102FF0003B685B68022B06D13B689A68B9687B68BE
:103000001800FFF745FF3B681A69B9687B6818002C
:10301000FFF75CFF3B685B68022B11D1BB68FF2B9D
:1030200007D83B685A69B9687B681800FFF76CFFDE
:1030300006E03B685A69B9687B681800FFF78AFFA9
:10304000FB680133FB603B681A68FB68DA40131EBB
:10305000B8D13B685B68012B03D03B685B68022BEF
:1030600007D13B6819683B68DA687B681800FFF78E
:10307000F9FE01231800BD4604B080BD80B582B0C2
:1030800000AF78607B681B6801221A437B681A6076
:10309000C046BD4602B080BD80B582B000AF78604A
:1030A0007B681B68012293431A007B681A60C04644
:1030B000BD4602B080BDC04680B584B000AFF860A8
:1030C000B9607A60FB681B68064A1A407B6819027F
:1030D000BB680B431A43FB681A60C046BD4604B088
:1030E00080BDC046FFE0FFFF80B584B000AFF86050
:1030F000B9607A60FB689B68DB0ADA02B9687B68B2
:103100000B431A43FB689A60C046BD4604B080BDBD
:1031100080B582B000AF78607B689B688022120225
:103120001A437B689A60C046BD4602B080BDC04667
:1031300080B582B000AF78607B689B68034A1A4014
:103140007B689A60C046BD4602B080BDFF7FFFFF2E
:1031500080B582B000AF786039607B683A681A61E8
:10316000C046BD4602B080BD80B582B000AF786079
:1031700039607B681B68054A1A403B681A437B68C4
:103180001A60C046BD4602B080BDC046FFFFCFFFFB
:1031900080B582B000AF786039607B685B68054AB3
:1031A0001A403B681A437B685A60C046BD4602B06D
:1031B00080BDC046FF7FFFFF80B582B000AF786062
:1031C00039607B681800FFF767FF3B6899683B68C8
:1031D000DA687B681800FFF76FFF3B685A687B6806
:1031E00011001800FFF7B4FF7B681800FFF746FFD7
:1031F0007B681800FFF79CFF3B6819693B689A6978
:103200007B681800FFF770FF3B681B69002B03D039
:103210007B681800FFF77CFF3B681A687B68110029
:103220001800FFF7A1FF3B685A697B68110018007E
:10323000FFF7AEFF01231800BD4602B080BDC046B7
:1032400080B500AF044B1B68022213405A1E934105
:10325000DBB21800BD4680BD0010024080B500AF53
:10326000044B1B6A022213405A1E9341DBB2180022
:10327000BD4680BD0010024080B500AF034B5B68C7
:103280000C2213401800BD4680BDC046001002400D
:1032900080B500AF034B5B68F02213401800BD46B9
:1032A00080BDC0460010024080B500AF034B5A6895
:1032B000E023DB0013401800BD4680BD0010024033
:1032C00080B582B000AF7860064B1B6B03217A6833
:1032D00091400A001A407B681B0613431800BD4644
:1032E00002B080BD0010024080B500AF034B5A68A9
:1032F00080235B0213401800BD4680BD00100240D1
:1033000080B500AF034B5A68F0239B0313401800AD
:10331000BD4680BD0010024080B500AF034BDB6AA4
:103320000F2213401800BD4680BDC0460010024069
:1033300080B582B000AF786000F058F802007B687A
:103340001A607B681B68180000F074F802007B6844
:103350005A607B685B68180000F082F802007B68A6
:103360009A60C046BD4602B080BDC04680B584B0FC
:1033700000AF78600023FB607B68002B2ED17B6858
:103380001800FFF79DFF0300022B0FD0032B06D080
:10339000012B13D100F02AF80300FB601EE0FFF7B9
:1033A0004FFF031E17D0104BFB6014E0FFF756FFD2
:1033B000031E12D080231B02FB600EE000F016F803
:1033C0000300180000F036F80300180000F048F879
:1033D0000300FB6002E0C04600E0C046FB68180046
:1033E000BD4604B080BDC04600127A0080B582B0F0
:1033F00000AF00237B60FFF73FFF0300042B06D0E4
:10340000082B07D0002B0AD1094B7B600AE0084B40
:103410007B6007E000F038F803007B6002E0044BBB
:103420007B60C0467B681800BD4602B080BDC046C8
:1034300000127A0080B582B000AF7860FFF728FFF5
:103440000200F02313401B09044AD35C1A007B6876
:10345000D3401800BD4602B080BDC0464C490008AC
:1034600080B582B000AF7860FFF71EFF03001B0A33
:10347000044AD35C1A007B68D3401800BD4602B0F2
:1034800080BDC0465C49000890B583B000AF002302
:103490007B6000233B60FFF727FF03003B603B6836
:1034A000002B04D080225202934203D005E0104B3F
:1034B0007B6005E00F4B7B6002E00D4B7B60C046FC
:1034C000FFF72AFF030001331900786800F040FD80
:1034D00003001C00FFF714FF0200F0239B031340BE
:1034E0009B0C023363431800BD4603B090BDC04639
:1034F00000093D0000127A0080B582B000AF78600C
:1035000039607B683A689A62C046BD4602B080BDA9
:1035100080B582B000AF786039607B683A68DA6263
:10352000C046BD4602B080BD80B582B000AF7860B5
:1035300039607B683A681A63C046BD4602B080BDF8
:1035400080B582B000AF786039607B683A685A63B2
:10355000C046BD4602B080BD80B582B000AF786085
:1035600039607B683A689A63C046BD4602B080BD48
:1035700080B582B000AF786039607B683A68DA6302
:10358000C046BD4602B080BD80B582B000AF786055
:1035900039607B683A681A64C046BD4602B080BD97
:1035A00080B582B000AF78607B685B6901221A4306
:1035B0007B685A61C046BD4602B080BD80B584B00C
:1035C00000AF786039600023FB607B681B68FB609C
:1035D0007B68354A934208D07A688023DB059A429B
:1035E00003D07B68314A934207D1FB687022934332
:1035F0001A003B685B681343FB607B682A4A93426E
:1036000018D07A688023DB059A4213D07B68274A5A
:1036100093420FD07B68264A93420BD07B68254AA1
:10362000934207D07B68244A934203D07B68234AA5
:10363000934206D1FB68224A1A403B68DB68134379
:10364000FB607B68FA681A603B689A687B681100C7
:103650001800FFF75DFF3B681B881A007B681100AC
:103660001800FFF749FF7B680F4A93420BD07B6835
:10367000104A934207D07B680F4A934203D07B687D
:103680000E4A934207D13B681B7C1A007B681100ED
:103690001800FFF749FF7B681800FFF781FF01233F
:1036A0001800BD4604B080BD002C0140000400405D
:1036B000002000400040014000440140004801401B
:1036C000FFFCFFFF90B587B000AFF860B9607A608B
:1036D0001723FB1800221A70BB68102B17D002D8D2
:1036E000012B09D034E08022520093421AD080226C
:1036F0005201934221D02BE01723FC187A68FB6813
:103700001100180000F082F80300237020E0172356
:10371000FC187A68FB681100180000F001F903003A
:10372000237015E01723FC187A68FB681100180055
:1037300000F086F9030023700AE01723FC187A686A
:10374000FB681100180000F00BFA03002370C0465C
:103750001723FB181B781800BD4607B090BDC04664
:1037600080B584B000AF786039600023FB60FB68EF
:10377000FF2293433A68127B1343FB60FB681C4AA9
:103780001A403B689B681343FB60FB68194A1A4068
:103790003B685B681343FB60FB68174A1A403B6851
:1037A0001B681343FB60FB68144A13403A68D289D4
:1037B0001343FB60FB68124A1A403B681B691343C2
:1037C000FB60FB680F4A1A403B685B691343FB6070
:1037D000FB680D4A1A403B685B691343FB607B68DA
:1037E000FA685A6401231800BD4604B080BDC04683
:1037F000FFFCFFFFFFFBFFFFFFF7FFFFFFEFFFFFF8
:10380000FFDFFFFFFFBFFFFFFF7FFFFF80B586B039
:1038100000AF786039600023FB6000237B610023E8
:103820003B617B681B6A012293431A007B681A6222
:103830007B681B6A7B617B685B683B617B689B691B
:10384000FB60FB6803229343FB60FB687022934399
:103850001A003B681B681343FB607B690222934399
:103860001A003B681B6913437B617B690122934308
:103870001A003B685B6813437B617B68224A934272
:103880000BD07B68214A934207D07B68204A934241
:1038900003D07B681F4A934220D17B69082293435F
:1038A0001A003B685B699B0013437B617B690422C0
:1038B00093431A003B689B689B0013437B613B6901
:1038C000154A1A403B689B6913433B613B69134AA5
:1038D0001A403B68DB695B0013433B617B683A69D4
:1038E0005A607B68FA689A613B68DA687B68110005
:1038F0001800FFF725FE7B687A691A620123180019
:10390000BD4606B080BDC046002C014000400140CD
:103910000044014000480140FFFEFFFFFFFDFFFFA4
:1039200080B586B000AF786039600023FB6000236B
:103930007B6100233B617B681B6A102293431A0062
:103940007B681A627B681B6A7B617B685B683B6192
:103950007B689B69FB60FB68314A1340FB60FB6836
:10396000304A1A403B681B681B021343FB607B69AB
:10397000202293431A003B681B691B0113437B61A0
:103980007B69102293431A003B685B681B01134359
:103990007B617B68244A93420BD07B68234A934225
:1039A00007D07B68224A934203D07B68214A934226
:1039B00021D17B69802293431A003B685B699B019C
:1039C00013437B617B69402293431A003B689B68E9
:1039D0009B0113437B613B69174A1A403B689B6913
:1039E0009B0013433B613B69144A1A403B68DB6907
:1039F000DB0013433B617B683A695A607B68FA6875
:103A00009A613B68DA687B6811001800FFF7A4FD33
:103A10007B687A691A6201231800BD4606B080BD32
:103A2000FFFCFFFFFF8FFFFF002C01400040014023
:103A30000044014000480140FFFBFFFFFFF7FFFF8C
:103A400080B586B000AF786039600023FB6000234A
:103A50007B6100233B617B681B6A374A1A407B68A5
:103A60001A627B681B6A7B617B685B683B617B6871
:103A7000DB69FB60FB6803229343FB60FB687022F9
:103A800093431A003B681B681343FB607B692B4A16
:103A90001A403B681B691B0213437B617B69264A02
:103AA0001A403B685B681B0213437B617B68244AB6
:103AB00093420BD07B68234A934207D07B68224A0B
:103AC000934203D07B68214A93421FD17B69204AED
:103AD0001A403B685B699B0213437B617B691D4A0B
:103AE0001A403B689B689B0213437B613B691A4AFF
:103AF0001A403B689B691B0113433B613B69174AB2
:103B00001A403B68DB695B0113433B617B683A69A0
:103B10005A607B68FA68DA613B68DA687B68110092
:103B20001800FFF725FD7B687A691A6201231800E7
:103B3000BD4606B080BDC046FFFEFFFFFFFDFFFF94
:103B4000002C014000400140004401400048014079
:103B5000FFF7FFFFFFFBFFFFFFEFFFFFFFDFFFFFB1
:103B600080B586B000AF7860396000233B610023E8
:103B7000FB6000237B617B681B6A2B4A1A407B68D1
:103B80001A627B681B6AFB607B685B687B617B6891
:103B9000DB693B613B69254A13403B613B69244A31
:103BA0001A403B681B681B0213433B61FB68214AB8
:103BB0001A403B681B691B031343FB60FB681A4AEE
:103BC0001A403B685B681B031343FB607B681A4A1F
:103BD00093420BD07B68194A934207D07B68184AFE
:103BE000934203D07B68174A934207D17B69164AF8
:103BF0001A403B689B699B0113437B617B687A6930
:103C00005A607B683A69DA613B68DA687B68110060
:103C10001800FFF7B9FC7B68FA681A6201231800E4
:103C2000BD4606B080BDC046FFEFFFFFFFFCFFFFB3
:103C3000FF8FFFFFFFDFFFFF002C0140004001402E
:103C40000044014000480140FFBFFFFF80B582B043
:103C500000AF78607B681B68012213405A1E9341B5
:103C6000DBB21800BD4602B080BDC04680B582B050
:103C700000AF786039607B685B68054A1A403B6832
:103C80001A437B685A60C046BD4602B080BDC0463C
:103C9000FFCFFFFF80B582B000AF786039607B68EE
:103CA0009B68054A1A403B681A437B689A60C04685
:103CB000BD4602B080BDC046FFFCFFFFB0B584B07A
:103CC00000AFF860B9607A603B60002500247A6834
:103CD00080231B029A4215D1BB685A003B685B08DF
:103CE000D3183968180000F033F903001B041D0CC9
:103CF0000D4B2B401C006B08072213401C43FB6834
:103D0000DC600CE03B685A08BB68D31839681800BF
:103D100000F01EF903001B041A0CFB68DA60C046B1
:103D2000BD4604B0B0BDC046F0FF000080B588B00D
:103D300000AF786039601F23FB1800221A7000233F
:103D4000BB617B681800FFF781FF031E49D17B68C8
:103D50001B68274A1A403B6859683B68DB6819436F
:103D60003B681B6919433B689B690B431A437B689B
:103D70001A603B689A687B6811001800FFF776FFAD
:103D80003B685A697B6811001800FFF783FF7B6866
:103D9000184A934205D10020FFF7E8FA0300BB61FF
:103DA0000CE07B68144A934208D10C23FB181800DE
:103DB000FFF7BEFA0C23FB189B68BB61BB69002BA5
:103DC0000FD03B681B68002B0BD01F23FB18012270
:103DD0001A703B689A693B681B68B9697868FFF795
:103DE0006DFF1F23FB181B781800BD4608B080BD6F
:103DF000F369FFFF003801400044004090B583B0F4
:103E000000AF78603960094C3968786800F0A0F834
:103E10000300013B6360054B00229A60034B0522BF
:103E20001A60C046BD4603B090BDC04610E000E039
:103E300080B582B000AF7860FA239A007B681100E9
:103E40001800FFF7DBFFC046BD4602B080BDC0468C
:103E500080B584B000AF78600D4B1B68FB60FB68D9
:103E60007B6801330CD07B6801337B6008E0084B32
:103E70001A6880235B02134002D07B68013B7B60A1
:103E80007B68002BF3D1C046BD4604B080BDC04660
:103E900010E000E080B582B000AF7860034B7A6834
:103EA0001A60C046BD4602B080BDC0460800002072
:103EB0000749084A084B9B1A05DD00240859105190
:103EC00004349C42FADB054880470548004700005F
:103ED00068490008000000204C080020B12A0008B2
:103EE000E53E00081849194A002301E00B6004313F
:103EF0009142FBD3FDF7DCFEFEE7FEE7FEE7FEE7BF
:103F0000FEE7FEE7FEE7FEE7FEE7FEE7FEE7FEE789
:103F1000FEE7FEE7FEE7FEE7FEE7FEE7FEE7FEE779
:103F2000FEE7FEE7FEE7FEE7FEE7FEE7FEE7FEE769
:103F3000FEE7FEE7FEE7FEE7FEE7FEE7FEE7FEE759
:103F4000FEE7FEE7FEE7FEE74C0800201C09002024
:103F5000002243088B4274D303098B425FD3030AC8
:103F60008B4244D3030B8B4228D3030C8B420DD3DB
:103F7000FF22090212BA030C8B4202D31212090269
:103F800065D0030B8B4219D300E0090AC30B8B42A7
:103F900001D3CB03C01A5241830B8B4201D38B0355
:103FA000C01A5241430B8B4201D34B03C01A5241FA
:103FB000030B8B4201D30B03C01A5241C30A8B423D
:103FC00001D3CB02C01A5241830A8B4201D38B0228
:103FD000C01A5241430A8B4201D34B02C01A5241CC
:103FE000030A8B4201D30B02C01A5241CDD2C3093E
:103FF0008B4201D3CB01C01A524183098B4201D3BA
:104000008B01C01A524143098B4201D34B01C01AA4
:10401000524103098B4201D30B01C01A5241C3081C
:104020008B4201D3CB00C01A524183088B4201D38B
:104030008B00C01A524143088B4201D34B00C01A77
:104040005241411A00D20146524110467047FFE7E3
:1040500001B5002000F006F802BDC0460029F7D0E7
:1040600076E770477047C04610B5034B01001868EB
:1040700000F00EF810BDC0464808002010B5034BF4
:104080000100186800F05AFB10BDC0464808002027
:10409000F0B55F464D4656464446F0B40D000B352C
:1040A00083B00700162D00D8A8E007239D4300D554
:1040B000CEE0A94200D9CBE000F0DAFAF823FF33D2
:1040C0009D4200D884E26B0A00D1C5E0042B00D9E0
:1040D0006CE13823A9099C4601339846884443463D
:1040E0008C445900C94E890071180839CC68A14226
:1040F00017D0032362689A431300521B0F2A00DD76
:10410000B0E00320002A09DB8DE0636883435A1B7B
:104110000F2A00DDA6E0002A00DB84E0E468A1426B
:10412000F3D143460093320034690832944200D1FF
:104130008FE10323616899430B00481B0F2800DDC2
:1041400076E172613261002871DAB14A914200D998
:1041500034E10123C8088210934072681A43C300F7
:104160009B1998687260E360A0609C601300C46053
:10417000012000998A109040984200D975E00342CE
:104180000CD1032291430A1D40000092034205D145
:10419000009A4000043200920342F9D0032398466B
:1041A000009AD3009946B144CC4692466346DC68F7
:1041B000A44507D14FE1002A00DB5FE1E468A44594
:1041C00000D148E14246636893435A1B0F2AF2DD4F
:1041D000012163190D436560E068A5680836E86051
:1041E00011438560F360B3603800DE609E60596003
:1041F0009A5000F03FFA2000083022E0102927D81A
:10420000380000F035FA1025062302217F4E9B006E
:10421000F3181A005C68083A944200D127E103239E
:1042200062689A431300E268A168CA609160012243
:10423000E318596838000A435A6000F01BFA20005E
:10424000083003B03CBC90469946A246AB46F0BD50
:104250000C2300203B60F4E740239846013B80217B
:104260009C463FE7634600935DE70323B4686268BA
:104270009A439046AA4203D3521B0F2A00DD87E0DF
:1042800023004344634A0193634B93461B681268BF
:10429000EB18013200D157E1604A944663441B0B8E
:1042A0001B0300930099380000F0E6F903008146F3
:1042B000013361D0019B834200D9FDE0584B009A45
:1042C0009A461B689C46534662441A60019B110043
:1042D0004B4500D143E15B461B68013300D14FE100
:1042E0004B46019A9B1A59185346196007234A46B0
:1042F000134000D117E1082189464A49D21A914456
:10430000C91A009B38004B441B051B0DCB1A190022
:104310009B4600F0B1F9431C00D135E14B46C01A71
:1043200001235844184353461B685B441900534605
:1043300019604B46B3605860B44213D043460F2B0C
:1043400000D8E1E04346072260680C3B9343063AFD
:10435000024005201A436260E218506090600F2B03
:1043600000D915E1304B1A68914200D919602F4BE2
:104370001A68914200D919600323B46862689A43AD
:104380001300521B9D4200D9C1E00F2A00DCBEE0A1
:104390000123290065191943134361603800B56092
:1043A0006B6000F067F9200008304AE7142B74D9DD
:1043B000542B00D9B0E0290B6E238CE64A0A042A5C
:1043C00074D9142A00D9C2E010005C325B3052006C
:1043D000082149428C469200B21894446246926881
:1043E0000B318846944500D1A0E04146506888438F
:1043F000834202D292689445F7D1D3689C46736891
:104400006146A260E1608C60D460B1E60C000020DF
:10441000FF01000018040020600800200F100000B9
:1044200064080020081000005C08002058080020E4
:10443000012163190D430143656073613361DA60E3
:104440009A6059601850380000F014F920000830C4
:10445000F7E673688CE608239B46073BDC449B46E3
:10446000DA4443465246134200D09FE633E0DC680C
:104470008A1C0092A34200D155E6D0E60122E3183F
:10448000596838000A435A60E368A268D3609A60AA
:1044900000F0F0F820000830D3E65B2294460132A9
:1044A000904698449C44434659001BE68A091000F4
:1044B0003932383052008BE7B44200D05CE7FDE679
:1044C000009B013B009308235B429C46E1444B4622
:1044D0009B6899457AD14346009A1342F0D173689C
:1044E000834373604000984200D9BEE6002800D1A3
:1044F000BBE6034270D152460092009A400004325B
:1045000000920342F9D04BE601234A46536038003B
:1045100000F0B0F8002094E6AA22520093420DD891
:10452000E90B7723D7E580214901EAE601238010D2
:104530008340726813437360624661E7284A93427E
:1045400018D8A90C7C23C6E510330093AAE6542A98
:1045500026D80A0B10006F326E30520038E71B0568
:1045600000D0B8E6009BB26843441800012303431F
:104570005360F7E67F239846013BFE219C46B1E558
:104580005B464A461A60B1E6002301209B46CAE614
:1045900021003800083100F0D1F853461968E1E6EF
:1045A000AA204000824205D8CA0B1000783277302A
:1045B00052000DE70A48824205D88A0C10007D326D
:1045C0007C30520004E7FE227E2001E7736889E711
:1045D000E9084B1C5B0019E653460093E0E5C04632
:1045E0005405000070B583073FD0541E002A3BD00D
:1045F000CEB20300032503E0621E002C34D0140069
:1046000001335A1E16702B42F6D1032C24D9FF25F4
:104610000D402A0215432A0415430F2C11D92600F8
:10462000103E3609013636011A009B191560556097
:104630009560D56010329342F8D10F221440032CBC
:104640000AD9261FB6080136B6001A009B1920C2E7
:104650009342FCD103221440002C05D0C9B21C198E
:10466000197001339C42FBD170BD14000300CCE7EC
:104670007047C0467047C046002370B5064C050021
:104680000800236000F03CF9431C00D070BD236893
:10469000002BFBD02B60F9E718090020F8B50C00BF
:1046A0000600FFF7E5FF204FBB685D6803239D43CD
:1046B0001E4B2C1B9C466444240B1D4B013C2403C5
:1046C0009C4207DD00213000FFF7D6FFBB685B1975
:1046D000984204D03000FFF7CDFF0020F8BD6142C2
:1046E0003000FFF7C9FF431C0DD001232D1BBA6812
:1046F0001D43104B55601A683000141B1C60FFF7F7
:10470000B9FF0120EAE700213000FFF7B5FFBB68E1
:10471000C21A0F2ADEDD08490968401A05490860F7
:1047200001210A435A60D5E70C000020EF0F00007A
:10473000FF0F00006408002018040020F0B5474671
:10474000050080B40C1E3ED0FFF792FF012321002C
:10475000984608394E684246330003209343CC18EC
:104760006268824360488768BC425AD047466260AC
:1047700037420BD10827BC460E688444891B9B191D
:104780008E68664566D0CF68F760BE600126A718C0
:104790007F68374236D0554A1E434E60CB50934215
:1047A00014D8DB08FF3A9C10FF3AA2404468DB00B3
:1047B0002243426018188368C8608B608160D960AA
:1047C0002800FFF757FF04BC9046F0BD5A0A042AA0
:1047D0004FD89C092600393438366400A4000419E7
:1047E000083CA268032794424AD05068B8438342E9
:1047F00002D292689442F8D1D468CC608A60A160F9
:10480000D160DDE79B183A4FA268BA4240D0E46815
:104810001E43D460A260354A4E60CB509342D5D837
:10482000BFE79B184246324206D10A68891A8C6853
:104830009B18CA68E260946001242E4A1C431268E7
:104840004C6081609342BBD32B4B28001968FFF763
:1048500025FFB5E74646A018406830423ED1A06823
:10486000D318E268C260906042461A434A60CB5057
:10487000A6E7142A14D816005C325B365400ADE764
:104880000123B610B3404268134343602200B4E7EB
:104890001E43D1609160CA608A604E60CB508FE742
:1048A000542A05D81C0B26006F346E36640095E739
:1048B000AA246400A24205D8DC0B2600783477369F
:1048C00064008BE70D4CA24205D89C0C26007D3479
:1048D0007C36640082E7FE247E267FE742461A4348
:1048E0004A60CB506CE7C0460C000020FF0100007E
:1048F000140000201404002060080020540500006B
:10490000044A1368002B03D0181810601800704771
:10491000014BF9E78C08002020090020004B000023
:104920000000000000000000000000000C0000007B
:1049300000000000000000007265737400000000B9
:10494000040404000000080000000800000000004B
:10495000000000000102030406070809000000002F
:08496000010203044300000002
:10496800003801400044004000127A0000000000B6
:10497800000000000C0000200C00002014000020A3
:10498800140000201C0000201C000020240000202F
:10499800240000202C0000202C00002034000020DF
:1049A800340000203C0000203C000020440000208F
:1049B800440000204C0000204C000020540000203F
:1049C800540000205C0000205C00002064000020EF
:1049D800640000206C0000206C000020740000209F
:1049E800740000207C0000207C000020840000204F
:1049F800840000208C0000208C00002094000020FF
:104A0800940000209C0000209C000020A4000020AE
:104A1800A4000020AC000020AC000020B40000205E
:104A2800B4000020BC000020BC000020C40000200E
:104A3800C4000020CC000020CC000020D4000020BE
:104A4800D4000020DC000020DC000020E40000206E
:104A5800E4000020EC000020EC000020F40000201E
:104A6800F4000020FC000020FC00002004010020CD
:104A7800040100200C0100200C010020140100207A
:104A8800140100201C0100201C010020240100202A
:104A9800240100202C0100202C01002034010020DA
:104AA800340100203C0100203C010020440100208A
:104AB800440100204C0100204C010020540100203A
:104AC800540100205C0100205C01002064010020EA
:104AD800640100206C0100206C010020740100209A
:104AE800740100207C0100207C010020840100204A
:104AF800840100208C0100208C01002094010020FA
:104B0800940100209C0100209C010020A4010020A9
:104B1800A4010020AC010020AC010020B401002059
:104B2800B4010020BC010020BC010020C401002009
:104B3800C4010020CC010020CC010020D4010020B9
:104B4800D4010020DC010020DC010020E401002069
:104B5800E4010020EC010020EC010020F401002019
:104B6800F4010020FC010020FC01002004020020C8
:104B7800040200200C0200200C0200201402002075
:104B8800140200201C0200201C0200202402002025
:104B9800240200202C0200202C02002034020020D5
:104BA800340200203C0200203C0200204402002085
:104BB800440200204C0200204C0200205402002035
:104BC800540200205C0200205C02002064020020E5
:104BD800640200206C0200206C0200207402002095
:104BE800740200207C0200207C0200208402002045
:104BF800840200208C0200208C02002094020020F5
:104C0800940200209C0200209C020020A4020020A4
:104C1800A4020020AC020020AC020020B402002054
:104C2800B4020020BC020020BC020020C402002004
:104C3800C4020020CC020020CC020020D4020020B4
:104C4800D4020020DC020020DC020020E402002064
:104C5800E4020020EC020020EC020020F402002014
:104C6800F4020020FC020020FC02002004030020C3
:104C7800040300200C0300200C0300201403002070
:104C8800140300201C0300201C0300202403002020
:104C9800240300202C0300202C03002034030020D0
:104CA800340300203C0300203C0300204403002080
:104CB800440300204C0300204C0300205403002030
:104CC800540300205C0300205C03002064030020E0
:104CD800640300206C0300206C0300207403002090
:104CE800740300207C0300207C0300208403002040
:104CF800840300208C0300208C03002094030020F0
:104D0800940300209C0300209C030020A40300209F
:104D1800A4030020AC030020AC030020B40300204F
:104D2800B4030020BC030020BC030020C4030020FF
:104D3800C4030020CC030020CC030020D4030020AF
:104D4800D4030020DC030020DC030020E40300205F
:104D5800E4030020EC030020EC030020F40300200F
:104D6800F4030020FC030020FC03002004040020BE
:104D78000404002000000200FFFFFFFF0000000005
:104D8800000000000C07002074070020DC0700204A
:104D9800000000000000000000000000000000000B
:104DA80000000000000000000000000000000000FB
:104DB8000000000064490008000000000000000036
:104DC80000000000000000000000000000000000DB
:104DD80000000000000000000000000000000000CB
:104DE80000000000000000000000000000000000BB
:104DF80000000000000000000000000000000000AB
:104E0800000000000000000000000000000000009A
:104E1800000000000000000000000000000000008A
:104E28000000000000000000010000000000000079
:104E38000E33CDAB34126DE6ECDE05000B0000003E
:104E4800000000000000000000000000000000005A
:104E5800000000000000000000000000000000004A
:104E6800000000000000000000000000000000003A
:104E7800000000000000000000000000000000002A
:0C51A800000000000000000020040020B7
:0400000508000000EF
:00000001FF
