:020000040800F2
:1000000000200020DD3000084D1C0008591C0008AD
:1000100000000000000000000000000000000000E0
:10002000000000000000000000000000611C00084B
:1000300000000000000000006D1C0008791C000892
:1000400033310008353100083731000839310008F4
:100050003B3100083D3100083F310008951C000885
:100060004331000845310008473100084931000894
:100070004B3100084D3100084F3100085131000864
:1000800053310008B11C00085731000859310008ED
:100090005B3100085D3100085F3100086131000804
:1000A000633100086531000867310008BD1C000895
:1000B000CD1C00086D3100086F3100087131000857
:1000C0007331000880B582B000AF78607B681B6830
:1000D00001221A437B681A60C046BD4602B080BD4B
:1000E00080B582B000AF786039607B681A6A3B687F
:1000F0001A437B681A62C046BD4602B080BDC04646
:1001000080B582B000AF786039607B681B6A3A685E
:10011000D2431A407B681A62C046BD4602B080BD19
:1001200080B582B000AF786039607B683A685A6306
:10013000C046BD4602B080BD80B582B000AF7860D9
:1001400039607B683A689A63C046BD4602B080BD9C
:1001500080B582B000AF78607B685B6C8022120251
:100160001A437B685A64C046BD4602B080BDC04693
:1001700080B582B000AF786039607B683A689A6277
:10018000C046BD4602B080BD80B582B000AF1E4BF8
:100190001A68FB1D1A70FB1D1B78002B26D01A4B0A
:1001A0001B681B0B07221A401300DB009B1A174A1F
:1001B00019001000FFF7B4FF144B01211800FFF7DE
:1001C0008FFF114B1B68FF2293431A000E4B1A60DE
:1001D000FB1DFA1D1278013A1A70FB1D1B781A00DC
:1001E000094B1B681A43084B1A6009E0074B0121B1
:1001F0001800FFF785FF064B02211800FFF7B8FF34
:10020000C046BD4602B080BD200100200044014030
:100210000004004880B500AF0F4B1800FFF752FFF5
:100220000D4B1800FFF794FF0B4B01211800FFF74F
:1002300057FF094B10211800FFF752FF064B002112
:100240001800FFF76DFF044B00211800FFF774FF43
:10025000C046BD4680BDC0460040014080B500AFED
:10026000134B1800FFF72EFF114B1800FFF770FF1C
:100270000F4B01211800FFF733FF0E4B1B680E4A8E
:100280001A400C4B1A600B4B1A680A4B1A60094B48
:100290001B680A4A1A40074B1A60064B1B68A022CB
:1002A000D2011A43034B1A60C046BD4680BDC0460A
:1002B0000044014020010020FFF8FFFFFF8FFFFFF7
:1002C00080B582B000AF78607B68DB692022134084
:1002D0005A1E9341DBB21800BD4602B080BDC04635
:1002E00080B582B000AF78607B68DB694022134044
:1002F0005A1E9341DBB21800BD4602B080BDC04615
:1003000080B582B000AF78607B6840221A62C04638
:10031000BD4602B080BDC04680B582B000AF7860F7
:100320007B681B6840221A437B681A60C046BD4642
:1003300002B080BD80B582B000AF78607B681B687A
:10034000402293431A007B681A60C046BD4602B043
:1003500080BDC04680B582B000AF78607B681B6806
:10036000202213405A1E9341DBB21800BD4602B052
:1003700080BDC04680B582B000AF78607B681B68E6
:10038000402213405A1E9341DBB21800BD4602B012
:1003900080BDC04680B582B000AF78607B689B8C22
:1003A0009BB2DBB21800BD4602B080BD80B582B002
:1003B00000AF78600A00FB1C1A70FB1C1B789AB215
:1003C0007B681A85C046BD4602B080BD80B582B04C
:1003D00000AF0200FB1D1A70BB1D0A1C1A70FB1D2A
:1003E0001A780C4B9200D258BB1D1B7819001000D4
:1003F000FFF7DCFFFB1D1A78064B9200D35818005C
:10040000FFF78AFF044B02221A70C046BD4602B0B5
:1004100080BDC046000000201000002080B586B0DE
:1004200000AFB9607A600F23FB18021C1A70172303
:10043000FB1800221A7011E01723FB181B781722F3
:10044000BA181278B9688A181178114AD15417234A
:10045000FB181A781723FB1801321A701723FB18A0
:100460001A787B689A42E7D37B68DAB2094B1A7034
:10047000094B00221A70064B1A780F23FB181B78C1
:1004800011001800FFF7A2FFC046BD4606B080BDB0
:1004900014000020130100201401002080B500AFDB
:1004A000254B1800FFF70CFF031E10D0224B18003D
:1004B000FFF750FF031E0AD01F4B1800FFF76AFF1B
:1004C00003001A001D4B1A701D4B00221A701A4BA4
:1004D0001800FFF705FF031E2BD0174B1800FFF77E
:1004E00049FF031E25D0174B1B78013BDAB2154B91
:1004F0001A70144B1B78002B10D0134B1B78013350
:10050000DAB2114B1A70104B1B781A000F4B9B5C20
:10051000094A19001000FFF749FF0AE0064B1800CE
:10052000FFF7EEFE044B1800FFF704FF044B002218
:100530001A70C046BD4680BD003801402801002029
:1005400010000020130100201401002014000020DE
:1005500080B500AFC046BD4680BDC04680B582B004
:1005600000AF786039607B683A689A62C046BD46E1
:1005700002B080BD80B500AF064A074B11001800DD
:10058000FFF7ECFFFFF746FEFFF768FEC046BD46EB
:1005900080BDC046070400000004004880B582B05A
:1005A00000AF0200FB1D1A70064BFA1D12781100F5
:1005B0001F220A40012191400A001A60C046BD4630
:1005C00002B080BD00E100E0B0B582B000AF020033
:1005D0003960FB1D1A70FB1D1B787F2B32D92F4C05
:1005E000FB1D1B781A000F231340083B99082B4A68
:1005F000FB1D1B7818000F230340083B9B080633A4
:100600009B00D31804331B68FA1D127810000322D4
:100610000240D200FF2090400200D2431A403B68C3
:100620009B01FF201840FB1D1B781D0003232B405E
:10063000DB00984003001A438B1D9B00E318043332
:100640001A6027E0164CFB1D1B785BB29B0814490F
:10065000FA1D127852B29208C03292005258F91D17
:100660000978080003210140C900FF2088400100EB
:10067000C94311403A689201FF201040FA1D1278D8
:10068000150003222A40D200904002000A43C033E2
:100690009B001A51C046BD4602B0B0BD00ED00E05F
:1006A00000E100E080B582B000AF78607B68013B7C
:1006B0000C4A934201D9012310E00B4B7A68013AAE
:1006C0005A6001235B4203211800FFF77DFF064BB0
:1006D00000229A60044B07221A6000231800BD46CE
:1006E00002B080BDFFFFFF0010E000E080B582B0E7
:1006F00000AF786039607B681B68054A1A403B6828
:100700001A437B681A60C046BD4602B080BDC04631
:10071000FFFF3FFE80B582B000AF786039607B6834
:100720005B69072293431A003B681A437B685A614E
:10073000C046BD4602B080BD80B582B000AF7860D3
:1007400039607B68DB68042293431A003B681A43D4
:100750007B68DA60C046BD4602B080BD80B582B01D
:1007600000AF786039607B689A6A3B685B035B0B1B
:100770001A437B689A62C046BD4602B080BDC0463F
:1007800080B582B000AF78607B685B6804229343D9
:100790001A007B685A60C046BD4602B080BDC046A4
:1007A00080B582B000AF78607B685B6808229343B5
:1007B0001A007B685A60C046BD4602B080BDC04684
:1007C00080B582B000AF78607B681B68034A1A402E
:1007D0007B681A60C046BD4602B080BDFFFFFDFFCA
:1007E00080B582B000AF78607B681B68034A1A400E
:1007F0007B681A60C046BD4602B080BDFFFFF7FFB0
:1008000080B584B000AFF860B9607A60FB68DB68DF
:10081000054A1A40B9687B680B431A43FB68DA60E3
:10082000C046BD4604B080BD01F8FFFF80B582B070
:1008300000AF78607B68DB68034A1A407B68DA6047
:10084000C046BD4602B080BDFF7FFFFF80B582B0CD
:1008500000AF78607B685B68802292041A437B68F3
:100860005A60C046BD4602B080BDC04680B500AFEC
:10087000044B044A1268802149020A431A60C046A8
:10088000BD4680BD0010024080B500AF054B1A6820
:1008900080239B0213405A1E9341DBB21800BD46D1
:1008A00080BDC0460010024080B500AF044B044A32
:1008B000126801210A431A60C046BD4680BDC04689
:1008C0000010024080B500AF044B1B6802221340A9
:1008D0005A1E9341DBB21800BD4680BD0010024095
:1008E00080B582B000AF7860064B064A1268F821E6
:1008F0008A4311007A68D2000A431A60C046BD4696
:1009000002B080BD0010024080B500AF044B044A25
:10091000526B01210A435A63C046BD4680BDC046A2
:100920000010024080B500AF044B5B6B0222134005
:100930005A1E9341DBB21800BD4680BD0010024034
:1009400080B500AF044B044A526B04218A435A63BA
:10095000C046BD4680BDC0460010024080B582B092
:1009600000AF7860064B064A526BF8218A431100AB
:100970007A68D2000A435A63C046BD4602B080BDC1
:100980000010024080B582B000AF7860064B064A86
:10099000526803218A4311007A680A435A60C046AC
:1009A000BD4602B080BDC0460010024080B500AF19
:1009B000034B5B680C2213401800BD4680BDC04647
:1009C0000010024080B582B000AF7860064B064A46
:1009D0005268F0218A4311007A680A435A60C0467F
:1009E000BD4602B080BDC0460010024080B582B056
:1009F00000AF7860054B054A5268054911407A6896
:100A00000A435A60C046BD4602B080BD0010024095
:100A1000FFF8FFFF80B582B000AF7860094B094A4C
:100A2000126B7968090E032088400100C943114008
:100A30007A681202120A0A431A63C046BD4602B01F
:100A400080BDC0460010024080B582B000AF786023
:100A5000064B064A126B10218A4311007A680A433A
:100A60001A63C046BD4602B080BDC04600100240B9
:100A700080B500AF044B044A1268802149040A4340
:100A80001A60C046BD4680BD0010024080B500AF70
:100A9000054B1A6880239B0413405A1E9341DBB216
:100AA0001800BD4680BDC0460010024080B582B02F
:100AB00000AF786039600E4B0D4A52680D49114005
:100AC00078688022520210403A6802430A435A6012
:100AD000074B074AD26A0F218A4311007A680F2018
:100AE00002400A43DA62C046BD4602B080BDC0463D
:100AF00000100240FFFFC2FF80B584B000AF7860F5
:100B0000074B074A51697A680A435A61044B5B698B
:100B10007A681340FB60FB68C046BD4604B080BDE8
:100B20000010024080B584B000AF7860074B074AE0
:100B3000D1697A680A43DA61044BDB697A68134049
:100B4000FB60FB68C046BD4604B080BD001002409B
:100B500080B584B000AF7860074B074A91697A6826
:100B60000A439A61044B9B697A681340FB60FB68F7
:100B7000C046BD4604B080BD0010024090B583B0B1
:100B800000AF786039600F4C3B68FF2213400D497D
:100B90003A68FF2002400232920052583968090C2C
:100BA0000F2088400100C94311403A68120C786850
:100BB000904002000A4302339B001A51C046BD46D2
:100BC00003B090BD0000014080B582B000AF7860F6
:100BD000064B064A126801218A4311007A680A43CB
:100BE0001A60C046BD4602B080BDC046002002402B
:100BF00080B500AF034B1B68012213401800BD46AF
:100C000080BDC0460020024080B582B000AF786051
:100C10007B68042B06D1084B074A126804210A435B
:100C20001A6005E0044B044A126804218A431A60E2
:100C3000C046BD4602B080BD10E000E080B582B085
:100C400000AF786039607B681B68082293431A0004
:100C50003B681A437B681A60C046BD4602B080BD3F
:100C600080B582B000AF78607B681B6880229343B8
:100C70001A007B681A60C046BD4602B080BDC046FF
:100C8000B0B582B000AF786039603B68012B1ED0F0
:100C90003B68042B19D03B68102B14D03B68402BC9
:100CA0000FD03A6880235B009A4208D03A688023CC
:100CB000DB009A4201D105230AE0062308E0042361
:100CC00006E0032304E0022302E0012300E0002306
:100CD0001D007B6818331A002900094B5B5CD31890
:100CE0001C0023682900074A525C110004228A4034
:100CF000D24313402360C046BD4602B0B0BDC046DB
:100D00002033000828330008B0B582B000AF786007
:100D100039603B68012B1ED03B68042B19D03B681F
:100D2000102B14D03B68402B0FD03A6880235B0017
:100D30009A4208D03A688023DB009A4201D1052309
:100D40000AE0062308E0042306E0032304E002236C
:100D500002E0012300E000231D007B6818331A0025
:100D60002900084B5B5CD3181C0022682900064B45
:100D70005B5C190008238B4013432360C046BD46CB
:100D800002B0B0BD203300082833000880B582B01F
:100D900000AF786039607B685B68702293431A000B
:100DA0003B681A437B685A60C046BD4602B080BDAE
:100DB00080B582B000AF78607B689B6880229343E7
:100DC0001A007B689A60C046BD4602B080BDC0462E
:100DD00080B582B000AF78607B681B6801221A433F
:100DE0007B681A60C046BD4602B080BD80B582B047
:100DF00000AF78607B689B68802252011A437B6851
:100E00009A60C046BD4602B080BDC04680B582B083
:100E100000AF786039607B681B68054A1A403B6800
:100E20001B041A437B681A60C046BD4602B080BDF1
:100E3000FFFFE0FF80B582B000AF786039607B686B
:100E40001B68054A1A403B685B051A437B681A60B9
:100E5000C046BD4602B080BDFFFF1FFC80B582B01A
:100E600000AF78607B689B688022D2011A437B6860
:100E70009A60C046BD4602B080BDC04680B582B013
:100E800000AF786039607B689B68054A1A403B6810
:100E90001A437B689A60C046BD4602B080BDC0461A
:100EA000FF7FFFFF80B582B000AF78607B685B6832
:100EB000074A1A407B685A607B689B682A229343E2
:100EC0001A007B689A60C046BD4602B080BDC0462D
:100ED000FFB7FFFF80B584B000AFF860B9607A60FB
:100EE000FB681968BB68BA685A4313005B009B181B
:100EF000DB430B401A00BB68B9684B4379684B432E
:100F00001A43FB681A60C046BD4604B080BDC046A7
:100F100080B584B000AFF860B9607A60FB68D968CA
:100F2000BB68BA685A4313005B009B18DB430B4055
:100F30001A00BB68B9684B4379684B431A43FB6896
:100F4000DA60C046BD4604B080BDC04680B582B000
:100F500000AF786039607B683A689A61C046BD46E8
:100F600002B080BD80B582B000AF786039607B6828
:100F70003A689A62C046BD4602B080BD80B500AFF7
:100F80000120FFF7E5FD80235B051800FFF7CAFD90
:100F900000F052F800F06AFD00F06CF900F0F4FB8C
:100FA00000F0F8F900F0AAF800F0A8FC00F02CFB23
:100FB00000F02CFA1B4B1A68FA239900100002F07B
:100FC000DDF803001800FFF76DFBFA239B00180003
:100FD00002F054F8FFF7CEFA134B1A68134B1B6854
:100FE0009A42F9D8114B1B68F533FF331A000E4BA8
:100FF0001A600E4B042219000020FFF70FFA0C4B69
:101000001B68FF2293431A00094B1A60084B1B68A8
:101010000A221A43064B1A60064B02211800FFF7FA
:1010200095FFD9E70C000020180100201C010020CA
:10103000200100200004004880B500AF0120FFF728
:10104000C3FDFFF7D5FD0300012B01D000F0D6FD55
:10105000FFF70CFCC046FFF717FC0300012BFAD189
:10106000FFF722FCC046FFF72DFC0300012BFAD14D
:101070001020FFF735FCFFF747FCC046FFF752FC96
:101080000300012BFAD11020FFF768FC80235A03DC
:1010900080235B0211001800FFF708FDFFF7E8FC52
:1010A000C046FFF7F3FC0300012BFAD10020FFF745
:1010B00089FC0020FFF79AFC0220FFF763FCC04682
:1010C000FFF774FC0300082BFAD10B4B180001F05A
:1010D000C5FF0420FFF798FD074B180001F0F0FF53
:1010E000FFF72EFC0020FFF795FC0020FFF7ACFC7B
:1010F000C046BD4680BDC046006CDC0280B590B0E5
:1011000000AF3023FB18180010231A00002102F052
:10111000C1F81C23FB18180014231A00002102F048
:10112000B9F83B1D180018231A00002102F0B2F88C
:1011300080239B001800FFF70BFD80239B02180003
:10114000FFF7DAFC3B1D01221A603B1D03225A60A7
:101150003B1D00221A613A1D9023DB051100180087
:1011600001F03CF83B1D10221A603B1D03225A601F
:101170003B1D00221A613A1D9023DB051100180067
:1011800001F02CF8364B01211800FFF7E7FA354A39
:10119000334B11001800FFF7E1FA334A304B1100CE
:1011A0001800FFF7DBFA80231B04304A19001000F7
:1011B000FFF79CFA2E4A2A4B11001800FFF7CEFACF
:1011C0008023DB03294A19001000FFF78FFA302330
:1011D000FB1800221A603023FB1808225A603023C3
:1011E000FB1800229A603023FB180022DA603023BB
:1011F000FB181B4A1900100000F0C4FD1C23FB184B
:1012000000221A601C23FB1800225A601C23FB18C2
:1012100000229A601C23FB180122DA601C23FB18B1
:1012200000221A611C23FB180D4A1900100000F05F
:10123000D5FD0B4B00211800FFF77EFA084B00216B
:101240001800FFF767FA064B1800FFF799FA044BEE
:101250001800FFF7A5FAC046BD4610B080BDC046D5
:101260000024014010000010000001C008270140C8
:10127000000002C480B58EB000AF1C23FB1818001C
:101280001C231A00002102F005F83B1D180018234A
:101290001A00002101F0FEFF8023DB021800FFF797
:1012A0002BFC3B1D40221A603B1D02225A603B1D55
:1012B00003229A603B1D0122DA603B1D01221A6164
:1012C0003B1D01225A613B1D2F4A1900100000F0FE
:1012D00085FF3B1D80221A603B1D02225A603B1D88
:1012E00003229A603B1D0122DA603B1D01221A6134
:1012F0003B1D01225A613B1D234A1900100000F0DA
:101300006DFF80239B031800FFF70CFC1F4B180098
:10131000FFF78CFA1D4B1800FFF762FA1B4B180001
:10132000FFF74EFA1C23FB1800221A601C23FB183F
:10133000174A5A601C23FB1800229A601C23FB18D2
:101340000022DA601C23FB1800221A611C23FB1800
:1013500000225A611C23FB1800229A611C23FB18EF
:101360000A4A1900100001F03DF8084B1800FFF779
:101370006DFA064B002200211800FFF741FAC04623
:10138000BD460EB080BDC046000400480054004079
:101390000E09002080B586B000AF3B1D1800142355
:1013A0001A00002101F076FF1020FFF7BBFB00219F
:1013B0001120FFF709F91120FFF7F0F83B1D00227B
:1013C0001A803B1D00225A603B1DFA2292009A604F
:1013D0003B1D0D4A1900100001F006FA0A4B1800D7
:1013E000FFF73EFC084B08211800FFF727FC064BCF
:1013F00000211800FFF7CAFC034B1800FFF7D8FCC8
:10140000C046BD4606B080BD0010004080B59AB011
:1014100000AF5423FB18180014231A00002101F018
:1014200039FF3423FB18180020231A00002101F093
:1014300031FF1C23FB18180018231A00002101F0AB
:1014400029FF3B1D180018231A00002101F022FF7C
:1014500080235B021800FFF77BFB5423FB18F0226C
:1014600052001A805423FB1800225A605423FB18A0
:1014700064229A605423FB180022DA605423FB187C
:1014800000221A745423FB185D4A1900100001F061
:10149000ABF95B4B1800FFF7E3FB594B0121180038
:1014A000FFF732FC3423FB1860221A603423FB1848
:1014B00000225A603423FB1800229A603423FB1860
:1014C0003222DA603423FB1800221A613423FB181D
:1014D00000225A613423FB1800229A613423FB183E
:1014E0000022DA613423FB1845481A00012101F07B
:1014F000FFF9434B01211800FFF7C2FB404B1021BD
:101500001800FFF701FC3423FB1800225A60342333
:10151000FB1800229A603423FB1839481A00102166
:1015200001F0E6F9364B10211800FFF7A9FB344B08
:1015300000211800FFF72AFC314B1800FFF738FC98
:101540001C23FB1800221A601C23FB1800225A607F
:101550001C23FB1800229A601C23FB1800221A731C
:101560001C23FB180022DA811C23FB188022920125
:101570001A611C23FB1800225A611C23FB18204A05
:101580001900100001F002FA8023DB021800FFF7B7
:10159000B3FA3B1D8022D2011A603B1D02225A6021
:1015A0003B1D00229A603B1D0022DA603B1D002299
:1015B0001A613B1D01225A613B1D124A190010009D
:1015C00000F00CFE3B1D802212021A603B1D02221D
:1015D0005A603B1D00229A603B1D0022DA603B1DD1
:1015E00000221A613B1D01225A613B1D054A190068
:1015F000100000F0F3FDC046BD461AB080BDC046E5
:10160000004001400004004880B59AB000AF542368
:10161000FB18180014231A00002101F03BFE3423AC
:10162000FB18180020231A00002101F033FE1C23B0
:10163000FB18180018231A00002101F02BFE3B1D97
:10164000180018231A00002101F024FE80239B02B9
:101650001800FFF77DFA5423FB18F02252001A807D
:101660005423FB1800225A605423FB1864229A600A
:101670005423FB180022DA605423FB1800221A744A
:101680005423FB183F4A1900100001F0ADF83D4B00
:101690001800FFF7E5FA3B4B01211800FFF734FB78
:1016A0003423FB1860221A603423FB1800225A608E
:1016B0003423FB1800229A603423FB183222DA60AC
:1016C0003423FB1800221A613423FB1800225A61CC
:1016D0003423FB1800229A613423FB180022DA61BC
:1016E0003423FB1827481A00012101F001F9254B8A
:1016F00001211800FFF7C4FA1C23FB1800221A600E
:101700001C23FB1800225A601C23FB1800229A603D
:101710001C23FB1800221A731C23FB180022DA81F9
:101720001C23FB18802292011A611C23FB18002243
:101730005A611C23FB18134A1900100001F026F906
:1017400080239B021800FFF7D7F93B1D40221A6047
:101750003B1D02225A603B1D00229A603B1D002265
:10176000DA603B1D00221A613B1D05225A613A1DB9
:101770009023DB051100180000F030FDC046BD4687
:101780001AB080BD0044014080B58EB000AF1C236C
:10179000FB1818001C231A00002101F07BFD3B1DE3
:1017A000180018231A00002101F074FD8023DB01CA
:1017B0001800FFF7CDF980239B021800FFF79CF972
:1017C0003B1D802292001A603B1D02225A603B1D85
:1017D00003229A603B1D0022DA603B1D00221A6141
:1017E0003B1D01225A613A1D9023DB0511001800B0
:1017F00000F0F4FC3B1D8022D2001A603B1D022247
:101800005A603B1D03229A603B1D0022DA603B1D9B
:1018100000221A613B1D01225A613A1D9023DB050B
:101820001100180000F0DAFC3B1D802252011A6002
:101830003B1D02225A603B1D03229A603B1D002281
:10184000DA603B1D00221A613B1D01225A613A1DDC
:101850009023DB051100180000F0C0FC00211B20C4
:10186000FEF7B2FE1B20FEF799FE1C23FB18962202
:10187000D2011A601C23FB1800225A601C23FB189B
:1018800000229A601C23FB180022DA601C23FB183C
:101890000C221A611C23FB1800225A611C23FB181E
:1018A00000229A611C23FB18134A1900100001F052
:1018B00053FB114B1800FFF7D1FA0F4B0021180012
:1018C000FFF7DCFA0C4B00211800FFF7B3FA0A4BC4
:1018D00000211800FFF79AFA074B1800FFF786FA65
:1018E000054B1800FFF7DEFA034B1800FFF770FAFC
:1018F000C046BD460EB080BD0038014080B58EB0F8
:1019000000AF1C23FB1818001C231A00002101F053
:10191000C1FC3B1D180018231A00002101F0BAFC7D
:1019200080239B021800FFF7FDF880239B0218001C
:10193000FFF7E2F83B1D02221A603B1D02225A60AB
:101940003B1D03229A603B1D0022DA603B1D0022F2
:101950001A613B1D01225A613A1D9023DB051100DB
:10196000180000F03BFC3B1D04221A603B1D0222C4
:101970005A603B1D03229A603B1D0022DA603B1D2A
:1019800000221A613B1D01225A613A1D9023DB059A
:101990001100180000F022FC3B1D08221A603B1DBC
:1019A00002225A603B1D03229A603B1D0022DA602E
:1019B0003B1D00221A613B1D01225A613A1D9023F2
:1019C000DB051100180000F009FC00211C20FEF7C7
:1019D000FBFD1C20FEF7E2FD1C23FB189622D20122
:1019E0001A601C23FB1800225A601C23FB180022DB
:1019F0009A601C23FB180022DA601C23FB180C22BF
:101A00001A611C23FB1800225A611C23FB180022B8
:101A10009A611C23FB18144A1900100001F09CFA6B
:101A2000114B1800FFF71AFA0F4B00211800FFF7AF
:101A300025FA0D4B00211800FFF7FCF90A4B002195
:101A40001800FFF7E3F9084B1800FFF7CFF9064B32
:101A50001800FFF727FA044B1800FFF7B9F9C04642
:101A6000BD460EB080BDC0460044004080B588B081
:101A700000AF1823FB18180008231A00002101F0FA
:101A800009FC3B00180018231A00002101F002FC99
:101A900080231B031800FFF72FF88023DB031800B7
:101AA000FFF72AF880239B021800FFF725F8802310
:101AB000DB021800FFF720F84D4B01211800FFF75B
:101AC00051FA4B4B02211800FFF74CFA484B042106
:101AD0001800FFF747FA8023DB00454A1900100081
:101AE000FFF740FA3B0001221A603B0001225A60D6
:101AF0003B0000229A603B000022DA603B0000229B
:101B00001A613B003A4A1900100000F067FB3B00E5
:101B100002221A603B0001225A603B0000229A60B8
:101B20003B000022DA603B0000221A613B00304A91
:101B30001900100000F052FB3B0004221A603B0029
:101B400001225A603B0000229A603B000022DA60CA
:101B50003B0000221A613B00254A1900100000F0EA
:101B60003DFB3B008022D2001A603B0001225A60FC
:101B70003B0000229A603B000022DA603B0000221A
:101B80001A613B001A4A1900100000F027FB194B9C
:101B900019000520FEF7F2FF174B01224021180023
:101BA000FFF7B6F9144B002240211800FFF792F915
:101BB0001823FB1840221A601823FB1801221A71FF
:101BC0001823FB1800225A711823FB1801229A715E
:101BD0001823FB18180000F0BBF900210720FEF7BE
:101BE000F3FC0720FEF7DAFCC046BD4608B080BD16
:101BF00000040048010008000014004880B500AF50
:101C0000C046BD4680BDC04680B582B000AF78609A
:101C1000064B5B697A681A407B68D31A5A42534173
:101C2000DBB21800BD4602B080BDC04600040140D2
:101C300080B582B000AF7860034B7A685A61C046C5
:101C4000BD4602B080BDC0460004014080B500AF73
:101C5000C046BD4680BDC04680B500AFFEE7C04669
:101C600080B500AFC046BD4680BDC04680B500AF60
:101C7000C046BD4680BDC04680B500AF044B1B6862
:101C80005A1C034B1A60FEF77FFAC046BD4680BD62
:101C90001C01002080B500AF4020FFF7B5FF031EF8
:101CA00002D04020FFF7C4FFC046BD4680BDC046FD
:101CB00080B500AFC046BD4680BDC04680B500AF10
:101CC000FEF7ECFBC046BD4680BDC04680B500AF08
:101CD000FEF73EFCC046BD4680BDC04680B500AFA5
:101CE0001A4B1A4A126801210A431A60174B174A05
:101CF000526817490A405A60144B144A1268154931
:101D00000A401A60114B114A126813490A401A60BE
:101D10000E4B0E4A526811490A405A600B4B0B4A4F
:101D2000D26A0F218A43DA62084B084A126B0C49C7
:101D30000A401A63054B054A526B01218A435A63D4
:101D4000024B00229A60C046BD4680BD0010024092
:101D50000CB8FFF8FFFFF6FEFFFFFBFFFFFFC0FF21
:101D6000ACFEFFFF80B582B000AF78607B689B68F7
:101D7000012213405A1E9341DBB21800BD4602B047
:101D800080BDC04680B584B000AF786039600F2355
:101D9000FB1801221A707B681800FFF7E3FF031E8F
:101DA0000FD17B68DB680C4A1A403B6859683B6876
:101DB0009B6819433B68DB680B431A437B68DA6016
:101DC00003E00F23FB1800221A700F23FB181B7867
:101DD0001800BD4604B080BDC73FFFFF80B584B08A
:101DE00000AF786039600F23FB1801221A707B68FE
:101DF0001800FFF7B7FF031E15D17B68DB680F4A99
:101E00001A403B6819683B685B6819433B689B68EC
:101E100019433B68DB6819433B681B690B431A4352
:101E20007B68DA6003E00F23FB1800221A700F238F
:101E3000FB181B781800BD4604B080BD3CC2FEFFF5
:101E400080B582B000AF7860044B044A11687A68AC
:101E50000A431A60C046BD4602B080BD000401407E
:101E600080B582B000AF7860054B054A126879688A
:101E7000C9430A401A60C046BD4602B080BDC04694
:101E80000004014080B582B000AF7860044B044A82
:101E900051687A680A435A60C046BD4602B080BDA8
:101EA0000004014080B582B000AF7860054B054A60
:101EB00052687968C9430A405A60C046BD4602B0BC
:101EC00080BDC0460004014080B582B000AF78609C
:101ED000044B044A91687A680A439A60C046BD463A
:101EE00002B080BD0004014080B582B000AF7860D0
:101EF000054B054A92687968C9430A409A60C04612
:101F0000BD4602B080BDC0460004014080B582B02D
:101F100000AF7860044B044AD1687A680A43DA60FB
:101F2000C046BD4602B080BD0004014080B582B00D
:101F300000AF7860054B054AD2687968C9430A400A
:101F4000DA60C046BD4602B080BDC0460004014014
:101F500080B584B000AF78600F23FB1801221A709F
:101F60007B681B79002B64D07B681B68002B6AD0D0
:101F70007B685B79012B0ED0022B17D0002B20D170
:101F80007B681B681800FFF78DFF7B681B681800D3
:101F9000FFF756FF1AE07B681B681800FFF760FF29
:101FA0007B681B681800FFF76DFF0FE07B681B68FC
:101FB0001800FFF745FF7B681B681800FFF762FFFA
:101FC00004E00F23FB1800221A70C0467B689B793F
:101FD000002B38D07B689B79022B0ED0032B17D0B7
:101FE000012B20D17B681B681800FFF79FFF7B68DF
:101FF0001B681800FFF768FF25E07B681B68180066
:10200000FFF772FF7B681B681800FFF77FFF1AE07D
:102010007B681B681800FFF757FF7B681B68180078
:10202000FFF774FF0FE00F23FB1800221A70C04661
:1020300009E07B681B681800FFF712FF7B681B68CC
:102040001800FFF72FFF0F23FB181B781800BD4661
:1020500004B080BD80B584B000AFF860B9607A602C
:10206000FB681968BB68BA685A4313005B009B1889
:10207000DB430B401A00BB68B9684B4379684B439C
:102080001A43FB681A60C046BD4604B080BDC04616
:1020900080B584B000AFF860B9607A60FB685B68B7
:1020A000BA68D2431A40BB6879684B431A43FB684D
:1020B0005A60C046BD4604B080BDC04680B584B0FD
:1020C00000AFF860B9607A60FB689968BB68BA686D
:1020D0005A4313005B009B18DB430B401A00BB689C
:1020E000B9684B4379684B431A43FB689A60C04612
:1020F000BD4604B080BDC04680B584B000AFF86076
:10210000B9607A60FB68D968BB68BA685A43130043
:102110005B009B18DB430B401A00BB68B9684B435C
:1021200079684B431A43FB68DA60C046BD4604B089
:1021300080BDC04680B584B000AFF860B9607A60F9
:10214000FB68196ABB68BA685343BA685343BA68F4
:102150005A4313001B019B1ADB430B401A00BB6858
:10216000B9684B43B9684B43B9684B4379684B43F3
:102170001A43FB681A62C046BD4604B080BDC04623
:1021800080B584B000AFF860B9607A60FB68596AC6
:10219000BB681B0ABA68120A5343BA68120A53434F
:1021A000BA68120A5A4313001B019B1ADB430B4007
:1021B0001A00BB681B0AB968090A4B43B968090AC7
:1021C0004B43B968090A4B4379684B431A43FB6890
:1021D0005A62C046BD4604B080BDC04680B584B0DA
:1021E00000AF786039600023FB600023BB6040E0F3
:1021F0003B681B680121FA6891400A001340BB60EC
:10220000BB68002B32D03B685A68B9687B681800FD
:10221000FFF720FF3B685B68012B03D03B685B68DE
:10222000022B06D13B689A68B9687B681800FFF7F3
:1022300045FF3B681A69B9687B681800FFF75CFFC7
:102240003B685B68022B11D1BB68FF2B07D83B684A
:102250005A69B9687B681800FFF76CFF06E03B68B5
:102260005A69B9687B681800FFF78AFFFB68013379
:10227000FB603B681A68FB68DA40131EB8D13B6804
:102280005B68012B03D03B685B68022B07D13B687E
:1022900019683B68DA687B681800FFF7F9FE0123CC
:1022A0001800BD4604B080BD80B582B000AF786034
:1022B0007B681B6801221A437B681A60C046BD46D2
:1022C00002B080BD80B582B000AF78607B681B68CB
:1022D000012293431A007B681A60C046BD4602B0D3
:1022E00080BDC04680B584B000AFF860B9607A6048
:1022F000FB681B68064A1A407B681902BB680B43DF
:102300001A43FB681A60C046BD4604B080BDC04693
:10231000FFE0FFFF80B584B000AFF860B9607A607D
:10232000FB689B68DB0ADA02B9687B680B431A43D7
:10233000FB689A60C046BD4604B080BD80B582B0DF
:1023400000AF78607B689B68802212021A437B682A
:102350009A60C046BD4602B080BDC04680B582B01E
:1023600000AF78607B689B68034A1A407B689A607C
:10237000C046BD4602B080BDFF7FFFFF80B582B082
:1023800000AF786039607B683A681A61C046BD4624
:1023900002B080BD80B582B000AF786039607B68E4
:1023A0001B68054A1A403B681A437B681A60C0469E
:1023B000BD4602B080BDC046FFFFCFFF80B582B0F2
:1023C00000AF786039607B685B68054A1A403B68FB
:1023D0001A437B685A60C046BD4602B080BDC04605
:1023E000FF7FFFFF80B582B000AF786039607B6807
:1023F0001800FFF767FF3B6899683B68DA687B68FD
:102400001800FFF76FFF3B685A687B6811001800DF
:10241000FFF7B4FF7B681800FFF746FF7B681800E2
:10242000FFF79CFF3B6819693B689A697B68180055
:10243000FFF770FF3B681B69002B03D07B68180017
:10244000FFF77CFF3B681A687B6811001800FFF7F4
:10245000A1FF3B685A697B6811001800FFF7AEFFC7
:1024600001231800BD4602B080BDC04680B500AF54
:10247000044B1B68022213405A1E9341DBB2180022
:10248000BD4680BD0010024080B500AF044B1B6A02
:10249000022213405A1E9341DBB21800BD4680BD94
:1024A0000010024080B500AF034B5B680C22134064
:1024B0001800BD4680BDC0460010024080B500AF88
:1024C000034B5B68F02213401800BD4680BDC04638
:1024D0000010024080B500AF034B5A68E023DB00D8
:1024E00013401800BD4680BD0010024080B582B088
:1024F00000AF7860064B1B6B03217A6891400A009D
:102500001A407B681B0613431800BD4602B080BD0D
:102510000010024080B500AF034B5A6880235B0275
:1025200013401800BD4680BD0010024080B500AFCA
:10253000034B5A68F0239B0313401800BD4680BD2F
:102540000010024080B500AF034BDB6A0F2213403E
:102550001800BD4680BDC0460010024080B582B064
:1025600000AF786000F058F802007B681A607B6862
:102570001B68180000F074F802007B685A607B68E2
:102580005B68180000F082F802007B689A60C04621
:10259000BD4602B080BDC04680B584B000AF786053
:1025A0000023FB607B68002B2ED17B681800FFF7AF
:1025B0009DFF0300022B0FD0032B06D0012B13D15C
:1025C00000F02AF80300FB601EE0FFF74FFF031E38
:1025D00017D0104BFB6014E0FFF756FF031E12D01C
:1025E00080231B02FB600EE000F016F803001800C9
:1025F00000F036F80300180000F048F80300FB6014
:1026000002E0C04600E0C046FB681800BD4604B0CA
:1026100080BDC04600127A0080B582B000AF0023B2
:102620007B60FFF73FFF0300042B06D0082B07D089
:10263000002B0AD1094B7B600AE0084B7B6007E066
:1026400000F038F803007B6002E0044B7B60C0467A
:102650007B681800BD4602B080BDC04600127A00FB
:1026600080B582B000AF7860FFF728FF0200F0234A
:1026700013401B09044AD35C1A007B68D34018003E
:10268000BD4602B080BDC0463033000880B582B080
:1026900000AF7860FFF71EFF03001B0A044AD35CFB
:1026A0001A007B68D3401800BD4602B080BDC0460A
:1026B0004033000890B583B000AF00237B60002357
:1026C0003B60FFF727FF03003B603B68002B04D013
:1026D00080225202934203D005E0104B7B6005E05C
:1026E0000F4B7B6002E00D4B7B60C046FFF72AFF7B
:1026F000030001331900786800F040FD03001C005E
:10270000FFF714FF0200F0239B0313409B0C0233DE
:1027100063431800BD4603B090BDC04600093D00AC
:1027200000127A0080B582B000AF786039607B68B3
:102730003A689A62C046BD4602B080BD80B582B09C
:1027400000AF786039607B683A68DA62C046BD469F
:1027500002B080BD80B582B000AF786039607B6820
:102760003A681A63C046BD4602B080BD80B582B0EB
:1027700000AF786039607B683A685A63C046BD46EE
:1027800002B080BD80B582B000AF786039607B68F0
:102790003A689A63C046BD4602B080BD80B582B03B
:1027A00000AF786039607B683A68DA63C046BD463E
:1027B00002B080BD80B582B000AF786039607B68C0
:1027C0003A681A64C046BD4602B080BD80B582B08A
:1027D00000AF78607B685B6901221A437B685A61AD
:1027E000C046BD4602B080BD80B584B000AF786001
:1027F00039600023FB607B681B68FB607B68354A9F
:10280000934208D07A688023DB059A4203D07B6824
:10281000314A934207D1FB68702293431A003B6808
:102820005B681343FB607B682A4A934218D07A683E
:102830008023DB059A4213D07B68274A93420FD04E
:102840007B68264A93420BD07B68254A934207D087
:102850007B68244A934203D07B68234A934206D183
:10286000FB68224A1A403B68DB681343FB607B68C5
:10287000FA681A603B689A687B6811001800FFF7D5
:102880005DFF3B681B881A007B6811001800FFF78A
:1028900049FF7B680F4A93420BD07B68104A9342F2
:1028A00007D07B680F4A934203D07B680E4A93425D
:1028B00007D13B681B7C1A007B6811001800FFF7EA
:1028C00049FF7B681800FFF781FF01231800BD4610
:1028D00004B080BD002C01400004004000200040F6
:1028E000004001400044014000480140FFFCFFFF60
:1028F00090B587B000AFF860B9607A601723FB1815
:1029000000221A70BB68102B17D002D8012B09D0F7
:1029100034E08022520093421AD080225201934226
:1029200021D02BE01723FC187A68FB6811001800EF
:1029300000F082F80300237020E01723FC187A6867
:10294000FB681100180000F001F90300237015E086
:102950001723FC187A68FB681100180000F086F94C
:10296000030023700AE01723FC187A68FB68110043
:10297000180000F00BFA03002370C0461723FB1861
:102980001B781800BD4607B090BDC04680B584B026
:1029900000AF786039600023FB60FB68FF2293433F
:1029A0003A68127B1343FB60FB681C4A1A403B6881
:1029B0009B681343FB60FB68194A1A403B685B68DD
:1029C0001343FB60FB68174A1A403B681B681343BC
:1029D000FB60FB68144A13403A68D2891343FB60DA
:1029E000FB68124A1A403B681B691343FB60FB6893
:1029F0000F4A1A403B685B691343FB60FB680D4A52
:102A00001A403B685B691343FB607B68FA685A6451
:102A100001231800BD4604B080BDC046FFFCFFFF87
:102A2000FFFBFFFFFFF7FFFFFFEFFFFFFFDFFFFFF2
:102A3000FFBFFFFFFF7FFFFF80B586B000AF78606C
:102A400039600023FB6000237B6100233B617B68CE
:102A50001B6A012293431A007B681A627B681B6A17
:102A60007B617B685B683B617B689B69FB60FB68A3
:102A700003229343FB60FB68702293431A003B6878
:102A80001B681343FB607B69022293431A003B6877
:102A90001B6913437B617B69012293431A003B68E6
:102AA0005B6813437B617B68224A93420BD07B684F
:102AB000214A934207D07B68204A934203D07B6827
:102AC0001F4A934220D17B69082293431A003B6836
:102AD0005B699B0013437B617B69042293431A006B
:102AE0003B689B689B0013437B613B69154A1A4016
:102AF0003B689B6913433B613B69134A1A403B683F
:102B0000DB695B0013433B617B683A695A607B6811
:102B1000FA689A613B68DA687B6811001800FFF771
:102B200025FE7B687A691A6201231800BD4606B04B
:102B300080BDC046002C01400040014000440140DF
:102B400000480140FFFEFFFFFFFDFFFF80B586B09C
:102B500000AF786039600023FB6000237B610023B5
:102B60003B617B681B6A102293431A007B681A62E0
:102B70007B681B6A7B617B685B683B617B689B69E8
:102B8000FB60FB68314A1340FB60FB68304A1A4027
:102B90003B681B681B021343FB607B692022934345
:102BA0001A003B681B691B0113437B617B69102280
:102BB00093431A003B685B681B0113437B617B688E
:102BC000244A93420BD07B68234A934207D07B6808
:102BD000224A934203D07B68214A934221D17B69E8
:102BE000802293431A003B685B699B0113437B611E
:102BF0007B69402293431A003B689B689B01134307
:102C00007B613B69174A1A403B689B699B001343F1
:102C10003B613B69144A1A403B68DB69DB001343A4
:102C20003B617B683A695A607B68FA689A613B68E5
:102C3000DA687B6811001800FFF7A4FD7B687A69E9
:102C40001A6201231800BD4606B080BDFFFCFFFFDD
:102C5000FF8FFFFF002C0140004001400044014075
:102C600000480140FFFBFFFFFFF7FFFF80B586B084
:102C700000AF786039600023FB6000237B61002394
:102C80003B617B681B6A374A1A407B681A627B6823
:102C90001B6A7B617B685B683B617B68DB69FB600F
:102CA000FB6803229343FB60FB68702293431A0086
:102CB0003B681B681343FB607B692B4A1A403B68E7
:102CC0001B691B0213437B617B69264A1A403B68E0
:102CD0005B681B0213437B617B68244A93420BD0E1
:102CE0007B68234A934207D07B68224A934203D0F1
:102CF0007B68214A93421FD17B69204A1A403B6876
:102D00005B699B0213437B617B691D4A1A403B68E8
:102D10009B689B0213437B613B691A4A1A403B68DC
:102D20009B691B0113433B613B69174A1A403B688F
:102D3000DB695B0113433B617B683A695A607B68DE
:102D4000FA68DA613B68DA687B6811001800FFF7FF
:102D500025FD7B687A691A6201231800BD4606B01A
:102D600080BDC046FFFEFFFFFFFDFFFF002C0140BE
:102D7000004001400044014000480140FFF7FFFFD0
:102D8000FFFBFFFFFFEFFFFFFFDFFFFF80B586B018
:102D900000AF7860396000233B610023FB600023B3
:102DA0007B617B681B6A2B4A1A407B681A627B68CE
:102DB0001B6AFB607B685B687B617B68DB693B61EE
:102DC0003B69254A13403B613B69244A1A403B68F2
:102DD0001B681B0213433B61FB68214A1A403B6896
:102DE0001B691B031343FB60FB681A4A1A403B68CC
:102DF0005B681B031343FB607B681A4A93420BD04A
:102E00007B68194A934207D07B68184A934203D0E3
:102E10007B68174A934207D17B69164A1A403B6880
:102E20009B699B0113437B617B687A695A607B686D
:102E30003A69DA613B68DA687B6811001800FFF7CD
:102E4000B9FC7B68FA681A6201231800BD4606B017
:102E500080BDC046FFEFFFFFFFFCFFFFFF8FFFFFBE
:102E6000FFDFFFFF002C0140004001400044014013
:102E700000480140FFBFFFFF80B582B000AF78601F
:102E80007B681B68012213405A1E9341DBB2180075
:102E9000BD4602B080BDC04680B582B000AF78604C
:102EA00039607B685B68054A1A403B681A437B6857
:102EB0005A60C046BD4602B080BDC046FFCFFFFF8E
:102EC00080B582B000AF786039607B689B68054A46
:102ED0001A403B681A437B689A60C046BD4602B000
:102EE00080BDC046FFFCFFFFB0B584B000AFF86006
:102EF000B9607A603B60002500247A6880231B0259
:102F00009A4215D1BB685A003B685B08D3183968F0
:102F1000180000F033F903001B041D0C0D4B2B406F
:102F20001C006B08072213401C43FB68DC600CE0AC
:102F30003B685A08BB68D3183968180000F01EF9BE
:102F400003001B041A0CFB68DA60C046BD4604B0DF
:102F5000B0BDC046F0FF000080B588B000AF78601B
:102F600039601F23FB1800221A700023BB617B68A5
:102F70001800FFF781FF031E49D17B681B68274AB1
:102F80001A403B6859683B68DB6819433B681B691A
:102F900019433B689B690B431A437B681A603B6883
:102FA0009A687B6811001800FFF776FF3B685A6942
:102FB0007B6811001800FFF783FF7B68184A934273
:102FC00005D10020FFF7E8FA0300BB610CE07B6845
:102FD000144A934208D10C23FB181800FFF7BEFADD
:102FE0000C23FB189B68BB61BB69002B0FD03B68AF
:102FF0001B68002B0BD01F23FB1801221A703B68A3
:103000009A693B681B68B9697868FFF76DFF1F23F1
:10301000FB181B781800BD4608B080BDF369FFFFA0
:10302000003801400044004090B583B000AF7860A4
:103030003960094C3968786800F0A0F80300013B5A
:103040006360054B00229A60034B05221A60C0465C
:10305000BD4603B090BDC04610E000E080B582B030
:1030600000AF7860FA239A007B6811001800FFF720
:10307000DBFFC046BD4602B080BDC04680B584B00F
:1030800000AF78600D4B1B68FB60FB687B68013309
:103090000CD07B6801337B6008E0084B1A68802302
:1030A0005B02134002D07B68013B7B607B68002B96
:1030B000F3D1C046BD4604B080BDC04610E000E07C
:1030C00080B582B000AF7860034B7A681A60C04662
:1030D000BD4602B080BDC0460C0000200749084A2A
:1030E000084B9B1A05DD00240859105104349C42FA
:1030F000FADB0548804705480047000048330008D0
:103100000000002010000020DD1C00081131000824
:103110001849194A002301E00B6004319142FBD3A6
:10312000FDF72CFFFEE7FEE7FEE7FEE7FEE7FEE722
:10313000FEE7FEE7FEE7FEE7FEE7FEE7FEE7FEE767
:10314000FEE7FEE7FEE7FEE7FEE7FEE7FEE7FEE757
:10315000FEE7FEE7FEE7FEE7FEE7FEE7FEE7FEE747
:10316000FEE7FEE7FEE7FEE7FEE7FEE7FEE7FEE737
:10317000FEE7FEE71000002029010020002243089E
:103180008B4274D303098B425FD3030A8B4244D32F
:10319000030B8B4228D3030C8B420DD3FF22090271
:1031A00012BA030C8B4202D31212090265D0030B30
:1031B0008B4219D300E0090AC30B8B4201D3CB0326
:1031C000C01A5241830B8B4201D38B03C01A524168
:1031D000430B8B4201D34B03C01A5241030B8B426A
:1031E00001D30B03C01A5241C30A8B4201D3CB0255
:1031F000C01A5241830A8B4201D38B02C01A52413A
:10320000430A8B4201D34B02C01A5241030A8B423C
:1032100001D30B02C01A5241CDD2C3098B4201D354
:10322000CB01C01A524183098B4201D38B01C01AD2
:10323000524143098B4201D34B01C01A5241030949
:103240008B4201D30B01C01A5241C3088B4201D3F8
:10325000CB00C01A524183088B4201D38B00C01AA5
:10326000524143088B4201D34B00C01A5241411ACC
:1032700000D20146524110467047FFE701B50020D9
:1032800000F006F802BDC0460029F7D076E7704787
:103290007047C04670B583073FD0541E002A3BD00C
:1032A000CEB20300032503E0621E002C34D01400CC
:1032B00001335A1E16702B42F6D1032C24D9FF2558
:1032C0000D402A0215432A0415430F2C11D926005C
:1032D000103E3609013636011A009B1915605560FB
:1032E0009560D56010329342F8D10F221440032C20
:1032F0000AD9261FB6080136B6001A009B1920C24B
:103300009342FCD103221440002C05D0C9B21C19F1
:10331000197001339C42FBD170BD14000300CCE74F
:103320000000000004040400000008000000080081
:103330000000000000000000010203040607080965
:0833400000000000010203047B
:1033480000380140004400400000000000127A00EC
:0400000508000000EF
:00000001FF
